{
  "contractName": "KulaksMarketplace",
  "abi": [
    {
      "constant": true,
      "inputs": [],
      "name": "creator",
      "outputs": [
        {
          "name": "",
          "type": "address"
        }
      ],
      "payable": false,
      "stateMutability": "view",
      "type": "function"
    },
    {
      "constant": true,
      "inputs": [
        {
          "name": "",
          "type": "address"
        },
        {
          "name": "",
          "type": "uint256"
        }
      ],
      "name": "shopIds",
      "outputs": [
        {
          "name": "",
          "type": "uint256"
        }
      ],
      "payable": false,
      "stateMutability": "view",
      "type": "function"
    },
    {
      "constant": true,
      "inputs": [
        {
          "name": "",
          "type": "uint256"
        }
      ],
      "name": "shopsList",
      "outputs": [
        {
          "name": "",
          "type": "uint256"
        }
      ],
      "payable": false,
      "stateMutability": "view",
      "type": "function"
    },
    {
      "constant": true,
      "inputs": [
        {
          "name": "",
          "type": "uint256"
        }
      ],
      "name": "usersList",
      "outputs": [
        {
          "name": "",
          "type": "address"
        }
      ],
      "payable": false,
      "stateMutability": "view",
      "type": "function"
    },
    {
      "constant": true,
      "inputs": [
        {
          "name": "",
          "type": "uint256"
        }
      ],
      "name": "shops",
      "outputs": [
        {
          "name": "id",
          "type": "uint256"
        },
        {
          "name": "name",
          "type": "string"
        },
        {
          "name": "shopType",
          "type": "string"
        },
        {
          "name": "description",
          "type": "string"
        },
        {
          "name": "owner",
          "type": "address"
        }
      ],
      "payable": false,
      "stateMutability": "view",
      "type": "function"
    },
    {
      "constant": true,
      "inputs": [
        {
          "name": "",
          "type": "uint256"
        }
      ],
      "name": "products",
      "outputs": [
        {
          "name": "id",
          "type": "uint256"
        },
        {
          "name": "name",
          "type": "string"
        },
        {
          "name": "description",
          "type": "string"
        },
        {
          "name": "price",
          "type": "uint256"
        },
        {
          "name": "shopId",
          "type": "uint256"
        }
      ],
      "payable": false,
      "stateMutability": "view",
      "type": "function"
    },
    {
      "constant": true,
      "inputs": [
        {
          "name": "",
          "type": "uint256"
        },
        {
          "name": "",
          "type": "uint256"
        }
      ],
      "name": "productIds",
      "outputs": [
        {
          "name": "",
          "type": "uint256"
        }
      ],
      "payable": false,
      "stateMutability": "view",
      "type": "function"
    },
    {
      "constant": true,
      "inputs": [
        {
          "name": "",
          "type": "address"
        }
      ],
      "name": "users",
      "outputs": [
        {
          "name": "",
          "type": "string"
        }
      ],
      "payable": false,
      "stateMutability": "view",
      "type": "function"
    },
    {
      "constant": true,
      "inputs": [
        {
          "name": "",
          "type": "uint256"
        }
      ],
      "name": "shopBalances",
      "outputs": [
        {
          "name": "",
          "type": "uint256"
        }
      ],
      "payable": false,
      "stateMutability": "view",
      "type": "function"
    },
    {
      "inputs": [],
      "payable": true,
      "stateMutability": "payable",
      "type": "constructor"
    },
    {
      "constant": true,
      "inputs": [
        {
          "name": "_addr",
          "type": "address"
        }
      ],
      "name": "test123",
      "outputs": [
        {
          "name": "",
          "type": "uint256"
        }
      ],
      "payable": false,
      "stateMutability": "view",
      "type": "function"
    },
    {
      "constant": false,
      "inputs": [
        {
          "name": "_addr",
          "type": "address"
        }
      ],
      "name": "makeShopOwner",
      "outputs": [],
      "payable": false,
      "stateMutability": "nonpayable",
      "type": "function"
    },
    {
      "constant": false,
      "inputs": [
        {
          "name": "_addr",
          "type": "address"
        }
      ],
      "name": "makeAdmin",
      "outputs": [],
      "payable": false,
      "stateMutability": "nonpayable",
      "type": "function"
    },
    {
      "constant": false,
      "inputs": [
        {
          "name": "_addr",
          "type": "address"
        }
      ],
      "name": "makeShopper",
      "outputs": [],
      "payable": false,
      "stateMutability": "nonpayable",
      "type": "function"
    },
    {
      "constant": true,
      "inputs": [],
      "name": "getUsersListLength",
      "outputs": [
        {
          "name": "",
          "type": "uint256"
        }
      ],
      "payable": false,
      "stateMutability": "view",
      "type": "function"
    },
    {
      "constant": true,
      "inputs": [],
      "name": "getShopsListLength",
      "outputs": [
        {
          "name": "",
          "type": "uint256"
        }
      ],
      "payable": false,
      "stateMutability": "view",
      "type": "function"
    },
    {
      "constant": false,
      "inputs": [
        {
          "name": "_name",
          "type": "string"
        },
        {
          "name": "_shopType",
          "type": "string"
        },
        {
          "name": "_description",
          "type": "string"
        }
      ],
      "name": "createShop",
      "outputs": [],
      "payable": false,
      "stateMutability": "nonpayable",
      "type": "function"
    },
    {
      "constant": false,
      "inputs": [
        {
          "name": "_shopId",
          "type": "uint256"
        },
        {
          "name": "_name",
          "type": "string"
        },
        {
          "name": "_description",
          "type": "string"
        },
        {
          "name": "_price",
          "type": "uint256"
        }
      ],
      "name": "createProduct",
      "outputs": [],
      "payable": false,
      "stateMutability": "nonpayable",
      "type": "function"
    },
    {
      "constant": false,
      "inputs": [
        {
          "name": "_productId",
          "type": "uint256"
        },
        {
          "name": "quantity",
          "type": "uint256"
        }
      ],
      "name": "purchaseProduct",
      "outputs": [],
      "payable": true,
      "stateMutability": "payable",
      "type": "function"
    },
    {
      "constant": false,
      "inputs": [
        {
          "name": "_shopId",
          "type": "uint256"
        }
      ],
      "name": "moveShopBalanceToOwner",
      "outputs": [],
      "payable": true,
      "stateMutability": "payable",
      "type": "function"
    },
    {
      "constant": true,
      "inputs": [],
      "name": "doesOwnerHaveShops",
      "outputs": [
        {
          "name": "",
          "type": "bool"
        },
        {
          "name": "",
          "type": "uint256"
        }
      ],
      "payable": false,
      "stateMutability": "view",
      "type": "function"
    },
    {
      "constant": true,
      "inputs": [
        {
          "name": "shopId",
          "type": "uint256"
        }
      ],
      "name": "doesShopHaveProducts",
      "outputs": [
        {
          "name": "",
          "type": "bool"
        },
        {
          "name": "",
          "type": "uint256"
        }
      ],
      "payable": false,
      "stateMutability": "view",
      "type": "function"
    },
    {
      "constant": true,
      "inputs": [],
      "name": "testBalance",
      "outputs": [
        {
          "name": "",
          "type": "uint256"
        }
      ],
      "payable": false,
      "stateMutability": "view",
      "type": "function"
    },
    {
      "constant": false,
      "inputs": [],
      "name": "becomeAdmin",
      "outputs": [
        {
          "name": "",
          "type": "bool"
        }
      ],
      "payable": false,
      "stateMutability": "nonpayable",
      "type": "function"
    },
    {
      "constant": false,
      "inputs": [],
      "name": "becomeRegularUser",
      "outputs": [
        {
          "name": "",
          "type": "bool"
        }
      ],
      "payable": false,
      "stateMutability": "nonpayable",
      "type": "function"
    },
    {
      "constant": false,
      "inputs": [],
      "name": "becomeShopOwner",
      "outputs": [
        {
          "name": "",
          "type": "bool"
        }
      ],
      "payable": false,
      "stateMutability": "nonpayable",
      "type": "function"
    },
    {
      "constant": false,
      "inputs": [
        {
          "name": "x",
          "type": "uint256"
        }
      ],
      "name": "set",
      "outputs": [],
      "payable": false,
      "stateMutability": "nonpayable",
      "type": "function"
    },
    {
      "constant": true,
      "inputs": [],
      "name": "get",
      "outputs": [
        {
          "name": "",
          "type": "uint256"
        }
      ],
      "payable": false,
      "stateMutability": "view",
      "type": "function"
    }
  ],
  "bytecode": "0x60806040526014600455600160038190555060018081905550336000806101000a81548173ffffffffffffffffffffffffffffffffffffffff021916908373ffffffffffffffffffffffffffffffffffffffff1602179055506131ba806100676000396000f30060806040526004361061015f576000357c0100000000000000000000000000000000000000000000000000000000900463ffffffff16806302d05d3f14610164578063035f4543146101bb57806314d52dd51461021c578063167a09d6146102475780631f0777a71461027657806325971dff146102965780632989d87f146102c55780632bdbd18914610306578063472905ca14610349578063477654821461038c578063502aa3b5146103e357806356117b73146104505780635c1db0491461048657806360fe47b1146104b15780636c6b5acd146104de5780636d4ce63c1461050d578063713aca741461053857806374e25e78146106f05780637acc0b20146107b35780637ef77e28146108da57806392bec5ee14610926578063975bb52f14610a1b578063a044042614610a66578063a87430ba14610a90578063ce7c510a14610b4c578063e659ebef14610b8f578063edede60114610bd0575b600080fd5b34801561017057600080fd5b50610179610bfb565b604051808273ffffffffffffffffffffffffffffffffffffffff1673ffffffffffffffffffffffffffffffffffffffff16815260200191505060405180910390f35b3480156101c757600080fd5b50610206600480360381019080803573ffffffffffffffffffffffffffffffffffffffff16906020019092919080359060200190929190505050610c20565b6040518082815260200191505060405180910390f35b34801561022857600080fd5b50610231610c50565b6040518082815260200191505060405180910390f35b34801561025357600080fd5b5061025c610c5d565b604051808215151515815260200191505060405180910390f35b61029460048036038101908080359060200190929190505050610ceb565b005b3480156102a257600080fd5b506102ab610fc2565b604051808215151515815260200191505060405180910390f35b3480156102d157600080fd5b506102f060048036038101908080359060200190929190505050611050565b6040518082815260200191505060405180910390f35b34801561031257600080fd5b50610347600480360381019080803573ffffffffffffffffffffffffffffffffffffffff169060200190929190505050611073565b005b34801561035557600080fd5b5061038a600480360381019080803573ffffffffffffffffffffffffffffffffffffffff1690602001909291905050506113a6565b005b34801561039857600080fd5b506103cd600480360381019080803573ffffffffffffffffffffffffffffffffffffffff1690602001909291905050506116d9565b6040518082815260200191505060405180910390f35b3480156103ef57600080fd5b5061040e60048036038101908080359060200190929190505050611736565b604051808273ffffffffffffffffffffffffffffffffffffffff1673ffffffffffffffffffffffffffffffffffffffff16815260200191505060405180910390f35b34801561045c57600080fd5b50610465611774565b60405180831515151581526020018281526020019250505060405180910390f35b34801561049257600080fd5b5061049b611a4a565b6040518082815260200191505060405180910390f35b3480156104bd57600080fd5b506104dc60048036038101908080359060200190929190505050611a57565b005b3480156104ea57600080fd5b506104f3611a61565b604051808215151515815260200191505060405180910390f35b34801561051957600080fd5b50610522611aef565b6040518082815260200191505060405180910390f35b34801561054457600080fd5b5061056360048036038101908080359060200190929190505050611af9565b604051808681526020018060200180602001806020018573ffffffffffffffffffffffffffffffffffffffff1673ffffffffffffffffffffffffffffffffffffffff168152602001848103845288818151815260200191508051906020019080838360005b838110156105e35780820151818401526020810190506105c8565b50505050905090810190601f1680156106105780820380516001836020036101000a031916815260200191505b50848103835287818151815260200191508051906020019080838360005b8381101561064957808201518184015260208101905061062e565b50505050905090810190601f1680156106765780820380516001836020036101000a031916815260200191505b50848103825286818151815260200191508051906020019080838360005b838110156106af578082015181840152602081019050610694565b50505050905090810190601f1680156106dc5780820380516001836020036101000a031916815260200191505b509850505050505050505060405180910390f35b3480156106fc57600080fd5b506107b160048036038101908080359060200190929190803590602001908201803590602001908080601f0160208091040260200160405190810160405280939291908181526020018383808284378201915050505050509192919290803590602001908201803590602001908080601f016020809104026020016040519081016040528093929190818152602001838380828437820191505050505050919291929080359060200190929190505050611d17565b005b3480156107bf57600080fd5b506107de60048036038101908080359060200190929190505050612041565b604051808681526020018060200180602001858152602001848152602001838103835287818151815260200191508051906020019080838360005b83811015610834578082015181840152602081019050610819565b50505050905090810190601f1680156108615780820380516001836020036101000a031916815260200191505b50838103825286818151815260200191508051906020019080838360005b8381101561089a57808201518184015260208101905061087f565b50505050905090810190601f1680156108c75780820380516001836020036101000a031916815260200191505b5097505050505050505060405180910390f35b3480156108e657600080fd5b50610905600480360381019080803590602001909291905050506121a7565b60405180831515151581526020018281526020019250505060405180910390f35b34801561093257600080fd5b50610a19600480360381019080803590602001908201803590602001908080601f0160208091040260200160405190810160405280939291908181526020018383808284378201915050505050509192919290803590602001908201803590602001908080601f0160208091040260200160405190810160405280939291908181526020018383808284378201915050505050509192919290803590602001908201803590602001908080601f01602080910402602001604051908101604052809392919081815260200183838082843782019150505050505091929192905050506121fb565b005b348015610a2757600080fd5b50610a5060048036038101908080359060200190929190803590602001909291905050506125e2565b6040518082815260200191505060405180910390f35b610a8e6004803603810190808035906020019092919080359060200190929190505050612612565b005b348015610a9c57600080fd5b50610ad1600480360381019080803573ffffffffffffffffffffffffffffffffffffffff169060200190929190505050612677565b6040518080602001828103825283818151815260200191508051906020019080838360005b83811015610b11578082015181840152602081019050610af6565b50505050905090810190601f168015610b3e5780820380516001836020036101000a031916815260200191505b509250505060405180910390f35b348015610b5857600080fd5b50610b8d600480360381019080803573ffffffffffffffffffffffffffffffffffffffff169060200190929190505050612727565b005b348015610b9b57600080fd5b50610bba60048036038101908080359060200190929190505050612a5a565b6040518082815260200191505060405180910390f35b348015610bdc57600080fd5b50610be5612a72565b6040518082815260200191505060405180910390f35b6000809054906101000a900473ffffffffffffffffffffffffffffffffffffffff1681565b600760205281600052604060002081815481101515610c3b57fe5b90600052602060002001600091509150505481565b6000600b80549050905090565b60006040805190810160405280600781526020017f73686f7070657200000000000000000000000000000000000000000000000000815250600c60003373ffffffffffffffffffffffffffffffffffffffff1673ffffffffffffffffffffffffffffffffffffffff1681526020019081526020016000209080519060200190610ce7929190612ff3565b5090565b6000600c60003373ffffffffffffffffffffffffffffffffffffffff1673ffffffffffffffffffffffffffffffffffffffff168152602001908152602001600020805460018160011615610100020316600290049050111515610d4d57600080fd5b60405160200180807f6f776e657200000000000000000000000000000000000000000000000000000081525060050190506040516020818303038152906040526040518082805190602001908083835b602083101515610dc25780518252602082019150602081019050602083039250610d9d565b6001836020036101000a038019825116818451168082178552505050505050905001915050604051809103902060001916600c60003373ffffffffffffffffffffffffffffffffffffffff1673ffffffffffffffffffffffffffffffffffffffff1681526020019081526020016000206040516020018082805460018160011615610100020316600290048015610e905780601f10610e6e576101008083540402835291820191610e90565b820191906000526020600020905b815481529060010190602001808311610e7c575b50509150506040516020818303038152906040526040518082805190602001908083835b602083101515610ed95780518252602082019150602081019050602083039250610eb4565b6001836020036101000a038019825116818451168082178552505050505050905001915050604051809103902060001916141515610f1657600080fd5b6006600082815260200190815260200160002060040160009054906101000a900473ffffffffffffffffffffffffffffffffffffffff1673ffffffffffffffffffffffffffffffffffffffff166108fc60056000848152602001908152602001600020549081150290604051600060405180830381858888f19350505050158015610fa5573d6000803e3d6000fd5b506000600560008381526020019081526020016000208190555050565b60006040805190810160405280600581526020017f61646d696e000000000000000000000000000000000000000000000000000000815250600c60003373ffffffffffffffffffffffffffffffffffffffff1673ffffffffffffffffffffffffffffffffffffffff168152602001908152602001600020908051906020019061104c929190612ff3565b5090565b600b8181548110151561105f57fe5b906000526020600020016000915090505481565b6000600c60003373ffffffffffffffffffffffffffffffffffffffff1673ffffffffffffffffffffffffffffffffffffffff1681526020019081526020016000208054600181600116156101000203166002900490501115156110d557600080fd5b60405160200180807f61646d696e00000000000000000000000000000000000000000000000000000081525060050190506040516020818303038152906040526040518082805190602001908083835b60208310151561114a5780518252602082019150602081019050602083039250611125565b6001836020036101000a038019825116818451168082178552505050505050905001915050604051809103902060001916600c60003373ffffffffffffffffffffffffffffffffffffffff1673ffffffffffffffffffffffffffffffffffffffff16815260200190815260200160002060405160200180828054600181600116156101000203166002900480156112185780601f106111f6576101008083540402835291820191611218565b820191906000526020600020905b815481529060010190602001808311611204575b50509150506040516020818303038152906040526040518082805190602001908083835b602083101515611261578051825260208201915060208101905060208303925061123c565b6001836020036101000a03801982511681845116808217855250505050505090500191505060405180910390206000191614151561129e57600080fd5b600015156112ab82612a91565b1515141561131a57600a8190806001815401808255809150509060018203906000526020600020016000909192909190916101000a81548173ffffffffffffffffffffffffffffffffffffffff021916908373ffffffffffffffffffffffffffffffffffffffff160217905550505b6040805190810160405280600581526020017f6f776e6572000000000000000000000000000000000000000000000000000000815250600c60008373ffffffffffffffffffffffffffffffffffffffff1673ffffffffffffffffffffffffffffffffffffffff16815260200190815260200160002090805190602001906113a2929190612ff3565b5050565b6000600c60003373ffffffffffffffffffffffffffffffffffffffff1673ffffffffffffffffffffffffffffffffffffffff16815260200190815260200160002080546001816001161561010002031660029004905011151561140857600080fd5b60405160200180807f61646d696e00000000000000000000000000000000000000000000000000000081525060050190506040516020818303038152906040526040518082805190602001908083835b60208310151561147d5780518252602082019150602081019050602083039250611458565b6001836020036101000a038019825116818451168082178552505050505050905001915050604051809103902060001916600c60003373ffffffffffffffffffffffffffffffffffffffff1673ffffffffffffffffffffffffffffffffffffffff168152602001908152602001600020604051602001808280546001816001161561010002031660029004801561154b5780601f1061152957610100808354040283529182019161154b565b820191906000526020600020905b815481529060010190602001808311611537575b50509150506040516020818303038152906040526040518082805190602001908083835b602083101515611594578051825260208201915060208101905060208303925061156f565b6001836020036101000a0380198251168184511680821785525050505050509050019150506040518091039020600019161415156115d157600080fd5b600015156115de82612a91565b1515141561164d57600a8190806001815401808255809150509060018203906000526020600020016000909192909190916101000a81548173ffffffffffffffffffffffffffffffffffffffff021916908373ffffffffffffffffffffffffffffffffffffffff160217905550505b6040805190810160405280600581526020017f61646d696e000000000000000000000000000000000000000000000000000000815250600c60008373ffffffffffffffffffffffffffffffffffffffff1673ffffffffffffffffffffffffffffffffffffffff16815260200190815260200160002090805190602001906116d5929190612ff3565b5050565b6000600c60008373ffffffffffffffffffffffffffffffffffffffff1673ffffffffffffffffffffffffffffffffffffffff1681526020019081526020016000208054600181600116156101000203166002900490509050919050565b600a8181548110151561174557fe5b906000526020600020016000915054906101000a900473ffffffffffffffffffffffffffffffffffffffff1681565b6000806000600c60003373ffffffffffffffffffffffffffffffffffffffff1673ffffffffffffffffffffffffffffffffffffffff1681526020019081526020016000208054600181600116156101000203166002900490501115156117d957600080fd5b60405160200180807f6f776e657200000000000000000000000000000000000000000000000000000081525060050190506040516020818303038152906040526040518082805190602001908083835b60208310151561184e5780518252602082019150602081019050602083039250611829565b6001836020036101000a038019825116818451168082178552505050505050905001915050604051809103902060001916600c60003373ffffffffffffffffffffffffffffffffffffffff1673ffffffffffffffffffffffffffffffffffffffff168152602001908152602001600020604051602001808280546001816001161561010002031660029004801561191c5780601f106118fa57610100808354040283529182019161191c565b820191906000526020600020905b815481529060010190602001808311611908575b50509150506040516020818303038152906040526040518082805190602001908083835b6020831015156119655780518252602082019150602081019050602083039250611940565b6001836020036101000a0380198251168184511680821785525050505050509050019150506040518091039020600019161415156119a257600080fd5b6000600760003373ffffffffffffffffffffffffffffffffffffffff1673ffffffffffffffffffffffffffffffffffffffff168152602001908152602001600020805490501115611a3b576001600760003373ffffffffffffffffffffffffffffffffffffffff1673ffffffffffffffffffffffffffffffffffffffff1681526020019081526020016000208054905091509150611a46565b600080809050915091505b9091565b6000600a80549050905090565b8060028190555050565b60006040805190810160405280600581526020017f6f776e6572000000000000000000000000000000000000000000000000000000815250600c60003373ffffffffffffffffffffffffffffffffffffffff1673ffffffffffffffffffffffffffffffffffffffff1681526020019081526020016000209080519060200190611aeb929190612ff3565b5090565b6000600254905090565b6006602052806000526040600020600091509050806000015490806001018054600181600116156101000203166002900480601f016020809104026020016040519081016040528092919081815260200182805460018160011615610100020316600290048015611bab5780601f10611b8057610100808354040283529160200191611bab565b820191906000526020600020905b815481529060010190602001808311611b8e57829003601f168201915b505050505090806002018054600181600116156101000203166002900480601f016020809104026020016040519081016040528092919081815260200182805460018160011615610100020316600290048015611c495780601f10611c1e57610100808354040283529160200191611c49565b820191906000526020600020905b815481529060010190602001808311611c2c57829003601f168201915b505050505090806003018054600181600116156101000203166002900480601f016020809104026020016040519081016040528092919081815260200182805460018160011615610100020316600290048015611ce75780601f10611cbc57610100808354040283529160200191611ce7565b820191906000526020600020905b815481529060010190602001808311611cca57829003601f168201915b5050505050908060040160009054906101000a900473ffffffffffffffffffffffffffffffffffffffff16905085565b6000611d21613073565b6000600c60003373ffffffffffffffffffffffffffffffffffffffff1673ffffffffffffffffffffffffffffffffffffffff168152602001908152602001600020805460018160011615610100020316600290049050111515611d8357600080fd5b60405160200180807f6f776e657200000000000000000000000000000000000000000000000000000081525060050190506040516020818303038152906040526040518082805190602001908083835b602083101515611df85780518252602082019150602081019050602083039250611dd3565b6001836020036101000a038019825116818451168082178552505050505050905001915050604051809103902060001916600c60003373ffffffffffffffffffffffffffffffffffffffff1673ffffffffffffffffffffffffffffffffffffffff1681526020019081526020016000206040516020018082805460018160011615610100020316600290048015611ec65780601f10611ea4576101008083540402835291820191611ec6565b820191906000526020600020905b815481529060010190602001808311611eb2575b50509150506040516020818303038152906040526040518082805190602001908083835b602083101515611f0f5780518252602082019150602081019050602083039250611eea565b6001836020036101000a038019825116818451168082178552505050505050905001915050604051809103902060001916141515611f4c57600080fd5b600154915060a0604051908101604052808381526020018681526020018581526020018481526020018781525090508060096000848152602001908152602001600020600082015181600001556020820151816001019080519060200190611fb59291906130a3565b506040820151816002019080519060200190611fd29291906130a3565b50606082015181600301556080820151816004015590505060086000878152602001908152602001600020829080600181540180825580915050906001820390600052602060002001600090919290919091505550600160008154809291906001019190505550505050505050565b6009602052806000526040600020600091509050806000015490806001018054600181600116156101000203166002900480601f0160208091040260200160405190810160405280929190818152602001828054600181600116156101000203166002900480156120f35780601f106120c8576101008083540402835291602001916120f3565b820191906000526020600020905b8154815290600101906020018083116120d657829003601f168201915b505050505090806002018054600181600116156101000203166002900480601f0160208091040260200160405190810160405280929190818152602001828054600181600116156101000203166002900480156121915780601f1061216657610100808354040283529160200191612191565b820191906000526020600020905b81548152906001019060200180831161217457829003601f168201915b5050505050908060030154908060040154905085565b6000806000600860008581526020019081526020016000208054905011156121eb5760016008600085815260200190815260200160002080549050915091506121f6565b600080809050915091505b915091565b6000612205613123565b6000600c60003373ffffffffffffffffffffffffffffffffffffffff1673ffffffffffffffffffffffffffffffffffffffff16815260200190815260200160002080546001816001161561010002031660029004905011151561226757600080fd5b60405160200180807f6f776e657200000000000000000000000000000000000000000000000000000081525060050190506040516020818303038152906040526040518082805190602001908083835b6020831015156122dc57805182526020820191506020810190506020830392506122b7565b6001836020036101000a038019825116818451168082178552505050505050905001915050604051809103902060001916600c60003373ffffffffffffffffffffffffffffffffffffffff1673ffffffffffffffffffffffffffffffffffffffff16815260200190815260200160002060405160200180828054600181600116156101000203166002900480156123aa5780601f106123885761010080835404028352918201916123aa565b820191906000526020600020905b815481529060010190602001808311612396575b50509150506040516020818303038152906040526040518082805190602001908083835b6020831015156123f357805182526020820191506020810190506020830392506123ce565b6001836020036101000a03801982511681845116808217855250505050505090500191505060405180910390206000191614151561243057600080fd5b600354915060a0604051908101604052808381526020018681526020018581526020018481526020013373ffffffffffffffffffffffffffffffffffffffff16815250905080600660008481526020019081526020016000206000820151816000015560208201518160010190805190602001906124af9291906130a3565b5060408201518160020190805190602001906124cc9291906130a3565b5060608201518160030190805190602001906124e99291906130a3565b5060808201518160040160006101000a81548173ffffffffffffffffffffffffffffffffffffffff021916908373ffffffffffffffffffffffffffffffffffffffff160217905550905050600760003373ffffffffffffffffffffffffffffffffffffffff1673ffffffffffffffffffffffffffffffffffffffff168152602001908152602001600020829080600181540180825580915050906001820390600052602060002001600090919290919091505550600b8290806001815401808255809150509060018203906000526020600020016000909192909190915055506003600081548092919060010191905055505050505050565b6008602052816000526040600020818154811015156125fd57fe5b90600052602060002001600091509150505481565b60045481600960008581526020019081526020016000206003015402013414151561263c57600080fd5b346005600060096000868152602001908152602001600020600401548152602001908152602001600020600082825401925050819055505050565b600c6020528060005260406000206000915090508054600181600116156101000203166002900480601f01602080910402602001604051908101604052809291908181526020018280546001816001161561010002031660029004801561271f5780601f106126f45761010080835404028352916020019161271f565b820191906000526020600020905b81548152906001019060200180831161270257829003601f168201915b505050505081565b6000600c60003373ffffffffffffffffffffffffffffffffffffffff1673ffffffffffffffffffffffffffffffffffffffff16815260200190815260200160002080546001816001161561010002031660029004905011151561278957600080fd5b60405160200180807f61646d696e00000000000000000000000000000000000000000000000000000081525060050190506040516020818303038152906040526040518082805190602001908083835b6020831015156127fe57805182526020820191506020810190506020830392506127d9565b6001836020036101000a038019825116818451168082178552505050505050905001915050604051809103902060001916600c60003373ffffffffffffffffffffffffffffffffffffffff1673ffffffffffffffffffffffffffffffffffffffff16815260200190815260200160002060405160200180828054600181600116156101000203166002900480156128cc5780601f106128aa5761010080835404028352918201916128cc565b820191906000526020600020905b8154815290600101906020018083116128b8575b50509150506040516020818303038152906040526040518082805190602001908083835b60208310151561291557805182526020820191506020810190506020830392506128f0565b6001836020036101000a03801982511681845116808217855250505050505090500191505060405180910390206000191614151561295257600080fd5b6000151561295f82612a91565b151514156129ce57600a8190806001815401808255809150509060018203906000526020600020016000909192909190916101000a81548173ffffffffffffffffffffffffffffffffffffffff021916908373ffffffffffffffffffffffffffffffffffffffff160217905550505b6040805190810160405280600781526020017f73686f7070657200000000000000000000000000000000000000000000000000815250600c60008373ffffffffffffffffffffffffffffffffffffffff1673ffffffffffffffffffffffffffffffffffffffff1681526020019081526020016000209080519060200190612a56929190612ff3565b5050565b60056020528060005260406000206000915090505481565b60003073ffffffffffffffffffffffffffffffffffffffff1631905090565b600060405160200180807f61646d696e00000000000000000000000000000000000000000000000000000081525060050190506040516020818303038152906040526040518082805190602001908083835b602083101515612b085780518252602082019150602081019050602083039250612ae3565b6001836020036101000a038019825116818451168082178552505050505050905001915050604051809103902060001916600c60008473ffffffffffffffffffffffffffffffffffffffff1673ffffffffffffffffffffffffffffffffffffffff1681526020019081526020016000206040516020018082805460018160011615610100020316600290048015612bd65780601f10612bb4576101008083540402835291820191612bd6565b820191906000526020600020905b815481529060010190602001808311612bc2575b50509150506040516020818303038152906040526040518082805190602001908083835b602083101515612c1f5780518252602082019150602081019050602083039250612bfa565b6001836020036101000a0380198251168184511680821785525050505050509050019150506040518091039020600019161480612e16575060405160200180807f6f776e657200000000000000000000000000000000000000000000000000000081525060050190506040516020818303038152906040526040518082805190602001908083835b602083101515612ccc5780518252602082019150602081019050602083039250612ca7565b6001836020036101000a038019825116818451168082178552505050505050905001915050604051809103902060001916600c60008473ffffffffffffffffffffffffffffffffffffffff1673ffffffffffffffffffffffffffffffffffffffff1681526020019081526020016000206040516020018082805460018160011615610100020316600290048015612d9a5780601f10612d78576101008083540402835291820191612d9a565b820191906000526020600020905b815481529060010190602001808311612d86575b50509150506040516020818303038152906040526040518082805190602001908083835b602083101515612de35780518252602082019150602081019050602083039250612dbe565b6001836020036101000a038019825116818451168082178552505050505050905001915050604051809103902060001916145b80612fdb575060405160200180807f757365720000000000000000000000000000000000000000000000000000000081525060040190506040516020818303038152906040526040518082805190602001908083835b602083101515612e915780518252602082019150602081019050602083039250612e6c565b6001836020036101000a038019825116818451168082178552505050505050905001915050604051809103902060001916600c60008473ffffffffffffffffffffffffffffffffffffffff1673ffffffffffffffffffffffffffffffffffffffff1681526020019081526020016000206040516020018082805460018160011615610100020316600290048015612f5f5780601f10612f3d576101008083540402835291820191612f5f565b820191906000526020600020905b815481529060010190602001808311612f4b575b50509150506040516020818303038152906040526040518082805190602001908083835b602083101515612fa85780518252602082019150602081019050602083039250612f83565b6001836020036101000a038019825116818451168082178552505050505050905001915050604051809103902060001916145b15612fe95760019050612fee565b600090505b919050565b828054600181600116156101000203166002900490600052602060002090601f016020900481019282601f1061303457805160ff1916838001178555613062565b82800160010185558215613062579182015b82811115613061578251825591602001919060010190613046565b5b50905061306f9190613169565b5090565b60a06040519081016040528060008152602001606081526020016060815260200160008152602001600081525090565b828054600181600116156101000203166002900490600052602060002090601f016020900481019282601f106130e457805160ff1916838001178555613112565b82800160010185558215613112579182015b828111156131115782518255916020019190600101906130f6565b5b50905061311f9190613169565b5090565b60a06040519081016040528060008152602001606081526020016060815260200160608152602001600073ffffffffffffffffffffffffffffffffffffffff1681525090565b61318b91905b8082111561318757600081600090555060010161316f565b5090565b905600a165627a7a72305820ad89e654d7847b7dc36a9ff8e89929dc947a3282280fa98a025ffa215efbecd50029",
  "source": "pragma solidity ^0.4.17;\n\ncontract KulaksMarketplace {\n  struct Product {\n    uint id;\n    string name;\n    string description;\n    uint price;\n    uint shopId;\n    \n  }\n  struct Shop {\n    uint id;\n    string name;\n    string shopType;\n    string description;\n    address owner;\n  }\n  \n  constructor () public payable {\n      shopCount = 1;\n      productCount = 1;\n      creator = msg.sender;\n  }\n  address public creator; // the address that instantiated the contract\n  uint productCount;\n  uint storedData; // AK_REMOE\n  uint shopCount;\n  uint shippingAndHandling = 20;\n  mapping(uint => uint) public shopBalances;\n  // mapping(address => bool) public admins; // enter an address to confirm if it's an admin\n  // mapping(address => bool) public shopOwners; // enter an address to confirm if it's an shopOwner\n  mapping(uint => Shop) public shops; // enter shopId to get info about the store\n  mapping(address => uint[]) public shopIds; // enter an address to get an array of creates shops for the particular shopOwner\n  mapping(uint => uint[]) public productIds; // enter a productId to get an array of created products for the particular shop\n  mapping(uint => Product) public products;\n  address[] public usersList;\n  uint[] public shopsList;\n  mapping(address => string) public users;\n  \n  modifier shopOwnerOnly() {\n      require(bytes(users[msg.sender]).length > 0);\n    require(keccak256(abi.encodePacked(users[msg.sender])) == keccak256(abi.encodePacked(\"owner\")));\n    _;\n  }\n  \n  modifier adminOnly() {\n    require(bytes(users[msg.sender]).length > 0);\n    require(keccak256(abi.encodePacked(users[msg.sender])) == keccak256(abi.encodePacked(\"admin\")));\n    // require(keccak256(abi.encodePacked(users[msg.sender])) == keccak256(abi.encodePacked(\"admin\")));\n    _;\n  }\n  \n  // check if user already exists within users mapping\n  function checkUserListExist (address _addr) private view returns(bool) {\n      if(\n          keccak256(abi.encodePacked(users[_addr])) == keccak256(abi.encodePacked(\"admin\")) ||\n          keccak256(abi.encodePacked(users[_addr])) == keccak256(abi.encodePacked(\"owner\")) ||\n          keccak256(abi.encodePacked(users[_addr])) == keccak256(abi.encodePacked(\"user\"))\n      ) {\n          return true;\n      }\n      \n      return false;\n  }\n\n  // to be removed - AK_REMOVE\n  function test123(address _addr) public view returns(uint) {\n      return bytes(users[_addr]).length;\n  }\n  \n  // used by admin to create a regular an owner of a shop\n  function makeShopOwner(address _addr) adminOnly public {\n    if(checkUserListExist(_addr) == false) {\n         usersList.push(_addr);\n    }\n    users[_addr] = \"owner\";\n     \n  }\n  \n  // used by admin to create another admin\n  function makeAdmin(address _addr) adminOnly public {\n    if(checkUserListExist(_addr) == false) {\n        usersList.push(_addr);\n    }\n    users[_addr] = \"admin\";\n     \n  }\n  \n  // used by admin to create a regular user/shopper\n  function makeShopper(address _addr) adminOnly public {\n    if(checkUserListExist(_addr) == false) {\n        usersList.push(_addr);\n    }\n    users[_addr] = \"shopper\";\n     \n  }\n  \n  // get length of userList so we can itterate over it and get all users visible by admin\n  function getUsersListLength() public view returns(uint) {\n     return usersList.length;\n  }\n  \n  // get length of shopsList so we can itterate over it and get all shops visible to user\n  function getShopsListLength() public view returns(uint) {\n     return shopsList.length;\n  }\n  \n  // creating a shop (by shop owner only)\n  function createShop(string _name, string _shopType, string _description) shopOwnerOnly public {\n     uint id = shopCount;\n     \n     Shop memory newShop = Shop({\n       id: id,\n       name: _name,\n       description: _description,\n       shopType: _shopType,\n       owner: msg.sender\n     });\n\n      // add a shop to shops mapping and reference by id\n     shops[id] = newShop;\n     \n     // push the shopId to a shopIds mapping for reference\n     shopIds[msg.sender].push(id);\n     // increment counter by 1 since you are using it for id's for shops as well\n     \n     shopsList.push(id); // push shopId to shopList so we can display all shops to user\n    shopCount++;\n  }\n  \n  // creating a product (by shop owner only)\n  function createProduct(uint _shopId, string _name, string _description, uint _price) shopOwnerOnly public {\n     uint id = productCount;\n     \n     Product memory newProduct = Product({\n       id: id,\n       shopId: _shopId,\n       name: _name,\n       description: _description,\n       price: _price\n     });\n     \n     products[id] = newProduct; // adding a product to shopProducts mapping\n     productIds[_shopId].push(id); // pushing the product id to be refernced in the store struct\n     productCount ++;\n    \n  }\n  \n  function purchaseProduct(uint _productId, uint quantity) public payable  {\n      // require for value of transaction to be of the right amount\n     require(msg.value == products[_productId].price * quantity + shippingAndHandling);\n      // keeping track of balance of a shop. shop owner can then send that value to their account\n     shopBalances[products[_productId].shopId] += msg.value;\n     // return products[_productId].price * quantity + shippingAndHandling;\n  }\n  \n  // moving shop eth balance to the shop owner account (by shop owner only)\n  function moveShopBalanceToOwner (uint _shopId) public shopOwnerOnly payable {\n      shops[_shopId].owner.transfer(shopBalances[_shopId]);\n      shopBalances[_shopId] = 0; // after the money has been transfered over, make balance 0 again\n  }\n\n  // check if shop owner has shops\n  function doesOwnerHaveShops () public view shopOwnerOnly returns(bool, uint) {\n      if(shopIds[msg.sender].length > 0) {\n          return(true,  shopIds[msg.sender].length);\n      } else {\n          return(false, 0);\n      }\n  }\n  \n  function doesShopHaveProducts (uint shopId) public view returns(bool, uint) {\n      if(productIds[shopId].length > 0) {\n          return(true,  productIds[shopId].length);\n      } else {\n          return(false, 0);\n      }\n  }\n  \n  // to be removed - AK_REMOVE\n  function testBalance () public view returns (uint) {\n      return this.balance;\n  }\n\n  // for testing purposes only. any user can make themselves admin\n  // so that they can test all the functionality\n  function becomeAdmin() public returns (bool) {\n      users[msg.sender] = \"admin\";\n  }\n  \n  // for testing purposes only. any user can make themselves a shopper\n  // so that they can test all the functionality\n  function becomeRegularUser() public returns (bool) {\n      users[msg.sender] = \"shopper\";\n  }\n  \n  // for testing purposes only. any user can make themselves shop owner\n  // so that they can test all the functionality\n  function becomeShopOwner() public returns (bool) {\n      users[msg.sender] = \"owner\";\n  }\n  \n  // to be removed - AK_REMOVE\n  function set(uint x) public {\n    storedData = x;\n  }\n\n  // to be removed - AK_REMOVE\n  function get() public view returns (uint) {\n    return storedData;\n  }\n}\n",
  "sourcePath": "/Users/akulak/repos/eth_kulaksMarketplace/contracts/KulaksMarketplace.sol",
  "compiler": {
    "name": "solc",
    "version": "0.4.24+commit.e67f0147.Emscripten.clang"
  },
  "schemaVersion": "2.0.1",
  "updatedAt": "2018-08-10T03:28:25.042Z"
}