{
  "contractName": "KulaksMarketplace",
  "abi": [
    {
      "constant": true,
      "inputs": [
        {
          "name": "",
          "type": "address"
        },
        {
          "name": "",
          "type": "uint256"
        }
      ],
      "name": "storeIds",
      "outputs": [
        {
          "name": "",
          "type": "uint256"
        }
      ],
      "payable": false,
      "stateMutability": "view",
      "type": "function"
    },
    {
      "constant": true,
      "inputs": [
        {
          "name": "",
          "type": "address"
        }
      ],
      "name": "admins",
      "outputs": [
        {
          "name": "",
          "type": "bool"
        }
      ],
      "payable": false,
      "stateMutability": "view",
      "type": "function"
    },
    {
      "constant": true,
      "inputs": [],
      "name": "user",
      "outputs": [
        {
          "name": "",
          "type": "address"
        }
      ],
      "payable": false,
      "stateMutability": "view",
      "type": "function"
    },
    {
      "constant": true,
      "inputs": [
        {
          "name": "",
          "type": "uint256"
        }
      ],
      "name": "products",
      "outputs": [
        {
          "name": "id",
          "type": "uint256"
        },
        {
          "name": "name",
          "type": "string"
        },
        {
          "name": "description",
          "type": "string"
        },
        {
          "name": "price",
          "type": "uint256"
        },
        {
          "name": "storeId",
          "type": "uint256"
        }
      ],
      "payable": false,
      "stateMutability": "view",
      "type": "function"
    },
    {
      "constant": true,
      "inputs": [
        {
          "name": "",
          "type": "uint256"
        },
        {
          "name": "",
          "type": "uint256"
        }
      ],
      "name": "productIds",
      "outputs": [
        {
          "name": "",
          "type": "uint256"
        }
      ],
      "payable": false,
      "stateMutability": "view",
      "type": "function"
    },
    {
      "constant": true,
      "inputs": [
        {
          "name": "",
          "type": "address"
        }
      ],
      "name": "shopOwners",
      "outputs": [
        {
          "name": "",
          "type": "bool"
        }
      ],
      "payable": false,
      "stateMutability": "view",
      "type": "function"
    },
    {
      "constant": true,
      "inputs": [
        {
          "name": "",
          "type": "uint256"
        }
      ],
      "name": "stores",
      "outputs": [
        {
          "name": "id",
          "type": "uint256"
        },
        {
          "name": "name",
          "type": "string"
        },
        {
          "name": "storeType",
          "type": "string"
        },
        {
          "name": "description",
          "type": "string"
        },
        {
          "name": "owner",
          "type": "address"
        }
      ],
      "payable": false,
      "stateMutability": "view",
      "type": "function"
    },
    {
      "inputs": [],
      "payable": true,
      "stateMutability": "payable",
      "type": "constructor"
    },
    {
      "constant": false,
      "inputs": [
        {
          "name": "_name",
          "type": "string"
        },
        {
          "name": "_storeType",
          "type": "string"
        },
        {
          "name": "_description",
          "type": "string"
        }
      ],
      "name": "createStore",
      "outputs": [],
      "payable": false,
      "stateMutability": "nonpayable",
      "type": "function"
    },
    {
      "constant": false,
      "inputs": [
        {
          "name": "_storeId",
          "type": "uint256"
        },
        {
          "name": "_name",
          "type": "string"
        },
        {
          "name": "_description",
          "type": "string"
        },
        {
          "name": "_price",
          "type": "uint256"
        }
      ],
      "name": "createProduct",
      "outputs": [],
      "payable": false,
      "stateMutability": "nonpayable",
      "type": "function"
    },
    {
      "constant": true,
      "inputs": [],
      "name": "doesOwnerHaveShops",
      "outputs": [
        {
          "name": "",
          "type": "bool"
        },
        {
          "name": "",
          "type": "uint256"
        }
      ],
      "payable": false,
      "stateMutability": "view",
      "type": "function"
    },
    {
      "constant": true,
      "inputs": [
        {
          "name": "storeId",
          "type": "uint256"
        }
      ],
      "name": "doesStoreHaveProducts",
      "outputs": [
        {
          "name": "",
          "type": "bool"
        },
        {
          "name": "",
          "type": "uint256"
        }
      ],
      "payable": false,
      "stateMutability": "view",
      "type": "function"
    },
    {
      "constant": true,
      "inputs": [
        {
          "name": "order",
          "type": "uint256"
        }
      ],
      "name": "getShopIdByOrder",
      "outputs": [
        {
          "name": "",
          "type": "bool"
        },
        {
          "name": "",
          "type": "uint256"
        }
      ],
      "payable": false,
      "stateMutability": "view",
      "type": "function"
    },
    {
      "constant": true,
      "inputs": [
        {
          "name": "_storeId",
          "type": "uint256"
        },
        {
          "name": "_order",
          "type": "uint256"
        }
      ],
      "name": "getProductIdByOrder",
      "outputs": [
        {
          "name": "",
          "type": "bool"
        },
        {
          "name": "",
          "type": "uint256"
        }
      ],
      "payable": false,
      "stateMutability": "view",
      "type": "function"
    },
    {
      "constant": false,
      "inputs": [
        {
          "name": "userAddress",
          "type": "address"
        }
      ],
      "name": "sendValueTest",
      "outputs": [],
      "payable": true,
      "stateMutability": "payable",
      "type": "function"
    },
    {
      "constant": true,
      "inputs": [],
      "name": "testBalance",
      "outputs": [
        {
          "name": "",
          "type": "uint256"
        }
      ],
      "payable": false,
      "stateMutability": "view",
      "type": "function"
    },
    {
      "constant": false,
      "inputs": [
        {
          "name": "adminAddress",
          "type": "address"
        }
      ],
      "name": "becomeAdmin",
      "outputs": [
        {
          "name": "",
          "type": "bool"
        }
      ],
      "payable": false,
      "stateMutability": "nonpayable",
      "type": "function"
    },
    {
      "constant": false,
      "inputs": [
        {
          "name": "ownerAddress",
          "type": "address"
        }
      ],
      "name": "becomeShopOwner",
      "outputs": [
        {
          "name": "",
          "type": "bool"
        }
      ],
      "payable": false,
      "stateMutability": "nonpayable",
      "type": "function"
    },
    {
      "constant": true,
      "inputs": [
        {
          "name": "checkAddress",
          "type": "address"
        }
      ],
      "name": "checkIfUserAdmin",
      "outputs": [
        {
          "name": "",
          "type": "bool"
        }
      ],
      "payable": false,
      "stateMutability": "view",
      "type": "function"
    },
    {
      "constant": true,
      "inputs": [
        {
          "name": "checkAddress",
          "type": "address"
        }
      ],
      "name": "checkIfUserShopOwner",
      "outputs": [
        {
          "name": "",
          "type": "bool"
        }
      ],
      "payable": false,
      "stateMutability": "view",
      "type": "function"
    },
    {
      "constant": false,
      "inputs": [
        {
          "name": "x",
          "type": "uint256"
        }
      ],
      "name": "set",
      "outputs": [],
      "payable": false,
      "stateMutability": "nonpayable",
      "type": "function"
    },
    {
      "constant": true,
      "inputs": [],
      "name": "get",
      "outputs": [
        {
          "name": "",
          "type": "uint256"
        }
      ],
      "payable": false,
      "stateMutability": "view",
      "type": "function"
    }
  ],
  "bytecode": "0x60806040526001600381905550600180819055506001600481905550336000806101000a81548173ffffffffffffffffffffffffffffffffffffffff021916908373ffffffffffffffffffffffffffffffffffffffff16021790555061174a8061006a6000396000f30060806040526004361061011d576000357c0100000000000000000000000000000000000000000000000000000000900463ffffffff16806309c7a53a14610122578063284754871461017d578063306368d2146101de578063429b62e5146102d35780634f8632ba1461032e57806356117b731461038557806360fe47b1146103bb5780636d4ce63c146103e85780636e31e5651461041357806374e25e781461045f5780637acc0b201461052257806385add65e14610649578063921cac1c146106a4578063975bb52f146106f0578063a36a25871461073b578063bc497a3814610771578063c4a8a96d146107c7578063e768c93c14610822578063e8a59cd81461087d578063edede60114610a35578063ff8010bb14610a60575b600080fd5b34801561012e57600080fd5b50610163600480360381019080803573ffffffffffffffffffffffffffffffffffffffff169060200190929190505050610abb565b604051808215151515815260200191505060405180910390f35b34801561018957600080fd5b506101c8600480360381019080803573ffffffffffffffffffffffffffffffffffffffff16906020019092919080359060200190929190505050610b29565b6040518082815260200191505060405180910390f35b3480156101ea57600080fd5b506102d1600480360381019080803590602001908201803590602001908080601f0160208091040260200160405190810160405280939291908181526020018383808284378201915050505050509192919290803590602001908201803590602001908080601f0160208091040260200160405190810160405280939291908181526020018383808284378201915050505050509192919290803590602001908201803590602001908080601f0160208091040260200160405190810160405280939291908181526020018383808284378201915050505050509192919290505050610b59565b005b3480156102df57600080fd5b50610314600480360381019080803573ffffffffffffffffffffffffffffffffffffffff169060200190929190505050610ce9565b604051808215151515815260200191505060405180910390f35b34801561033a57600080fd5b50610343610d09565b604051808273ffffffffffffffffffffffffffffffffffffffff1673ffffffffffffffffffffffffffffffffffffffff16815260200191505060405180910390f35b34801561039157600080fd5b5061039a610d2e565b60405180831515151581526020018281526020019250505060405180910390f35b3480156103c757600080fd5b506103e660048036038101908080359060200190929190505050610dd9565b005b3480156103f457600080fd5b506103fd610de3565b6040518082815260200191505060405180910390f35b34801561041f57600080fd5b5061043e60048036038101908080359060200190929190505050610ded565b60405180831515151581526020018281526020019250505060405180910390f35b34801561046b57600080fd5b5061052060048036038101908080359060200190929190803590602001908201803590602001908080601f0160208091040260200160405190810160405280939291908181526020018383808284378201915050505050509192919290803590602001908201803590602001908080601f016020809104026020016040519081016040528093929190818152602001838380828437820191505050505050919291929080359060200190929190505050610ec1565b005b34801561052e57600080fd5b5061054d60048036038101908080359060200190929190505050610fc0565b604051808681526020018060200180602001858152602001848152602001838103835287818151815260200191508051906020019080838360005b838110156105a3578082015181840152602081019050610588565b50505050905090810190601f1680156105d05780820380516001836020036101000a031916815260200191505b50838103825286818151815260200191508051906020019080838360005b838110156106095780820151818401526020810190506105ee565b50505050905090810190601f1680156106365780820380516001836020036101000a031916815260200191505b5097505050505050505060405180910390f35b34801561065557600080fd5b5061068a600480360381019080803573ffffffffffffffffffffffffffffffffffffffff169060200190929190505050611126565b604051808215151515815260200191505060405180910390f35b3480156106b057600080fd5b506106cf60048036038101908080359060200190929190505050611185565b60405180831515151581526020018281526020019250505060405180910390f35b3480156106fc57600080fd5b5061072560048036038101908080359060200190929190803590602001909291905050506111d9565b6040518082815260200191505060405180910390f35b61076f600480360381019080803573ffffffffffffffffffffffffffffffffffffffff169060200190929190505050611209565b005b34801561077d57600080fd5b506107a6600480360381019080803590602001909291908035906020019092919050505061125b565b60405180831515151581526020018281526020019250505060405180910390f35b3480156107d357600080fd5b50610808600480360381019080803573ffffffffffffffffffffffffffffffffffffffff1690602001909291905050506112d9565b604051808215151515815260200191505060405180910390f35b34801561082e57600080fd5b50610863600480360381019080803573ffffffffffffffffffffffffffffffffffffffff1690602001909291905050506112f9565b604051808215151515815260200191505060405180910390f35b34801561088957600080fd5b506108a860048036038101908080359060200190929190505050611358565b604051808681526020018060200180602001806020018573ffffffffffffffffffffffffffffffffffffffff1673ffffffffffffffffffffffffffffffffffffffff168152602001848103845288818151815260200191508051906020019080838360005b8381101561092857808201518184015260208101905061090d565b50505050905090810190601f1680156109555780820380516001836020036101000a031916815260200191505b50848103835287818151815260200191508051906020019080838360005b8381101561098e578082015181840152602081019050610973565b50505050905090810190601f1680156109bb5780820380516001836020036101000a031916815260200191505b50848103825286818151815260200191508051906020019080838360005b838110156109f45780820151818401526020810190506109d9565b50505050905090810190601f168015610a215780820380516001836020036101000a031916815260200191505b509850505050505050505060405180910390f35b348015610a4157600080fd5b50610a4a611576565b6040518082815260200191505060405180910390f35b348015610a6c57600080fd5b50610aa1600480360381019080803573ffffffffffffffffffffffffffffffffffffffff169060200190929190505050611595565b604051808215151515815260200191505060405180910390f35b600060011515600660008473ffffffffffffffffffffffffffffffffffffffff1673ffffffffffffffffffffffffffffffffffffffff16815260200190815260200160002060009054906101000a900460ff1615151415610b1f5760019050610b24565b600090505b919050565b600860205281600052604060002081815481101515610b4457fe5b90600052602060002001600091509150505481565b6000610b63611603565b600354915060a0604051908101604052808381526020018681526020018581526020018481526020013373ffffffffffffffffffffffffffffffffffffffff1681525090508060076000848152602001908152602001600020600082015181600001556020820151816001019080519060200190610be2929190611649565b506040820151816002019080519060200190610bff929190611649565b506060820151816003019080519060200190610c1c929190611649565b5060808201518160040160006101000a81548173ffffffffffffffffffffffffffffffffffffffff021916908373ffffffffffffffffffffffffffffffffffffffff160217905550905050600860003373ffffffffffffffffffffffffffffffffffffffff1673ffffffffffffffffffffffffffffffffffffffff1681526020019081526020016000208290806001815401808255809150509060018203906000526020600020016000909192909190915055506003600081548092919060010191905055505050505050565b60056020528060005260406000206000915054906101000a900460ff1681565b6000809054906101000a900473ffffffffffffffffffffffffffffffffffffffff1681565b6000806000600860003373ffffffffffffffffffffffffffffffffffffffff1673ffffffffffffffffffffffffffffffffffffffff168152602001908152602001600020805490501115610dca576001600860003373ffffffffffffffffffffffffffffffffffffffff1673ffffffffffffffffffffffffffffffffffffffff1681526020019081526020016000208054905091509150610dd5565b600080809050915091505b9091565b8060028190555050565b6000600254905090565b6000806000600860003373ffffffffffffffffffffffffffffffffffffffff1673ffffffffffffffffffffffffffffffffffffffff16815260200190815260200160002084815481101515610e3e57fe5b90600052602060002001541115610eb1576001600860003373ffffffffffffffffffffffffffffffffffffffff1673ffffffffffffffffffffffffffffffffffffffff16815260200190815260200160002084815481101515610e9d57fe5b906000526020600020015491509150610ebc565b600080809050915091505b915091565b6000610ecb6116c9565b600154915060a06040519081016040528083815260200186815260200185815260200184815260200187815250905080600b6000848152602001908152602001600020600082015181600001556020820151816001019080519060200190610f34929190611649565b506040820151816002019080519060200190610f51929190611649565b50606082015181600301556080820151816004015590505060096000878152602001908152602001600020829080600181540180825580915050906001820390600052602060002001600090919290919091505550600160008154809291906001019190505550505050505050565b600b602052806000526040600020600091509050806000015490806001018054600181600116156101000203166002900480601f0160208091040260200160405190810160405280929190818152602001828054600181600116156101000203166002900480156110725780601f1061104757610100808354040283529160200191611072565b820191906000526020600020905b81548152906001019060200180831161105557829003601f168201915b505050505090806002018054600181600116156101000203166002900480601f0160208091040260200160405190810160405280929190818152602001828054600181600116156101000203166002900480156111105780601f106110e557610100808354040283529160200191611110565b820191906000526020600020905b8154815290600101906020018083116110f357829003601f168201915b5050505050908060030154908060040154905085565b60006001600660008473ffffffffffffffffffffffffffffffffffffffff1673ffffffffffffffffffffffffffffffffffffffff16815260200190815260200160002060006101000a81548160ff021916908315150217905550919050565b6000806000600960008581526020019081526020016000208054905011156111c95760016009600085815260200190815260200160002080549050915091506111d4565b600080809050915091505b915091565b6009602052816000526040600020818154811015156111f457fe5b90600052602060002001600091509150505481565b8073ffffffffffffffffffffffffffffffffffffffff166108fc670de0b6b3a76400009081150290604051600060405180830381858888f19350505050158015611257573d6000803e3d6000fd5b5050565b6000806000600960008681526020019081526020016000208481548110151561128057fe5b906000526020600020015411156112c757600160096000868152602001908152602001600020848154811015156112b357fe5b9060005260206000200154915091506112d2565b600080809050915091505b9250929050565b60066020528060005260406000206000915054906101000a900460ff1681565b60006001600560008473ffffffffffffffffffffffffffffffffffffffff1673ffffffffffffffffffffffffffffffffffffffff16815260200190815260200160002060006101000a81548160ff021916908315150217905550919050565b6007602052806000526040600020600091509050806000015490806001018054600181600116156101000203166002900480601f01602080910402602001604051908101604052809291908181526020018280546001816001161561010002031660029004801561140a5780601f106113df5761010080835404028352916020019161140a565b820191906000526020600020905b8154815290600101906020018083116113ed57829003601f168201915b505050505090806002018054600181600116156101000203166002900480601f0160208091040260200160405190810160405280929190818152602001828054600181600116156101000203166002900480156114a85780601f1061147d576101008083540402835291602001916114a8565b820191906000526020600020905b81548152906001019060200180831161148b57829003601f168201915b505050505090806003018054600181600116156101000203166002900480601f0160208091040260200160405190810160405280929190818152602001828054600181600116156101000203166002900480156115465780601f1061151b57610100808354040283529160200191611546565b820191906000526020600020905b81548152906001019060200180831161152957829003601f168201915b5050505050908060040160009054906101000a900473ffffffffffffffffffffffffffffffffffffffff16905085565b60003073ffffffffffffffffffffffffffffffffffffffff1631905090565b600060011515600560008473ffffffffffffffffffffffffffffffffffffffff1673ffffffffffffffffffffffffffffffffffffffff16815260200190815260200160002060009054906101000a900460ff16151514156115f957600190506115fe565b600090505b919050565b60a06040519081016040528060008152602001606081526020016060815260200160608152602001600073ffffffffffffffffffffffffffffffffffffffff1681525090565b828054600181600116156101000203166002900490600052602060002090601f016020900481019282601f1061168a57805160ff19168380011785556116b8565b828001600101855582156116b8579182015b828111156116b757825182559160200191906001019061169c565b5b5090506116c591906116f9565b5090565b60a06040519081016040528060008152602001606081526020016060815260200160008152602001600081525090565b61171b91905b808211156117175760008160009055506001016116ff565b5090565b905600a165627a7a723058200f13a8106ddc9d60fd8c6160cd84c6ee85eae70b23487391dd7a3c5ba4dc20cf0029",
  "source": "pragma solidity ^0.4.17;\n\ncontract KulaksMarketplace {\n  struct Product {\n    uint id;\n    string name;\n    string description;\n    uint price;\n    uint storeId;\n    \n  }\n  struct PurchaseTransaction {\n      address purchasedBy;\n      uint[] products;\n      uint subtotal;\n      uint shippingAndHandling;\n      uint totalCost;\n  }\n  struct Store {\n    uint id;\n    string name;\n    string storeType;\n    string description;\n    address owner;\n  }\n  \n  constructor () public payable {\n      storeCount = 1;\n      productCount = 1;\n      transactionCount = 1;\n      user = msg.sender;\n  }\n  address public user; // the address that instantiated the contract\n  uint productCount;\n  uint storedData;\n  uint storeCount;\n  uint transactionCount;\n  mapping(address => bool) public admins; // enter an address to confirm if it's an admin\n  mapping(address => bool) public shopOwners; // enter an address to confirm if it's an shopOwner\n  mapping(uint => Store) public stores; // enter storeId to get info about the store\n  mapping(address => uint[]) public storeIds; // enter an address to get an array of creates stores for the particular shopOwner\n  mapping(uint => uint[]) public productIds; // enter a storeId to get an array of created products for the particular store\n  address[] private storeOwners;\n  mapping(uint => Product) public products;\n  \n  modifier shopOwnerOnly() {\n    require(shopOwners[msg.sender] == true);\n    _;\n  }\n  \n  modifier adminOnly() {\n    require(shopOwners[msg.sender] == true);\n    _;\n  }\n  \n  \n  function createStore(string _name, string _storeType, string _description) public {\n     uint id = storeCount;\n     \n     Store memory newStore = Store({\n       id: id,\n       name: _name,\n       description: _description,\n       storeType: _storeType,\n       owner: msg.sender\n     });\n\n      // need to add a\n     stores[id] = newStore;\n     \n     // push the storeId to a storeIds mapping for reference\n     storeIds[msg.sender].push(id);\n     // increment counter by 1 since you are using it for id's for stores as well\n    storeCount++;\n  }\n  \n  \n  function createProduct(uint _storeId, string _name, string _description, uint _price) public {\n     uint id = productCount;\n     \n     Product memory newProduct = Product({\n       id: id,\n       storeId: _storeId,\n       name: _name,\n       description: _description,\n       price: _price\n     });\n     \n     products[id] = newProduct; // adding a product to storeProducts mapping\n     productIds[_storeId].push(id); // pushing the product id to be refernced in the store struct\n     productCount ++;\n    \n  }\n  \n  function doesOwnerHaveShops () public view returns(bool, uint) {\n      if(storeIds[msg.sender].length > 0) {\n          return(true,  storeIds[msg.sender].length);\n      } else {\n          return(false, 0);\n      }\n  }\n  \n  function doesStoreHaveProducts (uint storeId) public view returns(bool, uint) {\n      if(productIds[storeId].length > 0) {\n          return(true,  productIds[storeId].length);\n      } else {\n          return(false, 0);\n      }\n  }\n  \n  function getShopIdByOrder (uint order) public view returns(bool, uint) {\n      if(storeIds[msg.sender][order] > 0) {\n          return(true, storeIds[msg.sender][order]);\n     } else {\n        return(false, 0);\n     }\n  }\n  \n  function getProductIdByOrder (uint _storeId, uint _order) public view returns(bool, uint) {\n      if(productIds[_storeId][_order] > 0) {\n          return(true, productIds[_storeId][_order]);\n     } else {\n        return(false, 0);\n     }\n  }\n\n  function sendValueTest(address userAddress) public payable {\n      userAddress.transfer(1 ether);\n  }\n  \n  function testBalance () public view returns (uint) {\n      return this.balance;\n  }\n\n  function becomeAdmin(address adminAddress) public returns (bool) {\n      admins[adminAddress] = true;\n  }\n  \n  function becomeShopOwner(address ownerAddress) public returns (bool) {\n      shopOwners[ownerAddress] = true;\n  }\n  \n  \n  function checkIfUserAdmin (address checkAddress) public view returns (bool) {\n      if(admins[checkAddress] == true) {\n          return true;\n      } else {\n          return false;\n      }\n  }\n  \n  function checkIfUserShopOwner (address checkAddress) public view returns (bool) {\n      if(shopOwners[checkAddress] == true) {\n          return true;\n      } else {\n          return false;\n      }\n  }\n  \n  function set(uint x) public {\n    storedData = x;\n  }\n\n  function get() public view returns (uint) {\n    return storedData;\n  }\n}\n",
  "sourcePath": "/Users/akulak/repos/eth_kulaksMarketplace/contracts/KulaksMarketplace.sol",
  "compiler": {
    "name": "solc",
    "version": "0.4.24+commit.e67f0147.Emscripten.clang"
  },
  "schemaVersion": "2.0.0",
  "updatedAt": "2018-07-18T21:07:26.395Z"
}