{
  "contractName": "KulaksMarketplace",
  "abi": [
    {
      "constant": true,
      "inputs": [],
      "name": "creator",
      "outputs": [
        {
          "name": "",
          "type": "address"
        }
      ],
      "payable": false,
      "stateMutability": "view",
      "type": "function"
    },
    {
      "constant": true,
      "inputs": [
        {
          "name": "",
          "type": "address"
        },
        {
          "name": "",
          "type": "uint256"
        }
      ],
      "name": "shopIds",
      "outputs": [
        {
          "name": "",
          "type": "uint256"
        }
      ],
      "payable": false,
      "stateMutability": "view",
      "type": "function"
    },
    {
      "constant": true,
      "inputs": [
        {
          "name": "",
          "type": "address"
        }
      ],
      "name": "admins",
      "outputs": [
        {
          "name": "",
          "type": "bool"
        }
      ],
      "payable": false,
      "stateMutability": "view",
      "type": "function"
    },
    {
      "constant": true,
      "inputs": [
        {
          "name": "",
          "type": "uint256"
        }
      ],
      "name": "shops",
      "outputs": [
        {
          "name": "id",
          "type": "uint256"
        },
        {
          "name": "name",
          "type": "string"
        },
        {
          "name": "shopType",
          "type": "string"
        },
        {
          "name": "description",
          "type": "string"
        },
        {
          "name": "owner",
          "type": "address"
        }
      ],
      "payable": false,
      "stateMutability": "view",
      "type": "function"
    },
    {
      "constant": true,
      "inputs": [
        {
          "name": "",
          "type": "uint256"
        }
      ],
      "name": "products",
      "outputs": [
        {
          "name": "id",
          "type": "uint256"
        },
        {
          "name": "name",
          "type": "string"
        },
        {
          "name": "description",
          "type": "string"
        },
        {
          "name": "price",
          "type": "uint256"
        },
        {
          "name": "shopId",
          "type": "uint256"
        }
      ],
      "payable": false,
      "stateMutability": "view",
      "type": "function"
    },
    {
      "constant": true,
      "inputs": [
        {
          "name": "",
          "type": "uint256"
        },
        {
          "name": "",
          "type": "uint256"
        }
      ],
      "name": "productIds",
      "outputs": [
        {
          "name": "",
          "type": "uint256"
        }
      ],
      "payable": false,
      "stateMutability": "view",
      "type": "function"
    },
    {
      "constant": true,
      "inputs": [
        {
          "name": "",
          "type": "address"
        }
      ],
      "name": "users",
      "outputs": [
        {
          "name": "",
          "type": "string"
        }
      ],
      "payable": false,
      "stateMutability": "view",
      "type": "function"
    },
    {
      "constant": true,
      "inputs": [
        {
          "name": "",
          "type": "address"
        }
      ],
      "name": "shopOwners",
      "outputs": [
        {
          "name": "",
          "type": "bool"
        }
      ],
      "payable": false,
      "stateMutability": "view",
      "type": "function"
    },
    {
      "constant": true,
      "inputs": [
        {
          "name": "",
          "type": "uint256"
        }
      ],
      "name": "shopBalances",
      "outputs": [
        {
          "name": "",
          "type": "uint256"
        }
      ],
      "payable": false,
      "stateMutability": "view",
      "type": "function"
    },
    {
      "inputs": [],
      "payable": true,
      "stateMutability": "payable",
      "type": "constructor"
    },
    {
      "constant": false,
      "inputs": [
        {
          "name": "_name",
          "type": "string"
        },
        {
          "name": "_shopType",
          "type": "string"
        },
        {
          "name": "_description",
          "type": "string"
        }
      ],
      "name": "createShop",
      "outputs": [],
      "payable": false,
      "stateMutability": "nonpayable",
      "type": "function"
    },
    {
      "constant": false,
      "inputs": [
        {
          "name": "_shopId",
          "type": "uint256"
        },
        {
          "name": "_name",
          "type": "string"
        },
        {
          "name": "_description",
          "type": "string"
        },
        {
          "name": "_price",
          "type": "uint256"
        }
      ],
      "name": "createProduct",
      "outputs": [],
      "payable": false,
      "stateMutability": "nonpayable",
      "type": "function"
    },
    {
      "constant": false,
      "inputs": [
        {
          "name": "_productId",
          "type": "uint256"
        },
        {
          "name": "quantity",
          "type": "uint256"
        }
      ],
      "name": "purchaseProduct",
      "outputs": [],
      "payable": true,
      "stateMutability": "payable",
      "type": "function"
    },
    {
      "constant": false,
      "inputs": [
        {
          "name": "_shopId",
          "type": "uint256"
        }
      ],
      "name": "moveShopBalanceToOwner",
      "outputs": [],
      "payable": true,
      "stateMutability": "payable",
      "type": "function"
    },
    {
      "constant": true,
      "inputs": [],
      "name": "doesOwnerHaveShops",
      "outputs": [
        {
          "name": "",
          "type": "bool"
        },
        {
          "name": "",
          "type": "uint256"
        }
      ],
      "payable": false,
      "stateMutability": "view",
      "type": "function"
    },
    {
      "constant": true,
      "inputs": [
        {
          "name": "shopId",
          "type": "uint256"
        }
      ],
      "name": "doesShopHaveProducts",
      "outputs": [
        {
          "name": "",
          "type": "bool"
        },
        {
          "name": "",
          "type": "uint256"
        }
      ],
      "payable": false,
      "stateMutability": "view",
      "type": "function"
    },
    {
      "constant": true,
      "inputs": [],
      "name": "testBalance",
      "outputs": [
        {
          "name": "",
          "type": "uint256"
        }
      ],
      "payable": false,
      "stateMutability": "view",
      "type": "function"
    },
    {
      "constant": false,
      "inputs": [],
      "name": "becomeAdmin",
      "outputs": [
        {
          "name": "",
          "type": "bool"
        }
      ],
      "payable": false,
      "stateMutability": "nonpayable",
      "type": "function"
    },
    {
      "constant": false,
      "inputs": [],
      "name": "becomeShopOwner",
      "outputs": [
        {
          "name": "",
          "type": "bool"
        }
      ],
      "payable": false,
      "stateMutability": "nonpayable",
      "type": "function"
    },
    {
      "constant": false,
      "inputs": [
        {
          "name": "x",
          "type": "uint256"
        }
      ],
      "name": "set",
      "outputs": [],
      "payable": false,
      "stateMutability": "nonpayable",
      "type": "function"
    },
    {
      "constant": true,
      "inputs": [],
      "name": "get",
      "outputs": [
        {
          "name": "",
          "type": "uint256"
        }
      ],
      "payable": false,
      "stateMutability": "view",
      "type": "function"
    }
  ],
  "bytecode": "0x608060405260146005556001600381905550600180819055506001600481905550336000806101000a81548173ffffffffffffffffffffffffffffffffffffffff021916908373ffffffffffffffffffffffffffffffffffffffff16021790555061167c8061006f6000396000f300608060405260043610610112576000357c0100000000000000000000000000000000000000000000000000000000900463ffffffff16806302d05d3f14610117578063035f45431461016e5780631f0777a7146101cf57806325971dff146101ef578063429b62e51461021e57806356117b731461027957806360fe47b1146102af5780636c6b5acd146102dc5780636d4ce63c1461030b578063713aca741461033657806374e25e78146104ee5780637acc0b20146105b15780637ef77e28146106d857806392bec5ee14610724578063975bb52f14610819578063a044042614610864578063a87430ba1461088e578063c4a8a96d1461094a578063e659ebef146109a5578063edede601146109e6575b600080fd5b34801561012357600080fd5b5061012c610a11565b604051808273ffffffffffffffffffffffffffffffffffffffff1673ffffffffffffffffffffffffffffffffffffffff16815260200191505060405180910390f35b34801561017a57600080fd5b506101b9600480360381019080803573ffffffffffffffffffffffffffffffffffffffff16906020019092919080359060200190929190505050610a36565b6040518082815260200191505060405180910390f35b6101ed60048036038101908080359060200190929190505050610a66565b005b3480156101fb57600080fd5b50610204610b12565b604051808215151515815260200191505060405180910390f35b34801561022a57600080fd5b5061025f600480360381019080803573ffffffffffffffffffffffffffffffffffffffff169060200190929190505050610ba0565b604051808215151515815260200191505060405180910390f35b34801561028557600080fd5b5061028e610bc0565b60405180831515151581526020018281526020019250505060405180910390f35b3480156102bb57600080fd5b506102da60048036038101908080359060200190929190505050610c10565b005b3480156102e857600080fd5b506102f1610c1a565b604051808215151515815260200191505060405180910390f35b34801561031757600080fd5b50610320610ca8565b6040518082815260200191505060405180910390f35b34801561034257600080fd5b5061036160048036038101908080359060200190929190505050610cb2565b604051808681526020018060200180602001806020018573ffffffffffffffffffffffffffffffffffffffff1673ffffffffffffffffffffffffffffffffffffffff168152602001848103845288818151815260200191508051906020019080838360005b838110156103e15780820151818401526020810190506103c6565b50505050905090810190601f16801561040e5780820380516001836020036101000a031916815260200191505b50848103835287818151815260200191508051906020019080838360005b8381101561044757808201518184015260208101905061042c565b50505050905090810190601f1680156104745780820380516001836020036101000a031916815260200191505b50848103825286818151815260200191508051906020019080838360005b838110156104ad578082015181840152602081019050610492565b50505050905090810190601f1680156104da5780820380516001836020036101000a031916815260200191505b509850505050505050505060405180910390f35b3480156104fa57600080fd5b506105af60048036038101908080359060200190929190803590602001908201803590602001908080601f0160208091040260200160405190810160405280939291908181526020018383808284378201915050505050509192919290803590602001908201803590602001908080601f016020809104026020016040519081016040528093929190818152602001838380828437820191505050505050919291929080359060200190929190505050610ed0565b005b3480156105bd57600080fd5b506105dc60048036038101908080359060200190929190505050610fcf565b604051808681526020018060200180602001858152602001848152602001838103835287818151815260200191508051906020019080838360005b83811015610632578082015181840152602081019050610617565b50505050905090810190601f16801561065f5780820380516001836020036101000a031916815260200191505b50838103825286818151815260200191508051906020019080838360005b8381101561069857808201518184015260208101905061067d565b50505050905090810190601f1680156106c55780820380516001836020036101000a031916815260200191505b5097505050505050505060405180910390f35b3480156106e457600080fd5b5061070360048036038101908080359060200190929190505050611135565b60405180831515151581526020018281526020019250505060405180910390f35b34801561073057600080fd5b50610817600480360381019080803590602001908201803590602001908080601f0160208091040260200160405190810160405280939291908181526020018383808284378201915050505050509192919290803590602001908201803590602001908080601f0160208091040260200160405190810160405280939291908181526020018383808284378201915050505050509192919290803590602001908201803590602001908080601f0160208091040260200160405190810160405280939291908181526020018383808284378201915050505050509192919290505050611189565b005b34801561082557600080fd5b5061084e6004803603810190808035906020019092919080359060200190929190505050611319565b6040518082815260200191505060405180910390f35b61088c6004803603810190808035906020019092919080359060200190929190505050611349565b005b34801561089a57600080fd5b506108cf600480360381019080803573ffffffffffffffffffffffffffffffffffffffff1690602001909291905050506113ae565b6040518080602001828103825283818151815260200191508051906020019080838360005b8381101561090f5780820151818401526020810190506108f4565b50505050905090810190601f16801561093c5780820380516001836020036101000a031916815260200191505b509250505060405180910390f35b34801561095657600080fd5b5061098b600480360381019080803573ffffffffffffffffffffffffffffffffffffffff16906020019092919050505061145e565b604051808215151515815260200191505060405180910390f35b3480156109b157600080fd5b506109d06004803603810190808035906020019092919050505061147e565b6040518082815260200191505060405180910390f35b3480156109f257600080fd5b506109fb611496565b6040518082815260200191505060405180910390f35b6000809054906101000a900473ffffffffffffffffffffffffffffffffffffffff1681565b600a60205281600052604060002081815481101515610a5157fe5b90600052602060002001600091509150505481565b6009600082815260200190815260200160002060040160009054906101000a900473ffffffffffffffffffffffffffffffffffffffff1673ffffffffffffffffffffffffffffffffffffffff166108fc60066000848152602001908152602001600020549081150290604051600060405180830381858888f19350505050158015610af5573d6000803e3d6000fd5b506000600660008381526020019081526020016000208190555050565b60006040805190810160405280600581526020017f61646d696e000000000000000000000000000000000000000000000000000000815250600d60003373ffffffffffffffffffffffffffffffffffffffff1673ffffffffffffffffffffffffffffffffffffffff1681526020019081526020016000209080519060200190610b9c9291906114b5565b5090565b60076020528060005260406000206000915054906101000a900460ff1681565b6000806001600a60003373ffffffffffffffffffffffffffffffffffffffff1673ffffffffffffffffffffffffffffffffffffffff16815260200190815260200160002080549050915091509091565b8060028190555050565b60006040805190810160405280600581526020017f6f776e6572000000000000000000000000000000000000000000000000000000815250600d60003373ffffffffffffffffffffffffffffffffffffffff1673ffffffffffffffffffffffffffffffffffffffff1681526020019081526020016000209080519060200190610ca49291906114b5565b5090565b6000600254905090565b6009602052806000526040600020600091509050806000015490806001018054600181600116156101000203166002900480601f016020809104026020016040519081016040528092919081815260200182805460018160011615610100020316600290048015610d645780601f10610d3957610100808354040283529160200191610d64565b820191906000526020600020905b815481529060010190602001808311610d4757829003601f168201915b505050505090806002018054600181600116156101000203166002900480601f016020809104026020016040519081016040528092919081815260200182805460018160011615610100020316600290048015610e025780601f10610dd757610100808354040283529160200191610e02565b820191906000526020600020905b815481529060010190602001808311610de557829003601f168201915b505050505090806003018054600181600116156101000203166002900480601f016020809104026020016040519081016040528092919081815260200182805460018160011615610100020316600290048015610ea05780601f10610e7557610100808354040283529160200191610ea0565b820191906000526020600020905b815481529060010190602001808311610e8357829003601f168201915b5050505050908060040160009054906101000a900473ffffffffffffffffffffffffffffffffffffffff16905085565b6000610eda611535565b600154915060a06040519081016040528083815260200186815260200185815260200184815260200187815250905080600c6000848152602001908152602001600020600082015181600001556020820151816001019080519060200190610f43929190611565565b506040820151816002019080519060200190610f60929190611565565b506060820151816003015560808201518160040155905050600b6000878152602001908152602001600020829080600181540180825580915050906001820390600052602060002001600090919290919091505550600160008154809291906001019190505550505050505050565b600c602052806000526040600020600091509050806000015490806001018054600181600116156101000203166002900480601f0160208091040260200160405190810160405280929190818152602001828054600181600116156101000203166002900480156110815780601f1061105657610100808354040283529160200191611081565b820191906000526020600020905b81548152906001019060200180831161106457829003601f168201915b505050505090806002018054600181600116156101000203166002900480601f01602080910402602001604051908101604052809291908181526020018280546001816001161561010002031660029004801561111f5780601f106110f45761010080835404028352916020019161111f565b820191906000526020600020905b81548152906001019060200180831161110257829003601f168201915b5050505050908060030154908060040154905085565b6000806000600b6000858152602001908152602001600020805490501115611179576001600b60008581526020019081526020016000208054905091509150611184565b600080809050915091505b915091565b60006111936115e5565b600354915060a0604051908101604052808381526020018681526020018581526020018481526020013373ffffffffffffffffffffffffffffffffffffffff1681525090508060096000848152602001908152602001600020600082015181600001556020820151816001019080519060200190611212929190611565565b50604082015181600201908051906020019061122f929190611565565b50606082015181600301908051906020019061124c929190611565565b5060808201518160040160006101000a81548173ffffffffffffffffffffffffffffffffffffffff021916908373ffffffffffffffffffffffffffffffffffffffff160217905550905050600a60003373ffffffffffffffffffffffffffffffffffffffff1673ffffffffffffffffffffffffffffffffffffffff1681526020019081526020016000208290806001815401808255809150509060018203906000526020600020016000909192909190915055506003600081548092919060010191905055505050505050565b600b6020528160005260406000208181548110151561133457fe5b90600052602060002001600091509150505481565b60055481600c60008581526020019081526020016000206003015402013414151561137357600080fd5b3460066000600c6000868152602001908152602001600020600401548152602001908152602001600020600082825401925050819055505050565b600d6020528060005260406000206000915090508054600181600116156101000203166002900480601f0160208091040260200160405190810160405280929190818152602001828054600181600116156101000203166002900480156114565780601f1061142b57610100808354040283529160200191611456565b820191906000526020600020905b81548152906001019060200180831161143957829003601f168201915b505050505081565b60086020528060005260406000206000915054906101000a900460ff1681565b60066020528060005260406000206000915090505481565b60003073ffffffffffffffffffffffffffffffffffffffff1631905090565b828054600181600116156101000203166002900490600052602060002090601f016020900481019282601f106114f657805160ff1916838001178555611524565b82800160010185558215611524579182015b82811115611523578251825591602001919060010190611508565b5b509050611531919061162b565b5090565b60a06040519081016040528060008152602001606081526020016060815260200160008152602001600081525090565b828054600181600116156101000203166002900490600052602060002090601f016020900481019282601f106115a657805160ff19168380011785556115d4565b828001600101855582156115d4579182015b828111156115d35782518255916020019190600101906115b8565b5b5090506115e1919061162b565b5090565b60a06040519081016040528060008152602001606081526020016060815260200160608152602001600073ffffffffffffffffffffffffffffffffffffffff1681525090565b61164d91905b80821115611649576000816000905550600101611631565b5090565b905600a165627a7a723058203e54833d6756a656cce4e82dc716d16c54ea8c069b08b686e801175c76fd38c90029",
  "source": "pragma solidity ^0.4.17;\n\ncontract KulaksMarketplace {\n  struct Product {\n    uint id;\n    string name;\n    string description;\n    uint price;\n    uint shopId;\n    \n  }\n  struct Shop {\n    uint id;\n    string name;\n    string shopType;\n    string description;\n    address owner;\n  }\n  \n  constructor () public payable {\n      shopCount = 1;\n      productCount = 1;\n      transactionCount = 1;\n      creator = msg.sender;\n  }\n  address public creator; // the address that instantiated the contract\n  uint productCount;\n  uint storedData;\n  uint shopCount;\n  uint transactionCount;\n  uint shippingAndHandling = 20;\n  mapping(uint => uint) public shopBalances;\n  mapping(address => bool) public admins; // enter an address to confirm if it's an admin\n  mapping(address => bool) public shopOwners; // enter an address to confirm if it's an shopOwner\n  mapping(uint => Shop) public shops; // enter shopId to get info about the store\n  mapping(address => uint[]) public shopIds; // enter an address to get an array of creates shops for the particular shopOwner\n  mapping(uint => uint[]) public productIds; // enter a productId to get an array of created products for the particular shop\n  mapping(uint => Product) public products;\n  mapping(address => string) public users;\n  \n  modifier shopOwnerOnly() {\n    require(keccak256(abi.encodePacked(users[msg.sender])) == keccak256(abi.encodePacked(\"owner\")));\n    _;\n  }\n  \n  modifier adminOnly() {\n    require(keccak256(abi.encodePacked(users[msg.sender])) == keccak256(abi.encodePacked(\"admin\")));\n    _;\n  }\n  \n  function createShop(string _name, string _shopType, string _description) public {\n     uint id = shopCount;\n     \n     Shop memory newShop = Shop({\n       id: id,\n       name: _name,\n       description: _description,\n       shopType: _shopType,\n       owner: msg.sender\n     });\n\n      // need to add a\n     shops[id] = newShop;\n     \n     // push the shopId to a shopIds mapping for reference\n     shopIds[msg.sender].push(id);\n     // increment counter by 1 since you are using it for id's for shops as well\n    shopCount++;\n  }\n  \n  \n  function createProduct(uint _shopId, string _name, string _description, uint _price) public {\n     uint id = productCount;\n     \n     Product memory newProduct = Product({\n       id: id,\n       shopId: _shopId,\n       name: _name,\n       description: _description,\n       price: _price\n     });\n     \n     products[id] = newProduct; // adding a product to shopProducts mapping\n     productIds[_shopId].push(id); // pushing the product id to be refernced in the store struct\n     productCount ++;\n    \n  }\n  \n  function purchaseProduct(uint _productId, uint quantity) public payable  {\n      // require for value of transaction to be of the right amount\n     require(msg.value == products[_productId].price * quantity + shippingAndHandling);\n      // keeping track of balance of a shop. shop owner can then send that value to their account\n     shopBalances[products[_productId].shopId] += msg.value;\n     // return products[_productId].price * quantity + shippingAndHandling;\n  }\n  \n  function moveShopBalanceToOwner (uint _shopId) public payable {\n      shops[_shopId].owner.transfer(shopBalances[_shopId]);\n      shopBalances[_shopId] = 0; // after the money has been transfered over, make balance 0 again\n  }\n\n  function doesOwnerHaveShops () public view returns(bool, uint) {\n      // if(shopIds[user].length > 0) {\n          return(true,  shopIds[msg.sender].length);\n      // } else {\n      //     return(false, 0);\n      // }\n  }\n  \n  function doesShopHaveProducts (uint shopId) public view returns(bool, uint) {\n      if(productIds[shopId].length > 0) {\n          return(true,  productIds[shopId].length);\n      } else {\n          return(false, 0);\n      }\n  }\n  \n  function testBalance () public view returns (uint) {\n      return this.balance;\n  }\n\n  function becomeAdmin() public returns (bool) {\n      users[msg.sender] = \"admin\";\n  }\n  \n  function becomeShopOwner() public returns (bool) {\n      users[msg.sender] = \"owner\";\n  }\n  \n  function set(uint x) public {\n    storedData = x;\n  }\n\n  function get() public view returns (uint) {\n    return storedData;\n  }\n}",
  "sourcePath": "/Users/akulak/repos/eth_kulaksMarketplace/contracts/KulaksMarketplace.sol",
  "compiler": {
    "name": "solc",
    "version": "0.4.24+commit.e67f0147.Emscripten.clang"
  },
  "schemaVersion": "2.0.0",
  "updatedAt": "2018-08-05T21:52:21.030Z"
}