{
  "contractName": "KulaksMarketplace",
  "abi": [
    {
      "constant": true,
      "inputs": [],
      "name": "creator",
      "outputs": [
        {
          "name": "",
          "type": "address"
        }
      ],
      "payable": false,
      "stateMutability": "view",
      "type": "function"
    },
    {
      "constant": true,
      "inputs": [
        {
          "name": "",
          "type": "address"
        },
        {
          "name": "",
          "type": "uint256"
        }
      ],
      "name": "shopIds",
      "outputs": [
        {
          "name": "",
          "type": "uint256"
        }
      ],
      "payable": false,
      "stateMutability": "view",
      "type": "function"
    },
    {
      "constant": true,
      "inputs": [
        {
          "name": "",
          "type": "address"
        }
      ],
      "name": "admins",
      "outputs": [
        {
          "name": "",
          "type": "bool"
        }
      ],
      "payable": false,
      "stateMutability": "view",
      "type": "function"
    },
    {
      "constant": true,
      "inputs": [
        {
          "name": "",
          "type": "uint256"
        }
      ],
      "name": "shops",
      "outputs": [
        {
          "name": "id",
          "type": "uint256"
        },
        {
          "name": "name",
          "type": "string"
        },
        {
          "name": "shopType",
          "type": "string"
        },
        {
          "name": "description",
          "type": "string"
        },
        {
          "name": "owner",
          "type": "address"
        }
      ],
      "payable": false,
      "stateMutability": "view",
      "type": "function"
    },
    {
      "constant": true,
      "inputs": [
        {
          "name": "",
          "type": "uint256"
        }
      ],
      "name": "products",
      "outputs": [
        {
          "name": "id",
          "type": "uint256"
        },
        {
          "name": "name",
          "type": "string"
        },
        {
          "name": "description",
          "type": "string"
        },
        {
          "name": "price",
          "type": "uint256"
        },
        {
          "name": "shopId",
          "type": "uint256"
        }
      ],
      "payable": false,
      "stateMutability": "view",
      "type": "function"
    },
    {
      "constant": true,
      "inputs": [
        {
          "name": "",
          "type": "uint256"
        },
        {
          "name": "",
          "type": "uint256"
        }
      ],
      "name": "productIds",
      "outputs": [
        {
          "name": "",
          "type": "uint256"
        }
      ],
      "payable": false,
      "stateMutability": "view",
      "type": "function"
    },
    {
      "constant": true,
      "inputs": [
        {
          "name": "",
          "type": "address"
        }
      ],
      "name": "users",
      "outputs": [
        {
          "name": "",
          "type": "string"
        }
      ],
      "payable": false,
      "stateMutability": "view",
      "type": "function"
    },
    {
      "constant": true,
      "inputs": [
        {
          "name": "",
          "type": "address"
        }
      ],
      "name": "shopOwners",
      "outputs": [
        {
          "name": "",
          "type": "bool"
        }
      ],
      "payable": false,
      "stateMutability": "view",
      "type": "function"
    },
    {
      "constant": true,
      "inputs": [
        {
          "name": "",
          "type": "uint256"
        }
      ],
      "name": "shopBalances",
      "outputs": [
        {
          "name": "",
          "type": "uint256"
        }
      ],
      "payable": false,
      "stateMutability": "view",
      "type": "function"
    },
    {
      "inputs": [],
      "payable": true,
      "stateMutability": "payable",
      "type": "constructor"
    },
    {
      "constant": false,
      "inputs": [
        {
          "name": "_name",
          "type": "string"
        },
        {
          "name": "_shopType",
          "type": "string"
        },
        {
          "name": "_description",
          "type": "string"
        }
      ],
      "name": "createShop",
      "outputs": [],
      "payable": false,
      "stateMutability": "nonpayable",
      "type": "function"
    },
    {
      "constant": false,
      "inputs": [
        {
          "name": "_shopId",
          "type": "uint256"
        },
        {
          "name": "_name",
          "type": "string"
        },
        {
          "name": "_description",
          "type": "string"
        },
        {
          "name": "_price",
          "type": "uint256"
        }
      ],
      "name": "createProduct",
      "outputs": [],
      "payable": false,
      "stateMutability": "nonpayable",
      "type": "function"
    },
    {
      "constant": false,
      "inputs": [
        {
          "name": "_productId",
          "type": "uint256"
        },
        {
          "name": "quantity",
          "type": "uint256"
        }
      ],
      "name": "purchaseProduct",
      "outputs": [],
      "payable": true,
      "stateMutability": "payable",
      "type": "function"
    },
    {
      "constant": false,
      "inputs": [
        {
          "name": "_shopId",
          "type": "uint256"
        }
      ],
      "name": "moveShopBalanceToOwner",
      "outputs": [],
      "payable": true,
      "stateMutability": "payable",
      "type": "function"
    },
    {
      "constant": true,
      "inputs": [],
      "name": "doesOwnerHaveShops",
      "outputs": [
        {
          "name": "",
          "type": "bool"
        },
        {
          "name": "",
          "type": "uint256"
        }
      ],
      "payable": false,
      "stateMutability": "view",
      "type": "function"
    },
    {
      "constant": true,
      "inputs": [
        {
          "name": "shopId",
          "type": "uint256"
        }
      ],
      "name": "doesShopHaveProducts",
      "outputs": [
        {
          "name": "",
          "type": "bool"
        },
        {
          "name": "",
          "type": "uint256"
        }
      ],
      "payable": false,
      "stateMutability": "view",
      "type": "function"
    },
    {
      "constant": true,
      "inputs": [
        {
          "name": "order",
          "type": "uint256"
        }
      ],
      "name": "getShopIdByOrder",
      "outputs": [
        {
          "name": "",
          "type": "bool"
        },
        {
          "name": "",
          "type": "uint256"
        }
      ],
      "payable": false,
      "stateMutability": "view",
      "type": "function"
    },
    {
      "constant": true,
      "inputs": [
        {
          "name": "_shopId",
          "type": "uint256"
        },
        {
          "name": "_order",
          "type": "uint256"
        }
      ],
      "name": "getProductIdByOrder",
      "outputs": [
        {
          "name": "",
          "type": "bool"
        },
        {
          "name": "",
          "type": "uint256"
        }
      ],
      "payable": false,
      "stateMutability": "view",
      "type": "function"
    },
    {
      "constant": false,
      "inputs": [
        {
          "name": "userAddress",
          "type": "address"
        }
      ],
      "name": "sendValueTest",
      "outputs": [],
      "payable": true,
      "stateMutability": "payable",
      "type": "function"
    },
    {
      "constant": true,
      "inputs": [],
      "name": "testBalance",
      "outputs": [
        {
          "name": "",
          "type": "uint256"
        }
      ],
      "payable": false,
      "stateMutability": "view",
      "type": "function"
    },
    {
      "constant": false,
      "inputs": [],
      "name": "becomeAdmin",
      "outputs": [
        {
          "name": "",
          "type": "bool"
        }
      ],
      "payable": false,
      "stateMutability": "nonpayable",
      "type": "function"
    },
    {
      "constant": false,
      "inputs": [],
      "name": "becomeShopOwner",
      "outputs": [
        {
          "name": "",
          "type": "bool"
        }
      ],
      "payable": false,
      "stateMutability": "nonpayable",
      "type": "function"
    },
    {
      "constant": false,
      "inputs": [
        {
          "name": "x",
          "type": "uint256"
        }
      ],
      "name": "set",
      "outputs": [],
      "payable": false,
      "stateMutability": "nonpayable",
      "type": "function"
    },
    {
      "constant": true,
      "inputs": [],
      "name": "get",
      "outputs": [
        {
          "name": "",
          "type": "uint256"
        }
      ],
      "payable": false,
      "stateMutability": "view",
      "type": "function"
    }
  ],
  "bytecode": "0x608060405260146005556001600381905550600180819055506001600481905550336000806101000a81548173ffffffffffffffffffffffffffffffffffffffff021916908373ffffffffffffffffffffffffffffffffffffffff160217905550611ae38061006f6000396000f300608060405260043610610133576000357c0100000000000000000000000000000000000000000000000000000000900463ffffffff16806302d05d3f14610138578063035f45431461018f5780631f0777a7146101f057806325971dff14610210578063429b62e51461023f57806356117b731461029a57806360fe47b1146102d05780636c6b5acd146102fd5780636d4ce63c1461032c5780636e31e56514610357578063713aca74146103a357806374e25e781461055b5780637acc0b201461061e5780637ef77e281461074557806392bec5ee14610791578063975bb52f14610886578063a0440426146108d1578063a36a2587146108fb578063a87430ba14610931578063bc497a38146109ed578063c4a8a96d14610a43578063e659ebef14610a9e578063edede60114610adf575b600080fd5b34801561014457600080fd5b5061014d610b0a565b604051808273ffffffffffffffffffffffffffffffffffffffff1673ffffffffffffffffffffffffffffffffffffffff16815260200191505060405180910390f35b34801561019b57600080fd5b506101da600480360381019080803573ffffffffffffffffffffffffffffffffffffffff16906020019092919080359060200190929190505050610b2f565b6040518082815260200191505060405180910390f35b61020e60048036038101908080359060200190929190505050610b5f565b005b34801561021c57600080fd5b50610225610c0b565b604051808215151515815260200191505060405180910390f35b34801561024b57600080fd5b50610280600480360381019080803573ffffffffffffffffffffffffffffffffffffffff169060200190929190505050610c99565b604051808215151515815260200191505060405180910390f35b3480156102a657600080fd5b506102af610cb9565b60405180831515151581526020018281526020019250505060405180910390f35b3480156102dc57600080fd5b506102fb60048036038101908080359060200190929190505050610d09565b005b34801561030957600080fd5b50610312610d13565b604051808215151515815260200191505060405180910390f35b34801561033857600080fd5b50610341610da1565b6040518082815260200191505060405180910390f35b34801561036357600080fd5b5061038260048036038101908080359060200190929190505050610dab565b60405180831515151581526020018281526020019250505060405180910390f35b3480156103af57600080fd5b506103ce60048036038101908080359060200190929190505050610e80565b604051808681526020018060200180602001806020018573ffffffffffffffffffffffffffffffffffffffff1673ffffffffffffffffffffffffffffffffffffffff168152602001848103845288818151815260200191508051906020019080838360005b8381101561044e578082015181840152602081019050610433565b50505050905090810190601f16801561047b5780820380516001836020036101000a031916815260200191505b50848103835287818151815260200191508051906020019080838360005b838110156104b4578082015181840152602081019050610499565b50505050905090810190601f1680156104e15780820380516001836020036101000a031916815260200191505b50848103825286818151815260200191508051906020019080838360005b8381101561051a5780820151818401526020810190506104ff565b50505050905090810190601f1680156105475780820380516001836020036101000a031916815260200191505b509850505050505050505060405180910390f35b34801561056757600080fd5b5061061c60048036038101908080359060200190929190803590602001908201803590602001908080601f0160208091040260200160405190810160405280939291908181526020018383808284378201915050505050509192919290803590602001908201803590602001908080601f01602080910402602001604051908101604052809392919081815260200183838082843782019150505050505091929192908035906020019092919050505061109e565b005b34801561062a57600080fd5b506106496004803603810190808035906020019092919050505061119d565b604051808681526020018060200180602001858152602001848152602001838103835287818151815260200191508051906020019080838360005b8381101561069f578082015181840152602081019050610684565b50505050905090810190601f1680156106cc5780820380516001836020036101000a031916815260200191505b50838103825286818151815260200191508051906020019080838360005b838110156107055780820151818401526020810190506106ea565b50505050905090810190601f1680156107325780820380516001836020036101000a031916815260200191505b5097505050505050505060405180910390f35b34801561075157600080fd5b5061077060048036038101908080359060200190929190505050611303565b60405180831515151581526020018281526020019250505060405180910390f35b34801561079d57600080fd5b50610884600480360381019080803590602001908201803590602001908080601f0160208091040260200160405190810160405280939291908181526020018383808284378201915050505050509192919290803590602001908201803590602001908080601f0160208091040260200160405190810160405280939291908181526020018383808284378201915050505050509192919290803590602001908201803590602001908080601f0160208091040260200160405190810160405280939291908181526020018383808284378201915050505050509192919290505050611357565b005b34801561089257600080fd5b506108bb60048036038101908080359060200190929190803590602001909291905050506116b0565b6040518082815260200191505060405180910390f35b6108f960048036038101908080359060200190929190803590602001909291905050506116e0565b005b61092f600480360381019080803573ffffffffffffffffffffffffffffffffffffffff169060200190929190505050611745565b005b34801561093d57600080fd5b50610972600480360381019080803573ffffffffffffffffffffffffffffffffffffffff169060200190929190505050611797565b6040518080602001828103825283818151815260200191508051906020019080838360005b838110156109b2578082015181840152602081019050610997565b50505050905090810190601f1680156109df5780820380516001836020036101000a031916815260200191505b509250505060405180910390f35b3480156109f957600080fd5b50610a226004803603810190808035906020019092919080359060200190929190505050611847565b60405180831515151581526020018281526020019250505060405180910390f35b348015610a4f57600080fd5b50610a84600480360381019080803573ffffffffffffffffffffffffffffffffffffffff1690602001909291905050506118c5565b604051808215151515815260200191505060405180910390f35b348015610aaa57600080fd5b50610ac9600480360381019080803590602001909291905050506118e5565b6040518082815260200191505060405180910390f35b348015610aeb57600080fd5b50610af46118fd565b6040518082815260200191505060405180910390f35b6000809054906101000a900473ffffffffffffffffffffffffffffffffffffffff1681565b600a60205281600052604060002081815481101515610b4a57fe5b90600052602060002001600091509150505481565b6009600082815260200190815260200160002060040160009054906101000a900473ffffffffffffffffffffffffffffffffffffffff1673ffffffffffffffffffffffffffffffffffffffff166108fc60066000848152602001908152602001600020549081150290604051600060405180830381858888f19350505050158015610bee573d6000803e3d6000fd5b506000600660008381526020019081526020016000208190555050565b60006040805190810160405280600581526020017f61646d696e000000000000000000000000000000000000000000000000000000815250600d60003373ffffffffffffffffffffffffffffffffffffffff1673ffffffffffffffffffffffffffffffffffffffff1681526020019081526020016000209080519060200190610c9592919061191c565b5090565b60076020528060005260406000206000915054906101000a900460ff1681565b6000806001600a60003373ffffffffffffffffffffffffffffffffffffffff1673ffffffffffffffffffffffffffffffffffffffff16815260200190815260200160002080549050915091509091565b8060028190555050565b60006040805190810160405280600581526020017f6f776e6572000000000000000000000000000000000000000000000000000000815250600d60003373ffffffffffffffffffffffffffffffffffffffff1673ffffffffffffffffffffffffffffffffffffffff1681526020019081526020016000209080519060200190610d9d92919061191c565b5090565b6000600254905090565b6000806000600a60003373ffffffffffffffffffffffffffffffffffffffff1673ffffffffffffffffffffffffffffffffffffffff16815260200190815260200160002084815481101515610dfc57fe5b9060005260206000200154101515610e70576001600a60003373ffffffffffffffffffffffffffffffffffffffff1673ffffffffffffffffffffffffffffffffffffffff16815260200190815260200160002084815481101515610e5c57fe5b906000526020600020015491509150610e7b565b600080809050915091505b915091565b6009602052806000526040600020600091509050806000015490806001018054600181600116156101000203166002900480601f016020809104026020016040519081016040528092919081815260200182805460018160011615610100020316600290048015610f325780601f10610f0757610100808354040283529160200191610f32565b820191906000526020600020905b815481529060010190602001808311610f1557829003601f168201915b505050505090806002018054600181600116156101000203166002900480601f016020809104026020016040519081016040528092919081815260200182805460018160011615610100020316600290048015610fd05780601f10610fa557610100808354040283529160200191610fd0565b820191906000526020600020905b815481529060010190602001808311610fb357829003601f168201915b505050505090806003018054600181600116156101000203166002900480601f01602080910402602001604051908101604052809291908181526020018280546001816001161561010002031660029004801561106e5780601f106110435761010080835404028352916020019161106e565b820191906000526020600020905b81548152906001019060200180831161105157829003601f168201915b5050505050908060040160009054906101000a900473ffffffffffffffffffffffffffffffffffffffff16905085565b60006110a861199c565b600154915060a06040519081016040528083815260200186815260200185815260200184815260200187815250905080600c60008481526020019081526020016000206000820151816000015560208201518160010190805190602001906111119291906119cc565b50604082015181600201908051906020019061112e9291906119cc565b506060820151816003015560808201518160040155905050600b6000878152602001908152602001600020829080600181540180825580915050906001820390600052602060002001600090919290919091505550600160008154809291906001019190505550505050505050565b600c602052806000526040600020600091509050806000015490806001018054600181600116156101000203166002900480601f01602080910402602001604051908101604052809291908181526020018280546001816001161561010002031660029004801561124f5780601f106112245761010080835404028352916020019161124f565b820191906000526020600020905b81548152906001019060200180831161123257829003601f168201915b505050505090806002018054600181600116156101000203166002900480601f0160208091040260200160405190810160405280929190818152602001828054600181600116156101000203166002900480156112ed5780601f106112c2576101008083540402835291602001916112ed565b820191906000526020600020905b8154815290600101906020018083116112d057829003601f168201915b5050505050908060030154908060040154905085565b6000806000600b6000858152602001908152602001600020805490501115611347576001600b60008581526020019081526020016000208054905091509150611352565b600080809050915091505b915091565b6000611361611a4c565b60405160200180807f6f776e657200000000000000000000000000000000000000000000000000000081525060050190506040516020818303038152906040526040518082805190602001908083835b6020831015156113d657805182526020820191506020810190506020830392506113b1565b6001836020036101000a038019825116818451168082178552505050505050905001915050604051809103902060001916600d60003373ffffffffffffffffffffffffffffffffffffffff1673ffffffffffffffffffffffffffffffffffffffff16815260200190815260200160002060405160200180828054600181600116156101000203166002900480156114a45780601f106114825761010080835404028352918201916114a4565b820191906000526020600020905b815481529060010190602001808311611490575b50509150506040516020818303038152906040526040518082805190602001908083835b6020831015156114ed57805182526020820191506020810190506020830392506114c8565b6001836020036101000a03801982511681845116808217855250505050505090500191505060405180910390206000191614151561152a57600080fd5b600354915060a0604051908101604052808381526020018681526020018581526020018481526020013373ffffffffffffffffffffffffffffffffffffffff16815250905080600960008481526020019081526020016000206000820151816000015560208201518160010190805190602001906115a99291906119cc565b5060408201518160020190805190602001906115c69291906119cc565b5060608201518160030190805190602001906115e39291906119cc565b5060808201518160040160006101000a81548173ffffffffffffffffffffffffffffffffffffffff021916908373ffffffffffffffffffffffffffffffffffffffff160217905550905050600a60003373ffffffffffffffffffffffffffffffffffffffff1673ffffffffffffffffffffffffffffffffffffffff1681526020019081526020016000208290806001815401808255809150509060018203906000526020600020016000909192909190915055506003600081548092919060010191905055505050505050565b600b602052816000526040600020818154811015156116cb57fe5b90600052602060002001600091509150505481565b60055481600c60008581526020019081526020016000206003015402013414151561170a57600080fd5b3460066000600c6000868152602001908152602001600020600401548152602001908152602001600020600082825401925050819055505050565b8073ffffffffffffffffffffffffffffffffffffffff166108fc670de0b6b3a76400009081150290604051600060405180830381858888f19350505050158015611793573d6000803e3d6000fd5b5050565b600d6020528060005260406000206000915090508054600181600116156101000203166002900480601f01602080910402602001604051908101604052809291908181526020018280546001816001161561010002031660029004801561183f5780601f106118145761010080835404028352916020019161183f565b820191906000526020600020905b81548152906001019060200180831161182257829003601f168201915b505050505081565b6000806000600b60008681526020019081526020016000208481548110151561186c57fe5b906000526020600020015411156118b3576001600b60008681526020019081526020016000208481548110151561189f57fe5b9060005260206000200154915091506118be565b600080809050915091505b9250929050565b60086020528060005260406000206000915054906101000a900460ff1681565b60066020528060005260406000206000915090505481565b60003073ffffffffffffffffffffffffffffffffffffffff1631905090565b828054600181600116156101000203166002900490600052602060002090601f016020900481019282601f1061195d57805160ff191683800117855561198b565b8280016001018555821561198b579182015b8281111561198a57825182559160200191906001019061196f565b5b5090506119989190611a92565b5090565b60a06040519081016040528060008152602001606081526020016060815260200160008152602001600081525090565b828054600181600116156101000203166002900490600052602060002090601f016020900481019282601f10611a0d57805160ff1916838001178555611a3b565b82800160010185558215611a3b579182015b82811115611a3a578251825591602001919060010190611a1f565b5b509050611a489190611a92565b5090565b60a06040519081016040528060008152602001606081526020016060815260200160608152602001600073ffffffffffffffffffffffffffffffffffffffff1681525090565b611ab491905b80821115611ab0576000816000905550600101611a98565b5090565b905600a165627a7a72305820a0ccc144c7e49bcd4d03ca1fbff0ae3c97baf2916da1f7d45e86d7b1cd4def980029",
  "source": "pragma solidity ^0.4.17;\n\ncontract KulaksMarketplace {\n  struct Product {\n    uint id;\n    string name;\n    string description;\n    uint price;\n    uint shopId;\n    \n  }\n  struct Shop {\n    uint id;\n    string name;\n    string shopType;\n    string description;\n    address owner;\n  }\n  \n  constructor () public payable {\n      shopCount = 1;\n      productCount = 1;\n      transactionCount = 1;\n      creator = msg.sender;\n  }\n  address public creator; // the address that instantiated the contract\n  uint productCount;\n  uint storedData;\n  uint shopCount;\n  uint transactionCount;\n  uint shippingAndHandling = 20;\n  mapping(uint => uint) public shopBalances;\n  mapping(address => bool) public admins; // enter an address to confirm if it's an admin\n  mapping(address => bool) public shopOwners; // enter an address to confirm if it's an shopOwner\n  mapping(uint => Shop) public shops; // enter shopId to get info about the store\n  mapping(address => uint[]) public shopIds; // enter an address to get an array of creates shops for the particular shopOwner\n  mapping(uint => uint[]) public productIds; // enter a productId to get an array of created products for the particular shop\n  mapping(uint => Product) public products;\n  mapping(address => string) public users;\n  \n  modifier shopOwnerOnly() {\n    require(keccak256(abi.encodePacked(users[msg.sender])) == keccak256(abi.encodePacked(\"owner\")));\n    _;\n  }\n  \n  modifier adminOnly() {\n    require(keccak256(abi.encodePacked(users[msg.sender])) == keccak256(abi.encodePacked(\"admin\")));\n    _;\n  }\n  \n  function createShop(string _name, string _shopType, string _description) shopOwnerOnly public {\n     uint id = shopCount;\n     \n     Shop memory newShop = Shop({\n       id: id,\n       name: _name,\n       description: _description,\n       shopType: _shopType,\n       owner: msg.sender\n     });\n\n      // need to add a\n     shops[id] = newShop;\n     \n     // push the shopId to a shopIds mapping for reference\n     shopIds[msg.sender].push(id);\n     // increment counter by 1 since you are using it for id's for shops as well\n    shopCount++;\n  }\n  \n  \n  function createProduct(uint _shopId, string _name, string _description, uint _price) public {\n     uint id = productCount;\n     \n     Product memory newProduct = Product({\n       id: id,\n       shopId: _shopId,\n       name: _name,\n       description: _description,\n       price: _price\n     });\n     \n     products[id] = newProduct; // adding a product to shopProducts mapping\n     productIds[_shopId].push(id); // pushing the product id to be refernced in the store struct\n     productCount ++;\n    \n  }\n  \n  function purchaseProduct(uint _productId, uint quantity) public payable  {\n      // require for value of transaction to be of the right amount\n     require(msg.value == products[_productId].price * quantity + shippingAndHandling);\n      // keeping track of balance of a shop. shop owner can then send that value to their account\n     shopBalances[products[_productId].shopId] += msg.value;\n     // return products[_productId].price * quantity + shippingAndHandling;\n  }\n  \n  function moveShopBalanceToOwner (uint _shopId) public payable {\n      shops[_shopId].owner.transfer(shopBalances[_shopId]);\n      shopBalances[_shopId] = 0; // after the money has been transfered over, make balance 0 again\n  }\n\n  function doesOwnerHaveShops () public view returns(bool, uint) {\n      // if(shopIds[user].length > 0) {\n          return(true,  shopIds[msg.sender].length);\n      // } else {\n      //     return(false, 0);\n      // }\n  }\n  \n  function doesShopHaveProducts (uint shopId) public view returns(bool, uint) {\n      if(productIds[shopId].length > 0) {\n          return(true,  productIds[shopId].length);\n      } else {\n          return(false, 0);\n      }\n  }\n  \n  function getShopIdByOrder (uint order) public view returns(bool, uint) {\n      if(shopIds[msg.sender][order] >= 0) {\n          return(true, shopIds[msg.sender][order]);\n     } else {\n        return(false, 0);\n     }\n  }\n  \n  function getProductIdByOrder (uint _shopId, uint _order) public view returns(bool, uint) {\n      if(productIds[_shopId][_order] > 0) {\n          return(true, productIds[_shopId][_order]);\n     } else {\n        return(false, 0);\n     }\n  }\n\n  function sendValueTest(address userAddress) public payable {\n      userAddress.transfer(1 ether);\n  }\n  \n  function testBalance () public view returns (uint) {\n      return this.balance;\n  }\n\n  function becomeAdmin() public returns (bool) {\n      users[msg.sender] = \"admin\";\n  }\n  \n  function becomeShopOwner() public returns (bool) {\n      users[msg.sender] = \"owner\";\n  }\n  \n  function set(uint x) public {\n    storedData = x;\n  }\n\n  function get() public view returns (uint) {\n    return storedData;\n  }\n}",
  "sourcePath": "/Users/akulak/repos/eth_kulaksMarketplace/contracts/KulaksMarketplace.sol",
  "compiler": {
    "name": "solc",
    "version": "0.4.24+commit.e67f0147.Emscripten.clang"
  },
  "schemaVersion": "2.0.0",
  "updatedAt": "2018-08-03T19:46:28.713Z"
}