{
  "contractName": "KulaksMarketplace",
  "abi": [
    {
      "constant": true,
      "inputs": [
        {
          "name": "",
          "type": "address"
        },
        {
          "name": "",
          "type": "uint256"
        }
      ],
      "name": "shopIds",
      "outputs": [
        {
          "name": "",
          "type": "uint256"
        }
      ],
      "payable": false,
      "stateMutability": "view",
      "type": "function"
    },
    {
      "constant": true,
      "inputs": [
        {
          "name": "",
          "type": "address"
        }
      ],
      "name": "admins",
      "outputs": [
        {
          "name": "",
          "type": "bool"
        }
      ],
      "payable": false,
      "stateMutability": "view",
      "type": "function"
    },
    {
      "constant": true,
      "inputs": [],
      "name": "user",
      "outputs": [
        {
          "name": "",
          "type": "address"
        }
      ],
      "payable": false,
      "stateMutability": "view",
      "type": "function"
    },
    {
      "constant": true,
      "inputs": [
        {
          "name": "",
          "type": "uint256"
        }
      ],
      "name": "shops",
      "outputs": [
        {
          "name": "id",
          "type": "uint256"
        },
        {
          "name": "name",
          "type": "string"
        },
        {
          "name": "shopType",
          "type": "string"
        },
        {
          "name": "description",
          "type": "string"
        },
        {
          "name": "owner",
          "type": "address"
        }
      ],
      "payable": false,
      "stateMutability": "view",
      "type": "function"
    },
    {
      "constant": true,
      "inputs": [
        {
          "name": "",
          "type": "uint256"
        }
      ],
      "name": "products",
      "outputs": [
        {
          "name": "id",
          "type": "uint256"
        },
        {
          "name": "name",
          "type": "string"
        },
        {
          "name": "description",
          "type": "string"
        },
        {
          "name": "price",
          "type": "uint256"
        },
        {
          "name": "shopId",
          "type": "uint256"
        }
      ],
      "payable": false,
      "stateMutability": "view",
      "type": "function"
    },
    {
      "constant": true,
      "inputs": [
        {
          "name": "",
          "type": "uint256"
        },
        {
          "name": "",
          "type": "uint256"
        }
      ],
      "name": "productIds",
      "outputs": [
        {
          "name": "",
          "type": "uint256"
        }
      ],
      "payable": false,
      "stateMutability": "view",
      "type": "function"
    },
    {
      "constant": true,
      "inputs": [
        {
          "name": "",
          "type": "address"
        }
      ],
      "name": "shopOwners",
      "outputs": [
        {
          "name": "",
          "type": "bool"
        }
      ],
      "payable": false,
      "stateMutability": "view",
      "type": "function"
    },
    {
      "constant": true,
      "inputs": [
        {
          "name": "",
          "type": "uint256"
        }
      ],
      "name": "shopBalances",
      "outputs": [
        {
          "name": "",
          "type": "uint256"
        }
      ],
      "payable": false,
      "stateMutability": "view",
      "type": "function"
    },
    {
      "inputs": [],
      "payable": true,
      "stateMutability": "payable",
      "type": "constructor"
    },
    {
      "constant": false,
      "inputs": [
        {
          "name": "_name",
          "type": "string"
        },
        {
          "name": "_shopType",
          "type": "string"
        },
        {
          "name": "_description",
          "type": "string"
        }
      ],
      "name": "createShop",
      "outputs": [],
      "payable": false,
      "stateMutability": "nonpayable",
      "type": "function"
    },
    {
      "constant": false,
      "inputs": [
        {
          "name": "_shopId",
          "type": "uint256"
        },
        {
          "name": "_name",
          "type": "string"
        },
        {
          "name": "_description",
          "type": "string"
        },
        {
          "name": "_price",
          "type": "uint256"
        }
      ],
      "name": "createProduct",
      "outputs": [],
      "payable": false,
      "stateMutability": "nonpayable",
      "type": "function"
    },
    {
      "constant": false,
      "inputs": [
        {
          "name": "_productId",
          "type": "uint256"
        },
        {
          "name": "quantity",
          "type": "uint256"
        }
      ],
      "name": "purchaseProduct",
      "outputs": [],
      "payable": true,
      "stateMutability": "payable",
      "type": "function"
    },
    {
      "constant": false,
      "inputs": [
        {
          "name": "_shopId",
          "type": "uint256"
        }
      ],
      "name": "moveShopBalanceToOwner",
      "outputs": [],
      "payable": true,
      "stateMutability": "payable",
      "type": "function"
    },
    {
      "constant": true,
      "inputs": [],
      "name": "doesOwnerHaveShops",
      "outputs": [
        {
          "name": "",
          "type": "bool"
        },
        {
          "name": "",
          "type": "uint256"
        }
      ],
      "payable": false,
      "stateMutability": "view",
      "type": "function"
    },
    {
      "constant": true,
      "inputs": [
        {
          "name": "shopId",
          "type": "uint256"
        }
      ],
      "name": "doesShopHaveProducts",
      "outputs": [
        {
          "name": "",
          "type": "bool"
        },
        {
          "name": "",
          "type": "uint256"
        }
      ],
      "payable": false,
      "stateMutability": "view",
      "type": "function"
    },
    {
      "constant": true,
      "inputs": [
        {
          "name": "order",
          "type": "uint256"
        }
      ],
      "name": "getShopIdByOrder",
      "outputs": [
        {
          "name": "",
          "type": "bool"
        },
        {
          "name": "",
          "type": "uint256"
        }
      ],
      "payable": false,
      "stateMutability": "view",
      "type": "function"
    },
    {
      "constant": true,
      "inputs": [
        {
          "name": "_shopId",
          "type": "uint256"
        },
        {
          "name": "_order",
          "type": "uint256"
        }
      ],
      "name": "getProductIdByOrder",
      "outputs": [
        {
          "name": "",
          "type": "bool"
        },
        {
          "name": "",
          "type": "uint256"
        }
      ],
      "payable": false,
      "stateMutability": "view",
      "type": "function"
    },
    {
      "constant": false,
      "inputs": [
        {
          "name": "userAddress",
          "type": "address"
        }
      ],
      "name": "sendValueTest",
      "outputs": [],
      "payable": true,
      "stateMutability": "payable",
      "type": "function"
    },
    {
      "constant": true,
      "inputs": [],
      "name": "testBalance",
      "outputs": [
        {
          "name": "",
          "type": "uint256"
        }
      ],
      "payable": false,
      "stateMutability": "view",
      "type": "function"
    },
    {
      "constant": false,
      "inputs": [
        {
          "name": "adminAddress",
          "type": "address"
        }
      ],
      "name": "becomeAdmin",
      "outputs": [
        {
          "name": "",
          "type": "bool"
        }
      ],
      "payable": false,
      "stateMutability": "nonpayable",
      "type": "function"
    },
    {
      "constant": false,
      "inputs": [
        {
          "name": "ownerAddress",
          "type": "address"
        }
      ],
      "name": "becomeShopOwner",
      "outputs": [
        {
          "name": "",
          "type": "bool"
        }
      ],
      "payable": false,
      "stateMutability": "nonpayable",
      "type": "function"
    },
    {
      "constant": true,
      "inputs": [
        {
          "name": "checkAddress",
          "type": "address"
        }
      ],
      "name": "checkIfUserAdmin",
      "outputs": [
        {
          "name": "",
          "type": "bool"
        }
      ],
      "payable": false,
      "stateMutability": "view",
      "type": "function"
    },
    {
      "constant": true,
      "inputs": [
        {
          "name": "checkAddress",
          "type": "address"
        }
      ],
      "name": "checkIfUserShopOwner",
      "outputs": [
        {
          "name": "",
          "type": "bool"
        }
      ],
      "payable": false,
      "stateMutability": "view",
      "type": "function"
    },
    {
      "constant": false,
      "inputs": [
        {
          "name": "x",
          "type": "uint256"
        }
      ],
      "name": "set",
      "outputs": [],
      "payable": false,
      "stateMutability": "nonpayable",
      "type": "function"
    },
    {
      "constant": true,
      "inputs": [],
      "name": "get",
      "outputs": [
        {
          "name": "",
          "type": "uint256"
        }
      ],
      "payable": false,
      "stateMutability": "view",
      "type": "function"
    }
  ],
  "bytecode": "0x608060405260146005556001600381905550600180819055506001600481905550336000806101000a81548173ffffffffffffffffffffffffffffffffffffffff021916908373ffffffffffffffffffffffffffffffffffffffff16021790555061196a8061006f6000396000f30060806040526004361061013e576000357c0100000000000000000000000000000000000000000000000000000000900463ffffffff168063035f45431461014357806309c7a53a146101a45780631f0777a7146101ff578063429b62e51461021f5780634f8632ba1461027a57806356117b73146102d157806360fe47b1146103075780636d4ce63c146103345780636e31e5651461035f578063713aca74146103ab57806374e25e78146105635780637acc0b20146106265780637ef77e281461074d57806385add65e1461079957806392bec5ee146107f4578063975bb52f146108e9578063a044042614610934578063a36a25871461095e578063bc497a3814610994578063c4a8a96d146109ea578063e659ebef14610a45578063e768c93c14610a86578063edede60114610ae1578063ff8010bb14610b0c575b600080fd5b34801561014f57600080fd5b5061018e600480360381019080803573ffffffffffffffffffffffffffffffffffffffff16906020019092919080359060200190929190505050610b67565b6040518082815260200191505060405180910390f35b3480156101b057600080fd5b506101e5600480360381019080803573ffffffffffffffffffffffffffffffffffffffff169060200190929190505050610b97565b604051808215151515815260200191505060405180910390f35b61021d60048036038101908080359060200190929190505050610c05565b005b34801561022b57600080fd5b50610260600480360381019080803573ffffffffffffffffffffffffffffffffffffffff169060200190929190505050610cb1565b604051808215151515815260200191505060405180910390f35b34801561028657600080fd5b5061028f610cd1565b604051808273ffffffffffffffffffffffffffffffffffffffff1673ffffffffffffffffffffffffffffffffffffffff16815260200191505060405180910390f35b3480156102dd57600080fd5b506102e6610cf6565b60405180831515151581526020018281526020019250505060405180910390f35b34801561031357600080fd5b5061033260048036038101908080359060200190929190505050610d67565b005b34801561034057600080fd5b50610349610d71565b6040518082815260200191505060405180910390f35b34801561036b57600080fd5b5061038a60048036038101908080359060200190929190505050610d7b565b60405180831515151581526020018281526020019250505060405180910390f35b3480156103b757600080fd5b506103d660048036038101908080359060200190929190505050610e92565b604051808681526020018060200180602001806020018573ffffffffffffffffffffffffffffffffffffffff1673ffffffffffffffffffffffffffffffffffffffff168152602001848103845288818151815260200191508051906020019080838360005b8381101561045657808201518184015260208101905061043b565b50505050905090810190601f1680156104835780820380516001836020036101000a031916815260200191505b50848103835287818151815260200191508051906020019080838360005b838110156104bc5780820151818401526020810190506104a1565b50505050905090810190601f1680156104e95780820380516001836020036101000a031916815260200191505b50848103825286818151815260200191508051906020019080838360005b83811015610522578082015181840152602081019050610507565b50505050905090810190601f16801561054f5780820380516001836020036101000a031916815260200191505b509850505050505050505060405180910390f35b34801561056f57600080fd5b5061062460048036038101908080359060200190929190803590602001908201803590602001908080601f0160208091040260200160405190810160405280939291908181526020018383808284378201915050505050509192919290803590602001908201803590602001908080601f0160208091040260200160405190810160405280939291908181526020018383808284378201915050505050509192919290803590602001909291905050506110b0565b005b34801561063257600080fd5b50610651600480360381019080803590602001909291905050506111af565b604051808681526020018060200180602001858152602001848152602001838103835287818151815260200191508051906020019080838360005b838110156106a757808201518184015260208101905061068c565b50505050905090810190601f1680156106d45780820380516001836020036101000a031916815260200191505b50838103825286818151815260200191508051906020019080838360005b8381101561070d5780820151818401526020810190506106f2565b50505050905090810190601f16801561073a5780820380516001836020036101000a031916815260200191505b5097505050505050505060405180910390f35b34801561075957600080fd5b5061077860048036038101908080359060200190929190505050611315565b60405180831515151581526020018281526020019250505060405180910390f35b3480156107a557600080fd5b506107da600480360381019080803573ffffffffffffffffffffffffffffffffffffffff169060200190929190505050611369565b604051808215151515815260200191505060405180910390f35b34801561080057600080fd5b506108e7600480360381019080803590602001908201803590602001908080601f0160208091040260200160405190810160405280939291908181526020018383808284378201915050505050509192919290803590602001908201803590602001908080601f0160208091040260200160405190810160405280939291908181526020018383808284378201915050505050509192919290803590602001908201803590602001908080601f01602080910402602001604051908101604052809392919081815260200183838082843782019150505050505091929192905050506113c8565b005b3480156108f557600080fd5b5061091e600480360381019080803590602001909291908035906020019092919050505061159a565b6040518082815260200191505060405180910390f35b61095c60048036038101908080359060200190929190803590602001909291905050506115ca565b005b610992600480360381019080803573ffffffffffffffffffffffffffffffffffffffff16906020019092919050505061162f565b005b3480156109a057600080fd5b506109c96004803603810190808035906020019092919080359060200190929190505050611681565b60405180831515151581526020018281526020019250505060405180910390f35b3480156109f657600080fd5b50610a2b600480360381019080803573ffffffffffffffffffffffffffffffffffffffff1690602001909291905050506116ff565b604051808215151515815260200191505060405180910390f35b348015610a5157600080fd5b50610a706004803603810190808035906020019092919050505061171f565b6040518082815260200191505060405180910390f35b348015610a9257600080fd5b50610ac7600480360381019080803573ffffffffffffffffffffffffffffffffffffffff169060200190929190505050611737565b604051808215151515815260200191505060405180910390f35b348015610aed57600080fd5b50610af6611796565b6040518082815260200191505060405180910390f35b348015610b1857600080fd5b50610b4d600480360381019080803573ffffffffffffffffffffffffffffffffffffffff1690602001909291905050506117b5565b604051808215151515815260200191505060405180910390f35b600a60205281600052604060002081815481101515610b8257fe5b90600052602060002001600091509150505481565b600060011515600860008473ffffffffffffffffffffffffffffffffffffffff1673ffffffffffffffffffffffffffffffffffffffff16815260200190815260200160002060009054906101000a900460ff1615151415610bfb5760019050610c00565b600090505b919050565b6009600082815260200190815260200160002060040160009054906101000a900473ffffffffffffffffffffffffffffffffffffffff1673ffffffffffffffffffffffffffffffffffffffff166108fc60066000848152602001908152602001600020549081150290604051600060405180830381858888f19350505050158015610c94573d6000803e3d6000fd5b506000600660008381526020019081526020016000208190555050565b60076020528060005260406000206000915054906101000a900460ff1681565b6000809054906101000a900473ffffffffffffffffffffffffffffffffffffffff1681565b6000806001600a60008060009054906101000a900473ffffffffffffffffffffffffffffffffffffffff1673ffffffffffffffffffffffffffffffffffffffff1673ffffffffffffffffffffffffffffffffffffffff16815260200190815260200160002080549050915091509091565b8060028190555050565b6000600254905090565b6000806000600a60008060009054906101000a900473ffffffffffffffffffffffffffffffffffffffff1673ffffffffffffffffffffffffffffffffffffffff1673ffffffffffffffffffffffffffffffffffffffff16815260200190815260200160002084815481101515610ded57fe5b9060005260206000200154101515610e82576001600a60008060009054906101000a900473ffffffffffffffffffffffffffffffffffffffff1673ffffffffffffffffffffffffffffffffffffffff1673ffffffffffffffffffffffffffffffffffffffff16815260200190815260200160002084815481101515610e6e57fe5b906000526020600020015491509150610e8d565b600080809050915091505b915091565b6009602052806000526040600020600091509050806000015490806001018054600181600116156101000203166002900480601f016020809104026020016040519081016040528092919081815260200182805460018160011615610100020316600290048015610f445780601f10610f1957610100808354040283529160200191610f44565b820191906000526020600020905b815481529060010190602001808311610f2757829003601f168201915b505050505090806002018054600181600116156101000203166002900480601f016020809104026020016040519081016040528092919081815260200182805460018160011615610100020316600290048015610fe25780601f10610fb757610100808354040283529160200191610fe2565b820191906000526020600020905b815481529060010190602001808311610fc557829003601f168201915b505050505090806003018054600181600116156101000203166002900480601f0160208091040260200160405190810160405280929190818152602001828054600181600116156101000203166002900480156110805780601f1061105557610100808354040283529160200191611080565b820191906000526020600020905b81548152906001019060200180831161106357829003601f168201915b5050505050908060040160009054906101000a900473ffffffffffffffffffffffffffffffffffffffff16905085565b60006110ba611823565b600154915060a06040519081016040528083815260200186815260200185815260200184815260200187815250905080600c6000848152602001908152602001600020600082015181600001556020820151816001019080519060200190611123929190611853565b506040820151816002019080519060200190611140929190611853565b506060820151816003015560808201518160040155905050600b6000878152602001908152602001600020829080600181540180825580915050906001820390600052602060002001600090919290919091505550600160008154809291906001019190505550505050505050565b600c602052806000526040600020600091509050806000015490806001018054600181600116156101000203166002900480601f0160208091040260200160405190810160405280929190818152602001828054600181600116156101000203166002900480156112615780601f1061123657610100808354040283529160200191611261565b820191906000526020600020905b81548152906001019060200180831161124457829003601f168201915b505050505090806002018054600181600116156101000203166002900480601f0160208091040260200160405190810160405280929190818152602001828054600181600116156101000203166002900480156112ff5780601f106112d4576101008083540402835291602001916112ff565b820191906000526020600020905b8154815290600101906020018083116112e257829003601f168201915b5050505050908060030154908060040154905085565b6000806000600b6000858152602001908152602001600020805490501115611359576001600b60008581526020019081526020016000208054905091509150611364565b600080809050915091505b915091565b60006001600860008473ffffffffffffffffffffffffffffffffffffffff1673ffffffffffffffffffffffffffffffffffffffff16815260200190815260200160002060006101000a81548160ff021916908315150217905550919050565b60006113d26118d3565b600354915060a0604051908101604052808381526020018681526020018581526020018481526020016000809054906101000a900473ffffffffffffffffffffffffffffffffffffffff1673ffffffffffffffffffffffffffffffffffffffff1681525090508060096000848152602001908152602001600020600082015181600001556020820151816001019080519060200190611472929190611853565b50604082015181600201908051906020019061148f929190611853565b5060608201518160030190805190602001906114ac929190611853565b5060808201518160040160006101000a81548173ffffffffffffffffffffffffffffffffffffffff021916908373ffffffffffffffffffffffffffffffffffffffff160217905550905050600a60008060009054906101000a900473ffffffffffffffffffffffffffffffffffffffff1673ffffffffffffffffffffffffffffffffffffffff1673ffffffffffffffffffffffffffffffffffffffff1681526020019081526020016000208290806001815401808255809150509060018203906000526020600020016000909192909190915055506003600081548092919060010191905055505050505050565b600b602052816000526040600020818154811015156115b557fe5b90600052602060002001600091509150505481565b60055481600c6000858152602001908152602001600020600301540201341415156115f457600080fd5b3460066000600c6000868152602001908152602001600020600401548152602001908152602001600020600082825401925050819055505050565b8073ffffffffffffffffffffffffffffffffffffffff166108fc670de0b6b3a76400009081150290604051600060405180830381858888f1935050505015801561167d573d6000803e3d6000fd5b5050565b6000806000600b6000868152602001908152602001600020848154811015156116a657fe5b906000526020600020015411156116ed576001600b6000868152602001908152602001600020848154811015156116d957fe5b9060005260206000200154915091506116f8565b600080809050915091505b9250929050565b60086020528060005260406000206000915054906101000a900460ff1681565b60066020528060005260406000206000915090505481565b60006001600760008473ffffffffffffffffffffffffffffffffffffffff1673ffffffffffffffffffffffffffffffffffffffff16815260200190815260200160002060006101000a81548160ff021916908315150217905550919050565b60003073ffffffffffffffffffffffffffffffffffffffff1631905090565b600060011515600760008473ffffffffffffffffffffffffffffffffffffffff1673ffffffffffffffffffffffffffffffffffffffff16815260200190815260200160002060009054906101000a900460ff1615151415611819576001905061181e565b600090505b919050565b60a06040519081016040528060008152602001606081526020016060815260200160008152602001600081525090565b828054600181600116156101000203166002900490600052602060002090601f016020900481019282601f1061189457805160ff19168380011785556118c2565b828001600101855582156118c2579182015b828111156118c15782518255916020019190600101906118a6565b5b5090506118cf9190611919565b5090565b60a06040519081016040528060008152602001606081526020016060815260200160608152602001600073ffffffffffffffffffffffffffffffffffffffff1681525090565b61193b91905b8082111561193757600081600090555060010161191f565b5090565b905600a165627a7a723058204ca1cf35ef63c0b9a05386532836afe81fde6bff4e69b6e3c2071694c0e565030029",
  "source": "pragma solidity ^0.4.17;\n\ncontract KulaksMarketplace {\n  struct Product {\n    uint id;\n    string name;\n    string description;\n    uint price;\n    uint shopId;\n    \n  }\n  struct Shop {\n    uint id;\n    string name;\n    string shopType;\n    string description;\n    address owner;\n  }\n  \n  constructor () public payable {\n      shopCount = 1;\n      productCount = 1;\n      transactionCount = 1;\n      user = msg.sender;\n  }\n  address public user; // the address that instantiated the contract\n  uint productCount;\n  uint storedData;\n  uint shopCount;\n  uint transactionCount;\n  uint shippingAndHandling = 20;\n  mapping(uint => uint) public shopBalances;\n  mapping(address => bool) public admins; // enter an address to confirm if it's an admin\n  mapping(address => bool) public shopOwners; // enter an address to confirm if it's an shopOwner\n  mapping(uint => Shop) public shops; // enter shopId to get info about the store\n  mapping(address => uint[]) public shopIds; // enter an address to get an array of creates shops for the particular shopOwner\n  mapping(uint => uint[]) public productIds; // enter a productId to get an array of created products for the particular shop\n  mapping(uint => Product) public products;\n  \n  modifier shopOwnerOnly() {\n    require(shopOwners[user] == true);\n    _;\n  }\n  \n  modifier adminOnly() {\n    require(shopOwners[user] == true);\n    _;\n  }\n  \n  \n  function createShop(string _name, string _shopType, string _description) public {\n     uint id = shopCount;\n     \n     Shop memory newShop = Shop({\n       id: id,\n       name: _name,\n       description: _description,\n       shopType: _shopType,\n       owner: user\n     });\n\n      // need to add a\n     shops[id] = newShop;\n     \n     // push the shopId to a shopIds mapping for reference\n     shopIds[user].push(id);\n     // increment counter by 1 since you are using it for id's for shops as well\n    shopCount++;\n  }\n  \n  \n  function createProduct(uint _shopId, string _name, string _description, uint _price) public {\n     uint id = productCount;\n     \n     Product memory newProduct = Product({\n       id: id,\n       shopId: _shopId,\n       name: _name,\n       description: _description,\n       price: _price\n     });\n     \n     products[id] = newProduct; // adding a product to shopProducts mapping\n     productIds[_shopId].push(id); // pushing the product id to be refernced in the store struct\n     productCount ++;\n    \n  }\n  \n  function purchaseProduct(uint _productId, uint quantity) public payable  {\n      // require for value of transaction to be of the right amount\n     require(msg.value == products[_productId].price * quantity + shippingAndHandling);\n      // keeping track of balance of a shop. shop owner can then send that value to their account\n     shopBalances[products[_productId].shopId] += msg.value;\n     // return products[_productId].price * quantity + shippingAndHandling;\n  }\n  \n  function moveShopBalanceToOwner (uint _shopId) public payable {\n      shops[_shopId].owner.transfer(shopBalances[_shopId]);\n      shopBalances[_shopId] = 0; // after the money has been transfered over, make balance 0 again\n  }\n\n  function doesOwnerHaveShops () public view returns(bool, uint) {\n      // if(shopIds[user].length > 0) {\n          return(true,  shopIds[user].length);\n      // } else {\n      //     return(false, 0);\n      // }\n  }\n  \n  function doesShopHaveProducts (uint shopId) public view returns(bool, uint) {\n      if(productIds[shopId].length > 0) {\n          return(true,  productIds[shopId].length);\n      } else {\n          return(false, 0);\n      }\n  }\n  \n  function getShopIdByOrder (uint order) public view returns(bool, uint) {\n      if(shopIds[user][order] >= 0) {\n          return(true, shopIds[user][order]);\n     } else {\n        return(false, 0);\n     }\n  }\n  \n  function getProductIdByOrder (uint _shopId, uint _order) public view returns(bool, uint) {\n      if(productIds[_shopId][_order] > 0) {\n          return(true, productIds[_shopId][_order]);\n     } else {\n        return(false, 0);\n     }\n  }\n\n  function sendValueTest(address userAddress) public payable {\n      userAddress.transfer(1 ether);\n  }\n  \n  function testBalance () public view returns (uint) {\n      return this.balance;\n  }\n\n  function becomeAdmin(address adminAddress) public returns (bool) {\n      admins[adminAddress] = true;\n  }\n  \n  function becomeShopOwner(address ownerAddress) public returns (bool) {\n      shopOwners[ownerAddress] = true;\n  }\n  \n  \n  function checkIfUserAdmin (address checkAddress) public view returns (bool) {\n      if(admins[checkAddress] == true) {\n          return true;\n      } else {\n          return false;\n      }\n  }\n  \n  function checkIfUserShopOwner (address checkAddress) public view returns (bool) {\n      if(shopOwners[checkAddress] == true) {\n          return true;\n      } else {\n          return false;\n      }\n  }\n  \n  function set(uint x) public {\n    storedData = x;\n  }\n\n  function get() public view returns (uint) {\n    return storedData;\n  }\n}\n",
  "sourcePath": "/Users/akulak/repos/eth_kulaksMarketplace/contracts/KulaksMarketplace.sol",
  "compiler": {
    "name": "solc",
    "version": "0.4.24+commit.e67f0147.Emscripten.clang"
  },
  "schemaVersion": "2.0.0",
  "updatedAt": "2018-07-25T19:33:40.880Z"
}