{
  "contractName": "KulaksMarketplace",
  "abi": [
    {
      "constant": true,
      "inputs": [],
      "name": "creator",
      "outputs": [
        {
          "name": "",
          "type": "address"
        }
      ],
      "payable": false,
      "stateMutability": "view",
      "type": "function"
    },
    {
      "constant": true,
      "inputs": [
        {
          "name": "",
          "type": "address"
        },
        {
          "name": "",
          "type": "uint256"
        }
      ],
      "name": "shopIds",
      "outputs": [
        {
          "name": "",
          "type": "uint256"
        }
      ],
      "payable": false,
      "stateMutability": "view",
      "type": "function"
    },
    {
      "constant": true,
      "inputs": [
        {
          "name": "",
          "type": "uint256"
        }
      ],
      "name": "shopsList",
      "outputs": [
        {
          "name": "",
          "type": "uint256"
        }
      ],
      "payable": false,
      "stateMutability": "view",
      "type": "function"
    },
    {
      "constant": true,
      "inputs": [
        {
          "name": "",
          "type": "uint256"
        }
      ],
      "name": "usersList",
      "outputs": [
        {
          "name": "",
          "type": "address"
        }
      ],
      "payable": false,
      "stateMutability": "view",
      "type": "function"
    },
    {
      "constant": true,
      "inputs": [
        {
          "name": "",
          "type": "uint256"
        }
      ],
      "name": "shops",
      "outputs": [
        {
          "name": "id",
          "type": "uint256"
        },
        {
          "name": "name",
          "type": "string"
        },
        {
          "name": "shopType",
          "type": "string"
        },
        {
          "name": "description",
          "type": "string"
        },
        {
          "name": "owner",
          "type": "address"
        }
      ],
      "payable": false,
      "stateMutability": "view",
      "type": "function"
    },
    {
      "constant": true,
      "inputs": [
        {
          "name": "",
          "type": "uint256"
        }
      ],
      "name": "products",
      "outputs": [
        {
          "name": "id",
          "type": "uint256"
        },
        {
          "name": "name",
          "type": "string"
        },
        {
          "name": "description",
          "type": "string"
        },
        {
          "name": "price",
          "type": "uint256"
        },
        {
          "name": "shopId",
          "type": "uint256"
        }
      ],
      "payable": false,
      "stateMutability": "view",
      "type": "function"
    },
    {
      "constant": true,
      "inputs": [
        {
          "name": "",
          "type": "uint256"
        },
        {
          "name": "",
          "type": "uint256"
        }
      ],
      "name": "productIds",
      "outputs": [
        {
          "name": "",
          "type": "uint256"
        }
      ],
      "payable": false,
      "stateMutability": "view",
      "type": "function"
    },
    {
      "constant": true,
      "inputs": [
        {
          "name": "",
          "type": "address"
        }
      ],
      "name": "users",
      "outputs": [
        {
          "name": "",
          "type": "string"
        }
      ],
      "payable": false,
      "stateMutability": "view",
      "type": "function"
    },
    {
      "constant": true,
      "inputs": [
        {
          "name": "",
          "type": "uint256"
        }
      ],
      "name": "shopBalances",
      "outputs": [
        {
          "name": "",
          "type": "uint256"
        }
      ],
      "payable": false,
      "stateMutability": "view",
      "type": "function"
    },
    {
      "inputs": [],
      "payable": true,
      "stateMutability": "payable",
      "type": "constructor"
    },
    {
      "constant": true,
      "inputs": [
        {
          "name": "_addr",
          "type": "address"
        }
      ],
      "name": "checkUserListExist",
      "outputs": [
        {
          "name": "",
          "type": "bool"
        }
      ],
      "payable": false,
      "stateMutability": "view",
      "type": "function"
    },
    {
      "constant": false,
      "inputs": [
        {
          "name": "_addr",
          "type": "address"
        }
      ],
      "name": "makeShopOwner",
      "outputs": [],
      "payable": false,
      "stateMutability": "nonpayable",
      "type": "function"
    },
    {
      "constant": false,
      "inputs": [
        {
          "name": "_addr",
          "type": "address"
        }
      ],
      "name": "makeAdmin",
      "outputs": [],
      "payable": false,
      "stateMutability": "nonpayable",
      "type": "function"
    },
    {
      "constant": false,
      "inputs": [
        {
          "name": "_addr",
          "type": "address"
        }
      ],
      "name": "makeUser",
      "outputs": [],
      "payable": false,
      "stateMutability": "nonpayable",
      "type": "function"
    },
    {
      "constant": true,
      "inputs": [],
      "name": "getUsersListLength",
      "outputs": [
        {
          "name": "",
          "type": "uint256"
        }
      ],
      "payable": false,
      "stateMutability": "view",
      "type": "function"
    },
    {
      "constant": true,
      "inputs": [],
      "name": "getShopsListLength",
      "outputs": [
        {
          "name": "",
          "type": "uint256"
        }
      ],
      "payable": false,
      "stateMutability": "view",
      "type": "function"
    },
    {
      "constant": false,
      "inputs": [
        {
          "name": "_name",
          "type": "string"
        },
        {
          "name": "_shopType",
          "type": "string"
        },
        {
          "name": "_description",
          "type": "string"
        }
      ],
      "name": "createShop",
      "outputs": [],
      "payable": false,
      "stateMutability": "nonpayable",
      "type": "function"
    },
    {
      "constant": false,
      "inputs": [
        {
          "name": "_shopId",
          "type": "uint256"
        },
        {
          "name": "_name",
          "type": "string"
        },
        {
          "name": "_description",
          "type": "string"
        },
        {
          "name": "_price",
          "type": "uint256"
        }
      ],
      "name": "createProduct",
      "outputs": [],
      "payable": false,
      "stateMutability": "nonpayable",
      "type": "function"
    },
    {
      "constant": false,
      "inputs": [
        {
          "name": "_productId",
          "type": "uint256"
        },
        {
          "name": "quantity",
          "type": "uint256"
        }
      ],
      "name": "purchaseProduct",
      "outputs": [],
      "payable": true,
      "stateMutability": "payable",
      "type": "function"
    },
    {
      "constant": false,
      "inputs": [
        {
          "name": "_shopId",
          "type": "uint256"
        }
      ],
      "name": "moveShopBalanceToOwner",
      "outputs": [],
      "payable": true,
      "stateMutability": "payable",
      "type": "function"
    },
    {
      "constant": true,
      "inputs": [],
      "name": "doesOwnerHaveShops",
      "outputs": [
        {
          "name": "",
          "type": "bool"
        },
        {
          "name": "",
          "type": "uint256"
        }
      ],
      "payable": false,
      "stateMutability": "view",
      "type": "function"
    },
    {
      "constant": true,
      "inputs": [
        {
          "name": "shopId",
          "type": "uint256"
        }
      ],
      "name": "doesShopHaveProducts",
      "outputs": [
        {
          "name": "",
          "type": "bool"
        },
        {
          "name": "",
          "type": "uint256"
        }
      ],
      "payable": false,
      "stateMutability": "view",
      "type": "function"
    },
    {
      "constant": true,
      "inputs": [],
      "name": "testBalance",
      "outputs": [
        {
          "name": "",
          "type": "uint256"
        }
      ],
      "payable": false,
      "stateMutability": "view",
      "type": "function"
    },
    {
      "constant": false,
      "inputs": [],
      "name": "becomeAdmin",
      "outputs": [
        {
          "name": "",
          "type": "bool"
        }
      ],
      "payable": false,
      "stateMutability": "nonpayable",
      "type": "function"
    },
    {
      "constant": false,
      "inputs": [],
      "name": "becomeShopOwner",
      "outputs": [
        {
          "name": "",
          "type": "bool"
        }
      ],
      "payable": false,
      "stateMutability": "nonpayable",
      "type": "function"
    },
    {
      "constant": false,
      "inputs": [
        {
          "name": "x",
          "type": "uint256"
        }
      ],
      "name": "set",
      "outputs": [],
      "payable": false,
      "stateMutability": "nonpayable",
      "type": "function"
    },
    {
      "constant": true,
      "inputs": [],
      "name": "get",
      "outputs": [
        {
          "name": "",
          "type": "uint256"
        }
      ],
      "payable": false,
      "stateMutability": "view",
      "type": "function"
    }
  ],
  "bytecode": "0x608060405260146005556001600381905550600180819055506001600481905550336000806101000a81548173ffffffffffffffffffffffffffffffffffffffff021916908373ffffffffffffffffffffffffffffffffffffffff16021790555061216c8061006f6000396000f300608060405260043610610154576000357c0100000000000000000000000000000000000000000000000000000000900463ffffffff16806302d05d3f14610159578063035f4543146101b057806314d52dd5146102115780631f0777a71461023c57806324f7bbd91461025c57806325971dff1461029f5780632989d87f146102ce5780632bdbd1891461030f578063472905ca14610352578063502aa3b51461039557806356117b73146104025780635c1db0491461043857806360fe47b1146104635780636c6b5acd146104905780636d4ce63c146104bf578063713aca74146104ea57806374e25e78146106a25780637acc0b20146107655780637ef77e281461088c57806392bec5ee146108d8578063975bb52f146109cd578063a044042614610a18578063a87430ba14610a42578063c53341e514610afe578063e659ebef14610b59578063edede60114610b9a575b600080fd5b34801561016557600080fd5b5061016e610bc5565b604051808273ffffffffffffffffffffffffffffffffffffffff1673ffffffffffffffffffffffffffffffffffffffff16815260200191505060405180910390f35b3480156101bc57600080fd5b506101fb600480360381019080803573ffffffffffffffffffffffffffffffffffffffff16906020019092919080359060200190929190505050610bea565b6040518082815260200191505060405180910390f35b34801561021d57600080fd5b50610226610c1a565b6040518082815260200191505060405180910390f35b61025a60048036038101908080359060200190929190505050610c27565b005b34801561026857600080fd5b5061029d600480360381019080803573ffffffffffffffffffffffffffffffffffffffff169060200190929190505050610cd3565b005b3480156102ab57600080fd5b506102b4610ddb565b604051808215151515815260200191505060405180910390f35b3480156102da57600080fd5b506102f960048036038101908080359060200190929190505050610e69565b6040518082815260200191505060405180910390f35b34801561031b57600080fd5b50610350600480360381019080803573ffffffffffffffffffffffffffffffffffffffff169060200190929190505050610e8c565b005b34801561035e57600080fd5b50610393600480360381019080803573ffffffffffffffffffffffffffffffffffffffff169060200190929190505050610f94565b005b3480156103a157600080fd5b506103c06004803603810190808035906020019092919050505061109c565b604051808273ffffffffffffffffffffffffffffffffffffffff1673ffffffffffffffffffffffffffffffffffffffff16815260200191505060405180910390f35b34801561040e57600080fd5b506104176110da565b60405180831515151581526020018281526020019250505060405180910390f35b34801561044457600080fd5b5061044d611185565b6040518082815260200191505060405180910390f35b34801561046f57600080fd5b5061048e60048036038101908080359060200190929190505050611192565b005b34801561049c57600080fd5b506104a561119c565b604051808215151515815260200191505060405180910390f35b3480156104cb57600080fd5b506104d461122a565b6040518082815260200191505060405180910390f35b3480156104f657600080fd5b5061051560048036038101908080359060200190929190505050611234565b604051808681526020018060200180602001806020018573ffffffffffffffffffffffffffffffffffffffff1673ffffffffffffffffffffffffffffffffffffffff168152602001848103845288818151815260200191508051906020019080838360005b8381101561059557808201518184015260208101905061057a565b50505050905090810190601f1680156105c25780820380516001836020036101000a031916815260200191505b50848103835287818151815260200191508051906020019080838360005b838110156105fb5780820151818401526020810190506105e0565b50505050905090810190601f1680156106285780820380516001836020036101000a031916815260200191505b50848103825286818151815260200191508051906020019080838360005b83811015610661578082015181840152602081019050610646565b50505050905090810190601f16801561068e5780820380516001836020036101000a031916815260200191505b509850505050505050505060405180910390f35b3480156106ae57600080fd5b5061076360048036038101908080359060200190929190803590602001908201803590602001908080601f0160208091040260200160405190810160405280939291908181526020018383808284378201915050505050509192919290803590602001908201803590602001908080601f016020809104026020016040519081016040528093929190818152602001838380828437820191505050505050919291929080359060200190929190505050611452565b005b34801561077157600080fd5b5061079060048036038101908080359060200190929190505050611551565b604051808681526020018060200180602001858152602001848152602001838103835287818151815260200191508051906020019080838360005b838110156107e65780820151818401526020810190506107cb565b50505050905090810190601f1680156108135780820380516001836020036101000a031916815260200191505b50838103825286818151815260200191508051906020019080838360005b8381101561084c578082015181840152602081019050610831565b50505050905090810190601f1680156108795780820380516001836020036101000a031916815260200191505b5097505050505050505060405180910390f35b34801561089857600080fd5b506108b7600480360381019080803590602001909291905050506116b7565b60405180831515151581526020018281526020019250505060405180910390f35b3480156108e457600080fd5b506109cb600480360381019080803590602001908201803590602001908080601f0160208091040260200160405190810160405280939291908181526020018383808284378201915050505050509192919290803590602001908201803590602001908080601f0160208091040260200160405190810160405280939291908181526020018383808284378201915050505050509192919290803590602001908201803590602001908080601f016020809104026020016040519081016040528093929190818152602001838380828437820191505050505050919291929050505061170b565b005b3480156109d957600080fd5b50610a0260048036038101908080359060200190929190803590602001909291905050506118c7565b6040518082815260200191505060405180910390f35b610a4060048036038101908080359060200190929190803590602001909291905050506118f7565b005b348015610a4e57600080fd5b50610a83600480360381019080803573ffffffffffffffffffffffffffffffffffffffff16906020019092919050505061195c565b6040518080602001828103825283818151815260200191508051906020019080838360005b83811015610ac3578082015181840152602081019050610aa8565b50505050905090810190601f168015610af05780820380516001836020036101000a031916815260200191505b509250505060405180910390f35b348015610b0a57600080fd5b50610b3f600480360381019080803573ffffffffffffffffffffffffffffffffffffffff169060200190929190505050611a0c565b604051808215151515815260200191505060405180910390f35b348015610b6557600080fd5b50610b8460048036038101908080359060200190929190505050611f6e565b6040518082815260200191505060405180910390f35b348015610ba657600080fd5b50610baf611f86565b6040518082815260200191505060405180910390f35b6000809054906101000a900473ffffffffffffffffffffffffffffffffffffffff1681565b600860205281600052604060002081815481101515610c0557fe5b90600052602060002001600091509150505481565b6000600c80549050905090565b6007600082815260200190815260200160002060040160009054906101000a900473ffffffffffffffffffffffffffffffffffffffff1673ffffffffffffffffffffffffffffffffffffffff166108fc60066000848152602001908152602001600020549081150290604051600060405180830381858888f19350505050158015610cb6573d6000803e3d6000fd5b506000600660008381526020019081526020016000208190555050565b60001515610ce082611a0c565b15151415610d4f57600b8190806001815401808255809150509060018203906000526020600020016000909192909190916101000a81548173ffffffffffffffffffffffffffffffffffffffff021916908373ffffffffffffffffffffffffffffffffffffffff160217905550505b6040805190810160405280600481526020017f7573657200000000000000000000000000000000000000000000000000000000815250600d60008373ffffffffffffffffffffffffffffffffffffffff1673ffffffffffffffffffffffffffffffffffffffff1681526020019081526020016000209080519060200190610dd7929190611fa5565b5050565b60006040805190810160405280600581526020017f61646d696e000000000000000000000000000000000000000000000000000000815250600d60003373ffffffffffffffffffffffffffffffffffffffff1673ffffffffffffffffffffffffffffffffffffffff1681526020019081526020016000209080519060200190610e65929190611fa5565b5090565b600c81815481101515610e7857fe5b906000526020600020016000915090505481565b60001515610e9982611a0c565b15151415610f0857600b8190806001815401808255809150509060018203906000526020600020016000909192909190916101000a81548173ffffffffffffffffffffffffffffffffffffffff021916908373ffffffffffffffffffffffffffffffffffffffff160217905550505b6040805190810160405280600581526020017f6f776e6572000000000000000000000000000000000000000000000000000000815250600d60008373ffffffffffffffffffffffffffffffffffffffff1673ffffffffffffffffffffffffffffffffffffffff1681526020019081526020016000209080519060200190610f90929190611fa5565b5050565b60001515610fa182611a0c565b1515141561101057600b8190806001815401808255809150509060018203906000526020600020016000909192909190916101000a81548173ffffffffffffffffffffffffffffffffffffffff021916908373ffffffffffffffffffffffffffffffffffffffff160217905550505b6040805190810160405280600581526020017f61646d696e000000000000000000000000000000000000000000000000000000815250600d60008373ffffffffffffffffffffffffffffffffffffffff1673ffffffffffffffffffffffffffffffffffffffff1681526020019081526020016000209080519060200190611098929190611fa5565b5050565b600b818154811015156110ab57fe5b906000526020600020016000915054906101000a900473ffffffffffffffffffffffffffffffffffffffff1681565b6000806000600860003373ffffffffffffffffffffffffffffffffffffffff1673ffffffffffffffffffffffffffffffffffffffff168152602001908152602001600020805490501115611176576001600860003373ffffffffffffffffffffffffffffffffffffffff1673ffffffffffffffffffffffffffffffffffffffff1681526020019081526020016000208054905091509150611181565b600080809050915091505b9091565b6000600b80549050905090565b8060028190555050565b60006040805190810160405280600581526020017f6f776e6572000000000000000000000000000000000000000000000000000000815250600d60003373ffffffffffffffffffffffffffffffffffffffff1673ffffffffffffffffffffffffffffffffffffffff1681526020019081526020016000209080519060200190611226929190611fa5565b5090565b6000600254905090565b6007602052806000526040600020600091509050806000015490806001018054600181600116156101000203166002900480601f0160208091040260200160405190810160405280929190818152602001828054600181600116156101000203166002900480156112e65780601f106112bb576101008083540402835291602001916112e6565b820191906000526020600020905b8154815290600101906020018083116112c957829003601f168201915b505050505090806002018054600181600116156101000203166002900480601f0160208091040260200160405190810160405280929190818152602001828054600181600116156101000203166002900480156113845780601f1061135957610100808354040283529160200191611384565b820191906000526020600020905b81548152906001019060200180831161136757829003601f168201915b505050505090806003018054600181600116156101000203166002900480601f0160208091040260200160405190810160405280929190818152602001828054600181600116156101000203166002900480156114225780601f106113f757610100808354040283529160200191611422565b820191906000526020600020905b81548152906001019060200180831161140557829003601f168201915b5050505050908060040160009054906101000a900473ffffffffffffffffffffffffffffffffffffffff16905085565b600061145c612025565b600154915060a06040519081016040528083815260200186815260200185815260200184815260200187815250905080600a60008481526020019081526020016000206000820151816000015560208201518160010190805190602001906114c5929190612055565b5060408201518160020190805190602001906114e2929190612055565b50606082015181600301556080820151816004015590505060096000878152602001908152602001600020829080600181540180825580915050906001820390600052602060002001600090919290919091505550600160008154809291906001019190505550505050505050565b600a602052806000526040600020600091509050806000015490806001018054600181600116156101000203166002900480601f0160208091040260200160405190810160405280929190818152602001828054600181600116156101000203166002900480156116035780601f106115d857610100808354040283529160200191611603565b820191906000526020600020905b8154815290600101906020018083116115e657829003601f168201915b505050505090806002018054600181600116156101000203166002900480601f0160208091040260200160405190810160405280929190818152602001828054600181600116156101000203166002900480156116a15780601f10611676576101008083540402835291602001916116a1565b820191906000526020600020905b81548152906001019060200180831161168457829003601f168201915b5050505050908060030154908060040154905085565b6000806000600960008581526020019081526020016000208054905011156116fb576001600960008581526020019081526020016000208054905091509150611706565b600080809050915091505b915091565b60006117156120d5565b600354915060a0604051908101604052808381526020018681526020018581526020018481526020013373ffffffffffffffffffffffffffffffffffffffff1681525090508060076000848152602001908152602001600020600082015181600001556020820151816001019080519060200190611794929190612055565b5060408201518160020190805190602001906117b1929190612055565b5060608201518160030190805190602001906117ce929190612055565b5060808201518160040160006101000a81548173ffffffffffffffffffffffffffffffffffffffff021916908373ffffffffffffffffffffffffffffffffffffffff160217905550905050600860003373ffffffffffffffffffffffffffffffffffffffff1673ffffffffffffffffffffffffffffffffffffffff168152602001908152602001600020829080600181540180825580915050906001820390600052602060002001600090919290919091505550600c8290806001815401808255809150509060018203906000526020600020016000909192909190915055506003600081548092919060010191905055505050505050565b6009602052816000526040600020818154811015156118e257fe5b90600052602060002001600091509150505481565b60055481600a60008581526020019081526020016000206003015402013414151561192157600080fd5b3460066000600a6000868152602001908152602001600020600401548152602001908152602001600020600082825401925050819055505050565b600d6020528060005260406000206000915090508054600181600116156101000203166002900480601f016020809104026020016040519081016040528092919081815260200182805460018160011615610100020316600290048015611a045780601f106119d957610100808354040283529160200191611a04565b820191906000526020600020905b8154815290600101906020018083116119e757829003601f168201915b505050505081565b600060405160200180807f61646d696e00000000000000000000000000000000000000000000000000000081525060050190506040516020818303038152906040526040518082805190602001908083835b602083101515611a835780518252602082019150602081019050602083039250611a5e565b6001836020036101000a038019825116818451168082178552505050505050905001915050604051809103902060001916600d60008473ffffffffffffffffffffffffffffffffffffffff1673ffffffffffffffffffffffffffffffffffffffff1681526020019081526020016000206040516020018082805460018160011615610100020316600290048015611b515780601f10611b2f576101008083540402835291820191611b51565b820191906000526020600020905b815481529060010190602001808311611b3d575b50509150506040516020818303038152906040526040518082805190602001908083835b602083101515611b9a5780518252602082019150602081019050602083039250611b75565b6001836020036101000a0380198251168184511680821785525050505050509050019150506040518091039020600019161480611d91575060405160200180807f6f776e657200000000000000000000000000000000000000000000000000000081525060050190506040516020818303038152906040526040518082805190602001908083835b602083101515611c475780518252602082019150602081019050602083039250611c22565b6001836020036101000a038019825116818451168082178552505050505050905001915050604051809103902060001916600d60008473ffffffffffffffffffffffffffffffffffffffff1673ffffffffffffffffffffffffffffffffffffffff1681526020019081526020016000206040516020018082805460018160011615610100020316600290048015611d155780601f10611cf3576101008083540402835291820191611d15565b820191906000526020600020905b815481529060010190602001808311611d01575b50509150506040516020818303038152906040526040518082805190602001908083835b602083101515611d5e5780518252602082019150602081019050602083039250611d39565b6001836020036101000a038019825116818451168082178552505050505050905001915050604051809103902060001916145b80611f56575060405160200180807f757365720000000000000000000000000000000000000000000000000000000081525060040190506040516020818303038152906040526040518082805190602001908083835b602083101515611e0c5780518252602082019150602081019050602083039250611de7565b6001836020036101000a038019825116818451168082178552505050505050905001915050604051809103902060001916600d60008473ffffffffffffffffffffffffffffffffffffffff1673ffffffffffffffffffffffffffffffffffffffff1681526020019081526020016000206040516020018082805460018160011615610100020316600290048015611eda5780601f10611eb8576101008083540402835291820191611eda565b820191906000526020600020905b815481529060010190602001808311611ec6575b50509150506040516020818303038152906040526040518082805190602001908083835b602083101515611f235780518252602082019150602081019050602083039250611efe565b6001836020036101000a038019825116818451168082178552505050505050905001915050604051809103902060001916145b15611f645760019050611f69565b600090505b919050565b60066020528060005260406000206000915090505481565b60003073ffffffffffffffffffffffffffffffffffffffff1631905090565b828054600181600116156101000203166002900490600052602060002090601f016020900481019282601f10611fe657805160ff1916838001178555612014565b82800160010185558215612014579182015b82811115612013578251825591602001919060010190611ff8565b5b509050612021919061211b565b5090565b60a06040519081016040528060008152602001606081526020016060815260200160008152602001600081525090565b828054600181600116156101000203166002900490600052602060002090601f016020900481019282601f1061209657805160ff19168380011785556120c4565b828001600101855582156120c4579182015b828111156120c35782518255916020019190600101906120a8565b5b5090506120d1919061211b565b5090565b60a06040519081016040528060008152602001606081526020016060815260200160608152602001600073ffffffffffffffffffffffffffffffffffffffff1681525090565b61213d91905b80821115612139576000816000905550600101612121565b5090565b905600a165627a7a723058201d255ff8b5729d1f60b90285fd7d5114011e57871273d5e5fb474fd2da45eff40029",
  "source": "pragma solidity ^0.4.17;\n\ncontract KulaksMarketplace {\n  struct Product {\n    uint id;\n    string name;\n    string description;\n    uint price;\n    uint shopId;\n    \n  }\n  struct Shop {\n    uint id;\n    string name;\n    string shopType;\n    string description;\n    address owner;\n  }\n  \n  constructor () public payable {\n      shopCount = 1;\n      productCount = 1;\n      transactionCount = 1;\n      creator = msg.sender;\n  }\n  address public creator; // the address that instantiated the contract\n  uint productCount;\n  uint storedData;\n  uint shopCount;\n  uint transactionCount;\n  uint shippingAndHandling = 20;\n  mapping(uint => uint) public shopBalances;\n  // mapping(address => bool) public admins; // enter an address to confirm if it's an admin\n  // mapping(address => bool) public shopOwners; // enter an address to confirm if it's an shopOwner\n  mapping(uint => Shop) public shops; // enter shopId to get info about the store\n  mapping(address => uint[]) public shopIds; // enter an address to get an array of creates shops for the particular shopOwner\n  mapping(uint => uint[]) public productIds; // enter a productId to get an array of created products for the particular shop\n  mapping(uint => Product) public products;\n  address[] public usersList;\n  uint[] public shopsList;\n  mapping(address => string) public users;\n  \n  modifier shopOwnerOnly() {\n    require(keccak256(abi.encodePacked(users[msg.sender])) == keccak256(abi.encodePacked(\"owner\")));\n    _;\n  }\n  \n  modifier adminOnly() {\n    require(keccak256(abi.encodePacked(users[msg.sender])) == keccak256(abi.encodePacked(\"admin\")));\n    _;\n  }\n  \n  // check if user already exists within users mapping\n  function checkUserListExist (address _addr) public view returns(bool) {\n      if(\n          keccak256(abi.encodePacked(users[_addr])) == keccak256(abi.encodePacked(\"admin\")) ||\n          keccak256(abi.encodePacked(users[_addr])) == keccak256(abi.encodePacked(\"owner\")) ||\n          keccak256(abi.encodePacked(users[_addr])) == keccak256(abi.encodePacked(\"user\"))\n      ) {\n          return true;\n      }\n      \n      return false;\n  }\n  \n  function makeShopOwner(address _addr) public {\n    if(checkUserListExist(_addr) == false) {\n         usersList.push(_addr);\n    }\n    users[_addr] = \"owner\";\n     \n  }\n  \n  function makeAdmin(address _addr) public {\n    if(checkUserListExist(_addr) == false) {\n        usersList.push(_addr);\n    }\n    users[_addr] = \"admin\";\n     \n  }\n  \n  function makeUser(address _addr) public {\n    if(checkUserListExist(_addr) == false) {\n        usersList.push(_addr);\n    }\n    users[_addr] = \"user\";\n     \n  }\n  \n  function getUsersListLength() public view returns(uint) {\n     return usersList.length;\n  }\n  \n  function getShopsListLength() public view returns(uint) {\n     return shopsList.length;\n  }\n  \n  function createShop(string _name, string _shopType, string _description) public {\n     uint id = shopCount;\n     \n     Shop memory newShop = Shop({\n       id: id,\n       name: _name,\n       description: _description,\n       shopType: _shopType,\n       owner: msg.sender\n     });\n\n      // add a shop to shops mapping and reference by id\n     shops[id] = newShop;\n     \n     // push the shopId to a shopIds mapping for reference\n     shopIds[msg.sender].push(id);\n     // increment counter by 1 since you are using it for id's for shops as well\n     \n     shopsList.push(id); // push shopId to shopList so we can display all shops to user\n    shopCount++;\n  }\n  \n  \n  function createProduct(uint _shopId, string _name, string _description, uint _price) public {\n     uint id = productCount;\n     \n     Product memory newProduct = Product({\n       id: id,\n       shopId: _shopId,\n       name: _name,\n       description: _description,\n       price: _price\n     });\n     \n     products[id] = newProduct; // adding a product to shopProducts mapping\n     productIds[_shopId].push(id); // pushing the product id to be refernced in the store struct\n     productCount ++;\n    \n  }\n  \n  function purchaseProduct(uint _productId, uint quantity) public payable  {\n      // require for value of transaction to be of the right amount\n     require(msg.value == products[_productId].price * quantity + shippingAndHandling);\n      // keeping track of balance of a shop. shop owner can then send that value to their account\n     shopBalances[products[_productId].shopId] += msg.value;\n     // return products[_productId].price * quantity + shippingAndHandling;\n  }\n  \n  function moveShopBalanceToOwner (uint _shopId) public payable {\n      shops[_shopId].owner.transfer(shopBalances[_shopId]);\n      shopBalances[_shopId] = 0; // after the money has been transfered over, make balance 0 again\n  }\n\n  function doesOwnerHaveShops () public view returns(bool, uint) {\n      if(shopIds[msg.sender].length > 0) {\n          return(true,  shopIds[msg.sender].length);\n      } else {\n          return(false, 0);\n      }\n  }\n  \n  function doesShopHaveProducts (uint shopId) public view returns(bool, uint) {\n      if(productIds[shopId].length > 0) {\n          return(true,  productIds[shopId].length);\n      } else {\n          return(false, 0);\n      }\n  }\n  \n  function testBalance () public view returns (uint) {\n      return this.balance;\n  }\n\n  function becomeAdmin() public returns (bool) {\n      users[msg.sender] = \"admin\";\n  }\n  \n  function becomeShopOwner() public returns (bool) {\n      users[msg.sender] = \"owner\";\n  }\n  \n  function set(uint x) public {\n    storedData = x;\n  }\n\n  function get() public view returns (uint) {\n    return storedData;\n  }\n}\n",
  "sourcePath": "/Users/akulak/repos/eth_kulaksMarketplace/contracts/KulaksMarketplace.sol",
  "compiler": {
    "name": "solc",
    "version": "0.4.24+commit.e67f0147.Emscripten.clang"
  },
  "schemaVersion": "2.0.0",
  "updatedAt": "2018-08-08T02:50:30.915Z"
}