{
  "contractName": "KulaksMarketplace",
  "abi": [
    {
      "constant": true,
      "inputs": [
        {
          "name": "",
          "type": "address"
        },
        {
          "name": "",
          "type": "uint256"
        }
      ],
      "name": "storeIds",
      "outputs": [
        {
          "name": "",
          "type": "uint256"
        }
      ],
      "payable": false,
      "stateMutability": "view",
      "type": "function"
    },
    {
      "constant": true,
      "inputs": [
        {
          "name": "",
          "type": "address"
        }
      ],
      "name": "admins",
      "outputs": [
        {
          "name": "",
          "type": "bool"
        }
      ],
      "payable": false,
      "stateMutability": "view",
      "type": "function"
    },
    {
      "constant": true,
      "inputs": [
        {
          "name": "",
          "type": "uint256"
        },
        {
          "name": "",
          "type": "uint256"
        }
      ],
      "name": "productIds",
      "outputs": [
        {
          "name": "",
          "type": "uint256"
        }
      ],
      "payable": false,
      "stateMutability": "view",
      "type": "function"
    },
    {
      "constant": true,
      "inputs": [
        {
          "name": "",
          "type": "address"
        }
      ],
      "name": "shopOwners",
      "outputs": [
        {
          "name": "",
          "type": "bool"
        }
      ],
      "payable": false,
      "stateMutability": "view",
      "type": "function"
    },
    {
      "constant": true,
      "inputs": [
        {
          "name": "",
          "type": "uint256"
        }
      ],
      "name": "storeProducts",
      "outputs": [
        {
          "name": "id",
          "type": "uint256"
        },
        {
          "name": "name",
          "type": "string"
        },
        {
          "name": "description",
          "type": "string"
        },
        {
          "name": "price",
          "type": "uint256"
        },
        {
          "name": "storeId",
          "type": "uint256"
        }
      ],
      "payable": false,
      "stateMutability": "view",
      "type": "function"
    },
    {
      "constant": true,
      "inputs": [
        {
          "name": "",
          "type": "uint256"
        }
      ],
      "name": "stores",
      "outputs": [
        {
          "name": "id",
          "type": "uint256"
        },
        {
          "name": "name",
          "type": "string"
        },
        {
          "name": "storeType",
          "type": "string"
        },
        {
          "name": "description",
          "type": "string"
        },
        {
          "name": "owner",
          "type": "address"
        }
      ],
      "payable": false,
      "stateMutability": "view",
      "type": "function"
    },
    {
      "inputs": [],
      "payable": true,
      "stateMutability": "payable",
      "type": "constructor"
    },
    {
      "constant": false,
      "inputs": [
        {
          "name": "_name",
          "type": "string"
        },
        {
          "name": "_storeType",
          "type": "string"
        },
        {
          "name": "_description",
          "type": "string"
        }
      ],
      "name": "createStore",
      "outputs": [],
      "payable": false,
      "stateMutability": "nonpayable",
      "type": "function"
    },
    {
      "constant": false,
      "inputs": [
        {
          "name": "_storeId",
          "type": "uint256"
        },
        {
          "name": "_name",
          "type": "string"
        },
        {
          "name": "_description",
          "type": "string"
        },
        {
          "name": "_price",
          "type": "uint256"
        }
      ],
      "name": "createProduct",
      "outputs": [],
      "payable": false,
      "stateMutability": "nonpayable",
      "type": "function"
    },
    {
      "constant": true,
      "inputs": [],
      "name": "doesOwnerHaveStores",
      "outputs": [
        {
          "name": "",
          "type": "bool"
        },
        {
          "name": "",
          "type": "uint256"
        }
      ],
      "payable": false,
      "stateMutability": "view",
      "type": "function"
    },
    {
      "constant": true,
      "inputs": [
        {
          "name": "id",
          "type": "uint256"
        }
      ],
      "name": "getStoreIdByOrder",
      "outputs": [
        {
          "name": "",
          "type": "bool"
        },
        {
          "name": "",
          "type": "uint256"
        }
      ],
      "payable": false,
      "stateMutability": "view",
      "type": "function"
    },
    {
      "constant": true,
      "inputs": [
        {
          "name": "id",
          "type": "uint256"
        }
      ],
      "name": "getStoreInfo",
      "outputs": [
        {
          "name": "",
          "type": "string"
        },
        {
          "name": "",
          "type": "string"
        },
        {
          "name": "",
          "type": "string"
        },
        {
          "name": "",
          "type": "address"
        }
      ],
      "payable": false,
      "stateMutability": "view",
      "type": "function"
    },
    {
      "constant": true,
      "inputs": [
        {
          "name": "id",
          "type": "uint256"
        }
      ],
      "name": "getStoreByOwner",
      "outputs": [
        {
          "name": "",
          "type": "string"
        },
        {
          "name": "",
          "type": "string"
        },
        {
          "name": "",
          "type": "string"
        },
        {
          "name": "",
          "type": "address"
        }
      ],
      "payable": false,
      "stateMutability": "view",
      "type": "function"
    },
    {
      "constant": false,
      "inputs": [
        {
          "name": "userAddress",
          "type": "address"
        }
      ],
      "name": "sendValueTest",
      "outputs": [],
      "payable": true,
      "stateMutability": "payable",
      "type": "function"
    },
    {
      "constant": true,
      "inputs": [],
      "name": "testSender",
      "outputs": [
        {
          "name": "",
          "type": "address"
        }
      ],
      "payable": false,
      "stateMutability": "view",
      "type": "function"
    },
    {
      "constant": true,
      "inputs": [],
      "name": "testBalance",
      "outputs": [
        {
          "name": "",
          "type": "uint256"
        }
      ],
      "payable": false,
      "stateMutability": "view",
      "type": "function"
    },
    {
      "constant": false,
      "inputs": [
        {
          "name": "adminAddress",
          "type": "address"
        }
      ],
      "name": "becomeAdmin",
      "outputs": [
        {
          "name": "",
          "type": "bool"
        }
      ],
      "payable": false,
      "stateMutability": "nonpayable",
      "type": "function"
    },
    {
      "constant": false,
      "inputs": [
        {
          "name": "ownerAddress",
          "type": "address"
        }
      ],
      "name": "becomeShopOwner",
      "outputs": [
        {
          "name": "",
          "type": "bool"
        }
      ],
      "payable": false,
      "stateMutability": "nonpayable",
      "type": "function"
    },
    {
      "constant": true,
      "inputs": [
        {
          "name": "checkAddress",
          "type": "address"
        }
      ],
      "name": "checkIfUserAdmin",
      "outputs": [
        {
          "name": "",
          "type": "bool"
        }
      ],
      "payable": false,
      "stateMutability": "view",
      "type": "function"
    },
    {
      "constant": true,
      "inputs": [
        {
          "name": "checkAddress",
          "type": "address"
        }
      ],
      "name": "checkIfUserShopOwner",
      "outputs": [
        {
          "name": "",
          "type": "bool"
        }
      ],
      "payable": false,
      "stateMutability": "view",
      "type": "function"
    },
    {
      "constant": false,
      "inputs": [
        {
          "name": "x",
          "type": "uint256"
        }
      ],
      "name": "set",
      "outputs": [],
      "payable": false,
      "stateMutability": "nonpayable",
      "type": "function"
    },
    {
      "constant": true,
      "inputs": [],
      "name": "get",
      "outputs": [
        {
          "name": "",
          "type": "uint256"
        }
      ],
      "payable": false,
      "stateMutability": "view",
      "type": "function"
    }
  ],
  "bytecode": "0x6080604052600160028190555060016000819055506001600381905550611e3f8061002b6000396000f30060806040526004361061011d576000357c0100000000000000000000000000000000000000000000000000000000900463ffffffff16806309c7a53a1461012257806313ba60361461017d578063284754871461032e578063306368d21461038f578063429b62e51461048457806350b6b264146104df57806360fe47b1146106905780636a561cb8146106bd5780636d4ce63c1461071457806374e25e781461073f57806384ef8b0f1461080257806385add65e1461084e578063975bb52f146108a9578063a36a2587146108f4578063c4a8a96d1461092a578063e36fe83014610985578063e768c93c14610aac578063e8a59cd814610b07578063edede60114610cbf578063f88f207314610cea578063ff8010bb14610d20575b600080fd5b34801561012e57600080fd5b50610163600480360381019080803573ffffffffffffffffffffffffffffffffffffffff169060200190929190505050610d7b565b604051808215151515815260200191505060405180910390f35b34801561018957600080fd5b506101a860048036038101908080359060200190929190505050610de9565b604051808060200180602001806020018573ffffffffffffffffffffffffffffffffffffffff1673ffffffffffffffffffffffffffffffffffffffff168152602001848103845288818151815260200191508051906020019080838360005b83811015610222578082015181840152602081019050610207565b50505050905090810190601f16801561024f5780820380516001836020036101000a031916815260200191505b50848103835287818151815260200191508051906020019080838360005b8381101561028857808201518184015260208101905061026d565b50505050905090810190601f1680156102b55780820380516001836020036101000a031916815260200191505b50848103825286818151815260200191508051906020019080838360005b838110156102ee5780820151818401526020810190506102d3565b50505050905090810190601f16801561031b5780820380516001836020036101000a031916815260200191505b5097505050505050505060405180910390f35b34801561033a57600080fd5b50610379600480360381019080803573ffffffffffffffffffffffffffffffffffffffff1690602001909291908035906020019092919050505061104c565b6040518082815260200191505060405180910390f35b34801561039b57600080fd5b50610482600480360381019080803590602001908201803590602001908080601f0160208091040260200160405190810160405280939291908181526020018383808284378201915050505050509192919290803590602001908201803590602001908080601f0160208091040260200160405190810160405280939291908181526020018383808284378201915050505050509192919290803590602001908201803590602001908080601f016020809104026020016040519081016040528093929190818152602001838380828437820191505050505050919291929050505061107c565b005b34801561049057600080fd5b506104c5600480360381019080803573ffffffffffffffffffffffffffffffffffffffff16906020019092919050505061120c565b604051808215151515815260200191505060405180910390f35b3480156104eb57600080fd5b5061050a6004803603810190808035906020019092919050505061122c565b604051808060200180602001806020018573ffffffffffffffffffffffffffffffffffffffff1673ffffffffffffffffffffffffffffffffffffffff168152602001848103845288818151815260200191508051906020019080838360005b83811015610584578082015181840152602081019050610569565b50505050905090810190601f1680156105b15780820380516001836020036101000a031916815260200191505b50848103835287818151815260200191508051906020019080838360005b838110156105ea5780820151818401526020810190506105cf565b50505050905090810190601f1680156106175780820380516001836020036101000a031916815260200191505b50848103825286818151815260200191508051906020019080838360005b83811015610650578082015181840152602081019050610635565b50505050905090810190601f16801561067d5780820380516001836020036101000a031916815260200191505b5097505050505050505060405180910390f35b34801561069c57600080fd5b506106bb6004803603810190808035906020019092919050505061148f565b005b3480156106c957600080fd5b506106d2611499565b604051808273ffffffffffffffffffffffffffffffffffffffff1673ffffffffffffffffffffffffffffffffffffffff16815260200191505060405180910390f35b34801561072057600080fd5b506107296114a1565b6040518082815260200191505060405180910390f35b34801561074b57600080fd5b5061080060048036038101908080359060200190929190803590602001908201803590602001908080601f0160208091040260200160405190810160405280939291908181526020018383808284378201915050505050509192919290803590602001908201803590602001908080601f0160208091040260200160405190810160405280939291908181526020018383808284378201915050505050509192919290803590602001909291905050506114ab565b005b34801561080e57600080fd5b5061082d60048036038101908080359060200190929190505050611608565b60405180831515151581526020018281526020019250505060405180910390f35b34801561085a57600080fd5b5061088f600480360381019080803573ffffffffffffffffffffffffffffffffffffffff1690602001909291905050506116dc565b604051808215151515815260200191505060405180910390f35b3480156108b557600080fd5b506108de600480360381019080803590602001909291908035906020019092919050505061173b565b6040518082815260200191505060405180910390f35b610928600480360381019080803573ffffffffffffffffffffffffffffffffffffffff16906020019092919050505061176b565b005b34801561093657600080fd5b5061096b600480360381019080803573ffffffffffffffffffffffffffffffffffffffff1690602001909291905050506117bd565b604051808215151515815260200191505060405180910390f35b34801561099157600080fd5b506109b0600480360381019080803590602001909291905050506117dd565b604051808681526020018060200180602001858152602001848152602001838103835287818151815260200191508051906020019080838360005b83811015610a065780820151818401526020810190506109eb565b50505050905090810190601f168015610a335780820380516001836020036101000a031916815260200191505b50838103825286818151815260200191508051906020019080838360005b83811015610a6c578082015181840152602081019050610a51565b50505050905090810190601f168015610a995780820380516001836020036101000a031916815260200191505b5097505050505050505060405180910390f35b348015610ab857600080fd5b50610aed600480360381019080803573ffffffffffffffffffffffffffffffffffffffff169060200190929190505050611943565b604051808215151515815260200191505060405180910390f35b348015610b1357600080fd5b50610b32600480360381019080803590602001909291905050506119a2565b604051808681526020018060200180602001806020018573ffffffffffffffffffffffffffffffffffffffff1673ffffffffffffffffffffffffffffffffffffffff168152602001848103845288818151815260200191508051906020019080838360005b83811015610bb2578082015181840152602081019050610b97565b50505050905090810190601f168015610bdf5780820380516001836020036101000a031916815260200191505b50848103835287818151815260200191508051906020019080838360005b83811015610c18578082015181840152602081019050610bfd565b50505050905090810190601f168015610c455780820380516001836020036101000a031916815260200191505b50848103825286818151815260200191508051906020019080838360005b83811015610c7e578082015181840152602081019050610c63565b50505050905090810190601f168015610cab5780820380516001836020036101000a031916815260200191505b509850505050505050505060405180910390f35b348015610ccb57600080fd5b50610cd4611bc0565b6040518082815260200191505060405180910390f35b348015610cf657600080fd5b50610cff611bdf565b60405180831515151581526020018281526020019250505060405180910390f35b348015610d2c57600080fd5b50610d61600480360381019080803573ffffffffffffffffffffffffffffffffffffffff169060200190929190505050611c8a565b604051808215151515815260200191505060405180910390f35b600060011515600560008473ffffffffffffffffffffffffffffffffffffffff1673ffffffffffffffffffffffffffffffffffffffff16815260200190815260200160002060009054906101000a900460ff1615151415610ddf5760019050610de4565b600090505b919050565b606080606060006006600086815260200190815260200160002060010160066000878152602001908152602001600020600301600660008881526020019081526020016000206002016006600089815260200190815260200160002060040160009054906101000a900473ffffffffffffffffffffffffffffffffffffffff16838054600181600116156101000203166002900480601f016020809104026020016040519081016040528092919081815260200182805460018160011615610100020316600290048015610efe5780601f10610ed357610100808354040283529160200191610efe565b820191906000526020600020905b815481529060010190602001808311610ee157829003601f168201915b50505050509350828054600181600116156101000203166002900480601f016020809104026020016040519081016040528092919081815260200182805460018160011615610100020316600290048015610f9a5780601f10610f6f57610100808354040283529160200191610f9a565b820191906000526020600020905b815481529060010190602001808311610f7d57829003601f168201915b50505050509250818054600181600116156101000203166002900480601f0160208091040260200160405190810160405280929190818152602001828054600181600116156101000203166002900480156110365780601f1061100b57610100808354040283529160200191611036565b820191906000526020600020905b81548152906001019060200180831161101957829003601f168201915b5050505050915093509350935093509193509193565b60076020528160005260406000208181548110151561106757fe5b90600052602060002001600091509150505481565b6000611086611cf8565b600254915060a0604051908101604052808381526020018681526020018581526020018481526020013373ffffffffffffffffffffffffffffffffffffffff1681525090508060066000848152602001908152602001600020600082015181600001556020820151816001019080519060200190611105929190611d3e565b506040820151816002019080519060200190611122929190611d3e565b50606082015181600301908051906020019061113f929190611d3e565b5060808201518160040160006101000a81548173ffffffffffffffffffffffffffffffffffffffff021916908373ffffffffffffffffffffffffffffffffffffffff160217905550905050600760003373ffffffffffffffffffffffffffffffffffffffff1673ffffffffffffffffffffffffffffffffffffffff1681526020019081526020016000208290806001815401808255809150509060018203906000526020600020016000909192909190915055506002600081548092919060010191905055505050505050565b60046020528060005260406000206000915054906101000a900460ff1681565b606080606060006006600086815260200190815260200160002060010160066000878152602001908152602001600020600301600660008881526020019081526020016000206002016006600089815260200190815260200160002060040160009054906101000a900473ffffffffffffffffffffffffffffffffffffffff16838054600181600116156101000203166002900480601f0160208091040260200160405190810160405280929190818152602001828054600181600116156101000203166002900480156113415780601f1061131657610100808354040283529160200191611341565b820191906000526020600020905b81548152906001019060200180831161132457829003601f168201915b50505050509350828054600181600116156101000203166002900480601f0160208091040260200160405190810160405280929190818152602001828054600181600116156101000203166002900480156113dd5780601f106113b2576101008083540402835291602001916113dd565b820191906000526020600020905b8154815290600101906020018083116113c057829003601f168201915b50505050509250818054600181600116156101000203166002900480601f0160208091040260200160405190810160405280929190818152602001828054600181600116156101000203166002900480156114795780601f1061144e57610100808354040283529160200191611479565b820191906000526020600020905b81548152906001019060200180831161145c57829003601f168201915b5050505050915093509350935093509193509193565b8060018190555050565b600033905090565b6000600154905090565b60006114b5611dbe565b60011515600560003373ffffffffffffffffffffffffffffffffffffffff1673ffffffffffffffffffffffffffffffffffffffff16815260200190815260200160002060009054906101000a900460ff16151514151561151457600080fd5b600054915060a06040519081016040528083815260200186815260200185815260200184815260200187815250905080600a600084815260200190815260200160002060008201518160000155602082015181600101908051906020019061157d929190611d3e565b50604082015181600201908051906020019061159a929190611d3e565b506060820151816003015560808201518160040155905050600860008781526020019081526020016000208290806001815401808255809150509060018203906000526020600020016000909192909190915055506000808154809291906001019190505550505050505050565b6000806000600760003373ffffffffffffffffffffffffffffffffffffffff1673ffffffffffffffffffffffffffffffffffffffff1681526020019081526020016000208481548110151561165957fe5b906000526020600020015411156116cc576001600760003373ffffffffffffffffffffffffffffffffffffffff1673ffffffffffffffffffffffffffffffffffffffff168152602001908152602001600020848154811015156116b857fe5b9060005260206000200154915091506116d7565b600080809050915091505b915091565b60006001600560008473ffffffffffffffffffffffffffffffffffffffff1673ffffffffffffffffffffffffffffffffffffffff16815260200190815260200160002060006101000a81548160ff021916908315150217905550919050565b60086020528160005260406000208181548110151561175657fe5b90600052602060002001600091509150505481565b8073ffffffffffffffffffffffffffffffffffffffff166108fc670de0b6b3a76400009081150290604051600060405180830381858888f193505050501580156117b9573d6000803e3d6000fd5b5050565b60056020528060005260406000206000915054906101000a900460ff1681565b600a602052806000526040600020600091509050806000015490806001018054600181600116156101000203166002900480601f01602080910402602001604051908101604052809291908181526020018280546001816001161561010002031660029004801561188f5780601f106118645761010080835404028352916020019161188f565b820191906000526020600020905b81548152906001019060200180831161187257829003601f168201915b505050505090806002018054600181600116156101000203166002900480601f01602080910402602001604051908101604052809291908181526020018280546001816001161561010002031660029004801561192d5780601f106119025761010080835404028352916020019161192d565b820191906000526020600020905b81548152906001019060200180831161191057829003601f168201915b5050505050908060030154908060040154905085565b60006001600460008473ffffffffffffffffffffffffffffffffffffffff1673ffffffffffffffffffffffffffffffffffffffff16815260200190815260200160002060006101000a81548160ff021916908315150217905550919050565b6006602052806000526040600020600091509050806000015490806001018054600181600116156101000203166002900480601f016020809104026020016040519081016040528092919081815260200182805460018160011615610100020316600290048015611a545780601f10611a2957610100808354040283529160200191611a54565b820191906000526020600020905b815481529060010190602001808311611a3757829003601f168201915b505050505090806002018054600181600116156101000203166002900480601f016020809104026020016040519081016040528092919081815260200182805460018160011615610100020316600290048015611af25780601f10611ac757610100808354040283529160200191611af2565b820191906000526020600020905b815481529060010190602001808311611ad557829003601f168201915b505050505090806003018054600181600116156101000203166002900480601f016020809104026020016040519081016040528092919081815260200182805460018160011615610100020316600290048015611b905780601f10611b6557610100808354040283529160200191611b90565b820191906000526020600020905b815481529060010190602001808311611b7357829003601f168201915b5050505050908060040160009054906101000a900473ffffffffffffffffffffffffffffffffffffffff16905085565b60003073ffffffffffffffffffffffffffffffffffffffff1631905090565b6000806000600760003373ffffffffffffffffffffffffffffffffffffffff1673ffffffffffffffffffffffffffffffffffffffff168152602001908152602001600020805490501115611c7b576001600760003373ffffffffffffffffffffffffffffffffffffffff1673ffffffffffffffffffffffffffffffffffffffff1681526020019081526020016000208054905091509150611c86565b600080809050915091505b9091565b600060011515600460008473ffffffffffffffffffffffffffffffffffffffff1673ffffffffffffffffffffffffffffffffffffffff16815260200190815260200160002060009054906101000a900460ff1615151415611cee5760019050611cf3565b600090505b919050565b60a06040519081016040528060008152602001606081526020016060815260200160608152602001600073ffffffffffffffffffffffffffffffffffffffff1681525090565b828054600181600116156101000203166002900490600052602060002090601f016020900481019282601f10611d7f57805160ff1916838001178555611dad565b82800160010185558215611dad579182015b82811115611dac578251825591602001919060010190611d91565b5b509050611dba9190611dee565b5090565b60a06040519081016040528060008152602001606081526020016060815260200160008152602001600081525090565b611e1091905b80821115611e0c576000816000905550600101611df4565b5090565b905600a165627a7a723058209ba6a05e8bf79c255afb40d10250a9cc4b26a3ec6381efc912bb6c7380e327cb0029",
  "source": "pragma solidity ^0.4.17;\n\ncontract KulaksMarketplace {\n  struct Product {\n    uint id;\n    string name;\n    string description;\n    uint price;\n    uint storeId;\n    \n  }\n  struct PurchaseTransaction {\n      address purchasedBy;\n      uint[] products;\n      uint subtotal;\n      uint shippingAndHandling;\n      uint totalCost;\n  }\n  struct Store {\n    uint id;\n    string name;\n    string storeType;\n    string description;\n    address owner;\n  }\n  \n  constructor () public payable {\n      storeCount = 1;\n      productCount = 1;\n      transactionCount = 1;\n  }\n  uint productCount;\n  uint storedData;\n  uint storeCount;\n  uint transactionCount;\n  mapping(address => bool) public admins; // enter an address to confirm if it's an admin\n  mapping(address => bool) public shopOwners; // enter an address to confirm if it's an shopOwner\n  mapping(uint => Store) public stores; // enter storeId to get info about the store\n  mapping(address => uint[]) public storeIds; // enter an address to get an array of creates stores for the particular shopOwner\n  mapping(uint => uint[]) public productIds; // enter a storeId to get an array of created products for the particular store\n  address[] private storeOwners;\n  mapping(uint => Product) public storeProducts;\n  \n  modifier shopOwnerOnly() {\n    require(shopOwners[msg.sender] == true);\n    _;\n  }\n  \n  modifier adminOnly() {\n    require(shopOwners[msg.sender] == true);\n    _;\n  }\n  \n  \n  function createStore(string _name, string _storeType, string _description) public {\n     uint id = storeCount;\n     \n     Store memory newStore = Store({\n       id: id,\n       name: _name,\n       description: _description,\n       storeType: _storeType,\n       owner: msg.sender\n     });\n\n      // need to add a\n     stores[id] = newStore;\n     \n     storeIds[msg.sender].push(id);\n     // increment counter by 1 since you are using it for id's for stores as well\n    storeCount++;\n    // stores.push(newStore);\n  }\n  \n  \n  function createProduct(uint _storeId, string _name, string _description, uint _price) public shopOwnerOnly {\n     uint id = productCount;\n     \n     Product memory newProduct = Product({\n       id: id,\n       storeId: _storeId,\n       name: _name,\n       description: _description,\n       price: _price\n     });\n     \n     storeProducts[id] = newProduct; // adding a product to storeProducts mapping\n     productIds[_storeId].push(id); // pushing the product id to be refernced in the store struct\n     productCount ++;\n    \n  }\n  \n  function doesOwnerHaveStores () public view returns(bool, uint) {\n      if(storeIds[msg.sender].length > 0) {\n          return(true,  storeIds[msg.sender].length);\n      } else {\n          return(false, 0);\n      }\n  }\n  \n  function getStoreIdByOrder (uint id) public view returns(bool, uint) {\n      if(storeIds[msg.sender][id] > 0) {\n          return(true, storeIds[msg.sender][id]);\n      } else {\n          return(false, 0);\n      }\n  }\n  \n  function getStoreInfo (uint id) public view returns(string, string, string, address) {\n      return(\n        stores[id].name,\n        stores[id].description,\n        stores[id].storeType,\n        stores[id].owner\n      );\n  }\n  \n  // function getStoreByOwner() public view returns(string, string, string, address) {\n  function getStoreByOwner(uint id) public view returns(string, string, string, address) {\n     return (\n        stores[id].name,\n        stores[id].description,\n        stores[id].storeType,\n        stores[id].owner\n     );\n  }\n  \n  function sendValueTest(address userAddress) public payable {\n      userAddress.transfer(1 ether);\n  }\n  \n  function testSender () public view returns (address) {\n      return msg.sender;\n  }\n  \n  \n  function testBalance () public view returns (uint) {\n      return this.balance;\n  }\n\n  function becomeAdmin(address adminAddress) public returns (bool) {\n      admins[adminAddress] = true;\n  }\n  \n  function becomeShopOwner(address ownerAddress) public returns (bool) {\n      shopOwners[ownerAddress] = true;\n  }\n  \n  \n  function checkIfUserAdmin (address checkAddress) public view returns (bool) {\n      if(admins[checkAddress] == true) {\n          return true;\n      } else {\n          return false;\n      }\n  }\n  \n  function checkIfUserShopOwner (address checkAddress) public view returns (bool) {\n      if(shopOwners[checkAddress] == true) {\n          return true;\n      } else {\n          return false;\n      }\n  }\n  \n  function set(uint x) public {\n    storedData = x;\n  }\n\n  function get() public view returns (uint) {\n    return storedData;\n  }\n}",
  "sourcePath": "/Users/akulak/repos/eth_kulaksMarketplace/contracts/KulaksMarketplace.sol",
  "compiler": {
    "name": "solc",
    "version": "0.4.24+commit.e67f0147.Emscripten.clang"
  },
  "schemaVersion": "2.0.0",
  "updatedAt": "2018-07-17T20:41:27.051Z"
}