{
  "contractName": "KulaksMarketplace",
  "abi": [
    {
      "constant": true,
      "inputs": [],
      "name": "creator",
      "outputs": [
        {
          "name": "",
          "type": "address"
        }
      ],
      "payable": false,
      "stateMutability": "view",
      "type": "function"
    },
    {
      "constant": true,
      "inputs": [
        {
          "name": "",
          "type": "address"
        },
        {
          "name": "",
          "type": "uint256"
        }
      ],
      "name": "shopIds",
      "outputs": [
        {
          "name": "",
          "type": "uint256"
        }
      ],
      "payable": false,
      "stateMutability": "view",
      "type": "function"
    },
    {
      "constant": true,
      "inputs": [
        {
          "name": "",
          "type": "uint256"
        }
      ],
      "name": "shopsList",
      "outputs": [
        {
          "name": "",
          "type": "uint256"
        }
      ],
      "payable": false,
      "stateMutability": "view",
      "type": "function"
    },
    {
      "constant": true,
      "inputs": [
        {
          "name": "",
          "type": "uint256"
        }
      ],
      "name": "usersList",
      "outputs": [
        {
          "name": "",
          "type": "address"
        }
      ],
      "payable": false,
      "stateMutability": "view",
      "type": "function"
    },
    {
      "constant": true,
      "inputs": [
        {
          "name": "",
          "type": "uint256"
        }
      ],
      "name": "shops",
      "outputs": [
        {
          "name": "id",
          "type": "uint256"
        },
        {
          "name": "name",
          "type": "string"
        },
        {
          "name": "shopType",
          "type": "string"
        },
        {
          "name": "description",
          "type": "string"
        },
        {
          "name": "owner",
          "type": "address"
        }
      ],
      "payable": false,
      "stateMutability": "view",
      "type": "function"
    },
    {
      "constant": true,
      "inputs": [
        {
          "name": "",
          "type": "uint256"
        }
      ],
      "name": "products",
      "outputs": [
        {
          "name": "id",
          "type": "uint256"
        },
        {
          "name": "name",
          "type": "string"
        },
        {
          "name": "description",
          "type": "string"
        },
        {
          "name": "price",
          "type": "uint256"
        },
        {
          "name": "shopId",
          "type": "uint256"
        }
      ],
      "payable": false,
      "stateMutability": "view",
      "type": "function"
    },
    {
      "constant": true,
      "inputs": [
        {
          "name": "",
          "type": "uint256"
        },
        {
          "name": "",
          "type": "uint256"
        }
      ],
      "name": "productIds",
      "outputs": [
        {
          "name": "",
          "type": "uint256"
        }
      ],
      "payable": false,
      "stateMutability": "view",
      "type": "function"
    },
    {
      "constant": true,
      "inputs": [
        {
          "name": "",
          "type": "address"
        }
      ],
      "name": "users",
      "outputs": [
        {
          "name": "",
          "type": "string"
        }
      ],
      "payable": false,
      "stateMutability": "view",
      "type": "function"
    },
    {
      "constant": true,
      "inputs": [
        {
          "name": "",
          "type": "uint256"
        }
      ],
      "name": "shopBalances",
      "outputs": [
        {
          "name": "",
          "type": "uint256"
        }
      ],
      "payable": false,
      "stateMutability": "view",
      "type": "function"
    },
    {
      "inputs": [],
      "payable": true,
      "stateMutability": "payable",
      "type": "constructor"
    },
    {
      "constant": true,
      "inputs": [
        {
          "name": "_shopId",
          "type": "uint256"
        }
      ],
      "name": "test123",
      "outputs": [
        {
          "name": "",
          "type": "uint256"
        }
      ],
      "payable": false,
      "stateMutability": "view",
      "type": "function"
    },
    {
      "constant": false,
      "inputs": [
        {
          "name": "_addr",
          "type": "address"
        }
      ],
      "name": "makeShopOwner",
      "outputs": [],
      "payable": false,
      "stateMutability": "nonpayable",
      "type": "function"
    },
    {
      "constant": false,
      "inputs": [
        {
          "name": "_addr",
          "type": "address"
        }
      ],
      "name": "makeAdmin",
      "outputs": [],
      "payable": false,
      "stateMutability": "nonpayable",
      "type": "function"
    },
    {
      "constant": false,
      "inputs": [
        {
          "name": "_addr",
          "type": "address"
        }
      ],
      "name": "makeShopper",
      "outputs": [],
      "payable": false,
      "stateMutability": "nonpayable",
      "type": "function"
    },
    {
      "constant": true,
      "inputs": [],
      "name": "getUsersListLength",
      "outputs": [
        {
          "name": "",
          "type": "uint256"
        }
      ],
      "payable": false,
      "stateMutability": "view",
      "type": "function"
    },
    {
      "constant": true,
      "inputs": [],
      "name": "getShopsListLength",
      "outputs": [
        {
          "name": "",
          "type": "uint256"
        }
      ],
      "payable": false,
      "stateMutability": "view",
      "type": "function"
    },
    {
      "constant": false,
      "inputs": [
        {
          "name": "_name",
          "type": "string"
        },
        {
          "name": "_shopType",
          "type": "string"
        },
        {
          "name": "_description",
          "type": "string"
        }
      ],
      "name": "createShop",
      "outputs": [],
      "payable": false,
      "stateMutability": "nonpayable",
      "type": "function"
    },
    {
      "constant": false,
      "inputs": [
        {
          "name": "_shopId",
          "type": "uint256"
        },
        {
          "name": "_name",
          "type": "string"
        },
        {
          "name": "_description",
          "type": "string"
        },
        {
          "name": "_price",
          "type": "uint256"
        }
      ],
      "name": "createProduct",
      "outputs": [],
      "payable": false,
      "stateMutability": "nonpayable",
      "type": "function"
    },
    {
      "constant": false,
      "inputs": [
        {
          "name": "_productId",
          "type": "uint256"
        },
        {
          "name": "quantity",
          "type": "uint256"
        }
      ],
      "name": "purchaseProduct",
      "outputs": [],
      "payable": true,
      "stateMutability": "payable",
      "type": "function"
    },
    {
      "constant": false,
      "inputs": [
        {
          "name": "_shopId",
          "type": "uint256"
        }
      ],
      "name": "moveShopBalanceToOwner",
      "outputs": [],
      "payable": true,
      "stateMutability": "payable",
      "type": "function"
    },
    {
      "constant": true,
      "inputs": [],
      "name": "doesOwnerHaveShops",
      "outputs": [
        {
          "name": "",
          "type": "bool"
        },
        {
          "name": "",
          "type": "uint256"
        }
      ],
      "payable": false,
      "stateMutability": "view",
      "type": "function"
    },
    {
      "constant": true,
      "inputs": [
        {
          "name": "shopId",
          "type": "uint256"
        }
      ],
      "name": "doesShopHaveProducts",
      "outputs": [
        {
          "name": "",
          "type": "bool"
        },
        {
          "name": "",
          "type": "uint256"
        }
      ],
      "payable": false,
      "stateMutability": "view",
      "type": "function"
    },
    {
      "constant": true,
      "inputs": [],
      "name": "testBalance",
      "outputs": [
        {
          "name": "",
          "type": "uint256"
        }
      ],
      "payable": false,
      "stateMutability": "view",
      "type": "function"
    },
    {
      "constant": false,
      "inputs": [],
      "name": "becomeAdmin",
      "outputs": [
        {
          "name": "",
          "type": "bool"
        }
      ],
      "payable": false,
      "stateMutability": "nonpayable",
      "type": "function"
    },
    {
      "constant": false,
      "inputs": [],
      "name": "becomeRegularUser",
      "outputs": [
        {
          "name": "",
          "type": "bool"
        }
      ],
      "payable": false,
      "stateMutability": "nonpayable",
      "type": "function"
    },
    {
      "constant": false,
      "inputs": [],
      "name": "becomeShopOwner",
      "outputs": [
        {
          "name": "",
          "type": "bool"
        }
      ],
      "payable": false,
      "stateMutability": "nonpayable",
      "type": "function"
    },
    {
      "constant": false,
      "inputs": [
        {
          "name": "x",
          "type": "uint256"
        }
      ],
      "name": "set",
      "outputs": [],
      "payable": false,
      "stateMutability": "nonpayable",
      "type": "function"
    },
    {
      "constant": true,
      "inputs": [],
      "name": "get",
      "outputs": [
        {
          "name": "",
          "type": "uint256"
        }
      ],
      "payable": false,
      "stateMutability": "view",
      "type": "function"
    }
  ],
  "bytecode": "0x60806040526014600455600160038190555060018081905550336000806101000a81548173ffffffffffffffffffffffffffffffffffffffff021916908373ffffffffffffffffffffffffffffffffffffffff1602179055506131fe806100676000396000f30060806040526004361061015f576000357c0100000000000000000000000000000000000000000000000000000000900463ffffffff16806302d05d3f14610164578063035f4543146101bb57806314d52dd51461021c578063167a09d6146102475780631f0777a71461027657806325971dff146102965780632989d87f146102c55780632bdbd18914610306578063472905ca14610349578063502aa3b51461038c57806356117b73146103f95780635c1db0491461042f57806360fe47b11461045a5780636c6b5acd146104875780636d4ce63c146104b6578063713aca74146104e157806374e25e78146106995780637acc0b201461075c5780637ef77e281461088357806392bec5ee146108cf578063975bb52f146109c4578063a044042614610a0f578063a3b6149a14610a39578063a87430ba14610a7a578063ce7c510a14610b36578063e659ebef14610b79578063edede60114610bba575b600080fd5b34801561017057600080fd5b50610179610be5565b604051808273ffffffffffffffffffffffffffffffffffffffff1673ffffffffffffffffffffffffffffffffffffffff16815260200191505060405180910390f35b3480156101c757600080fd5b50610206600480360381019080803573ffffffffffffffffffffffffffffffffffffffff16906020019092919080359060200190929190505050610c0a565b6040518082815260200191505060405180910390f35b34801561022857600080fd5b50610231610c3a565b6040518082815260200191505060405180910390f35b34801561025357600080fd5b5061025c610c47565b604051808215151515815260200191505060405180910390f35b61029460048036038101908080359060200190929190505050610cd5565b005b3480156102a257600080fd5b506102ab611043565b604051808215151515815260200191505060405180910390f35b3480156102d157600080fd5b506102f0600480360381019080803590602001909291905050506110d1565b6040518082815260200191505060405180910390f35b34801561031257600080fd5b50610347600480360381019080803573ffffffffffffffffffffffffffffffffffffffff1690602001909291905050506110f4565b005b34801561035557600080fd5b5061038a600480360381019080803573ffffffffffffffffffffffffffffffffffffffff169060200190929190505050611427565b005b34801561039857600080fd5b506103b76004803603810190808035906020019092919050505061175a565b604051808273ffffffffffffffffffffffffffffffffffffffff1673ffffffffffffffffffffffffffffffffffffffff16815260200191505060405180910390f35b34801561040557600080fd5b5061040e611798565b60405180831515151581526020018281526020019250505060405180910390f35b34801561043b57600080fd5b50610444611a6e565b6040518082815260200191505060405180910390f35b34801561046657600080fd5b5061048560048036038101908080359060200190929190505050611a7b565b005b34801561049357600080fd5b5061049c611a85565b604051808215151515815260200191505060405180910390f35b3480156104c257600080fd5b506104cb611b13565b6040518082815260200191505060405180910390f35b3480156104ed57600080fd5b5061050c60048036038101908080359060200190929190505050611b1d565b604051808681526020018060200180602001806020018573ffffffffffffffffffffffffffffffffffffffff1673ffffffffffffffffffffffffffffffffffffffff168152602001848103845288818151815260200191508051906020019080838360005b8381101561058c578082015181840152602081019050610571565b50505050905090810190601f1680156105b95780820380516001836020036101000a031916815260200191505b50848103835287818151815260200191508051906020019080838360005b838110156105f25780820151818401526020810190506105d7565b50505050905090810190601f16801561061f5780820380516001836020036101000a031916815260200191505b50848103825286818151815260200191508051906020019080838360005b8381101561065857808201518184015260208101905061063d565b50505050905090810190601f1680156106855780820380516001836020036101000a031916815260200191505b509850505050505050505060405180910390f35b3480156106a557600080fd5b5061075a60048036038101908080359060200190929190803590602001908201803590602001908080601f0160208091040260200160405190810160405280939291908181526020018383808284378201915050505050509192919290803590602001908201803590602001908080601f016020809104026020016040519081016040528093929190818152602001838380828437820191505050505050919291929080359060200190929190505050611d3b565b005b34801561076857600080fd5b5061078760048036038101908080359060200190929190505050612065565b604051808681526020018060200180602001858152602001848152602001838103835287818151815260200191508051906020019080838360005b838110156107dd5780820151818401526020810190506107c2565b50505050905090810190601f16801561080a5780820380516001836020036101000a031916815260200191505b50838103825286818151815260200191508051906020019080838360005b83811015610843578082015181840152602081019050610828565b50505050905090810190601f1680156108705780820380516001836020036101000a031916815260200191505b5097505050505050505060405180910390f35b34801561088f57600080fd5b506108ae600480360381019080803590602001909291905050506121cb565b60405180831515151581526020018281526020019250505060405180910390f35b3480156108db57600080fd5b506109c2600480360381019080803590602001908201803590602001908080601f0160208091040260200160405190810160405280939291908181526020018383808284378201915050505050509192919290803590602001908201803590602001908080601f0160208091040260200160405190810160405280939291908181526020018383808284378201915050505050509192919290803590602001908201803590602001908080601f016020809104026020016040519081016040528093929190818152602001838380828437820191505050505050919291929050505061221f565b005b3480156109d057600080fd5b506109f96004803603810190808035906020019092919080359060200190929190505050612606565b6040518082815260200191505060405180910390f35b610a376004803603810190808035906020019092919080359060200190929190505050612636565b005b348015610a4557600080fd5b50610a646004803603810190808035906020019092919050505061269b565b6040518082815260200191505060405180910390f35b348015610a8657600080fd5b50610abb600480360381019080803573ffffffffffffffffffffffffffffffffffffffff1690602001909291905050506126bb565b6040518080602001828103825283818151815260200191508051906020019080838360005b83811015610afb578082015181840152602081019050610ae0565b50505050905090810190601f168015610b285780820380516001836020036101000a031916815260200191505b509250505060405180910390f35b348015610b4257600080fd5b50610b77600480360381019080803573ffffffffffffffffffffffffffffffffffffffff16906020019092919050505061276b565b005b348015610b8557600080fd5b50610ba460048036038101908080359060200190929190505050612a9e565b6040518082815260200191505060405180910390f35b348015610bc657600080fd5b50610bcf612ab6565b6040518082815260200191505060405180910390f35b6000809054906101000a900473ffffffffffffffffffffffffffffffffffffffff1681565b600760205281600052604060002081815481101515610c2557fe5b90600052602060002001600091509150505481565b6000600b80549050905090565b60006040805190810160405280600781526020017f73686f7070657200000000000000000000000000000000000000000000000000815250600c60003373ffffffffffffffffffffffffffffffffffffffff1673ffffffffffffffffffffffffffffffffffffffff1681526020019081526020016000209080519060200190610cd1929190613037565b5090565b8060006006600083815260200190815260200160002060000154111515610cfb57600080fd5b3373ffffffffffffffffffffffffffffffffffffffff166006600083815260200190815260200160002060040160009054906101000a900473ffffffffffffffffffffffffffffffffffffffff1673ffffffffffffffffffffffffffffffffffffffff16141515610d6b57600080fd5b6000600c60003373ffffffffffffffffffffffffffffffffffffffff1673ffffffffffffffffffffffffffffffffffffffff168152602001908152602001600020805460018160011615610100020316600290049050111515610dcd57600080fd5b60405160200180807f6f776e657200000000000000000000000000000000000000000000000000000081525060050190506040516020818303038152906040526040518082805190602001908083835b602083101515610e425780518252602082019150602081019050602083039250610e1d565b6001836020036101000a038019825116818451168082178552505050505050905001915050604051809103902060001916600c60003373ffffffffffffffffffffffffffffffffffffffff1673ffffffffffffffffffffffffffffffffffffffff1681526020019081526020016000206040516020018082805460018160011615610100020316600290048015610f105780601f10610eee576101008083540402835291820191610f10565b820191906000526020600020905b815481529060010190602001808311610efc575b50509150506040516020818303038152906040526040518082805190602001908083835b602083101515610f595780518252602082019150602081019050602083039250610f34565b6001836020036101000a038019825116818451168082178552505050505050905001915050604051809103902060001916141515610f9657600080fd5b6006600083815260200190815260200160002060040160009054906101000a900473ffffffffffffffffffffffffffffffffffffffff1673ffffffffffffffffffffffffffffffffffffffff166108fc60056000858152602001908152602001600020549081150290604051600060405180830381858888f19350505050158015611025573d6000803e3d6000fd5b50600060056000848152602001908152602001600020819055505050565b60006040805190810160405280600581526020017f61646d696e000000000000000000000000000000000000000000000000000000815250600c60003373ffffffffffffffffffffffffffffffffffffffff1673ffffffffffffffffffffffffffffffffffffffff16815260200190815260200160002090805190602001906110cd929190613037565b5090565b600b818154811015156110e057fe5b906000526020600020016000915090505481565b6000600c60003373ffffffffffffffffffffffffffffffffffffffff1673ffffffffffffffffffffffffffffffffffffffff16815260200190815260200160002080546001816001161561010002031660029004905011151561115657600080fd5b60405160200180807f61646d696e00000000000000000000000000000000000000000000000000000081525060050190506040516020818303038152906040526040518082805190602001908083835b6020831015156111cb57805182526020820191506020810190506020830392506111a6565b6001836020036101000a038019825116818451168082178552505050505050905001915050604051809103902060001916600c60003373ffffffffffffffffffffffffffffffffffffffff1673ffffffffffffffffffffffffffffffffffffffff16815260200190815260200160002060405160200180828054600181600116156101000203166002900480156112995780601f10611277576101008083540402835291820191611299565b820191906000526020600020905b815481529060010190602001808311611285575b50509150506040516020818303038152906040526040518082805190602001908083835b6020831015156112e257805182526020820191506020810190506020830392506112bd565b6001836020036101000a03801982511681845116808217855250505050505090500191505060405180910390206000191614151561131f57600080fd5b6000151561132c82612ad5565b1515141561139b57600a8190806001815401808255809150509060018203906000526020600020016000909192909190916101000a81548173ffffffffffffffffffffffffffffffffffffffff021916908373ffffffffffffffffffffffffffffffffffffffff160217905550505b6040805190810160405280600581526020017f6f776e6572000000000000000000000000000000000000000000000000000000815250600c60008373ffffffffffffffffffffffffffffffffffffffff1673ffffffffffffffffffffffffffffffffffffffff1681526020019081526020016000209080519060200190611423929190613037565b5050565b6000600c60003373ffffffffffffffffffffffffffffffffffffffff1673ffffffffffffffffffffffffffffffffffffffff16815260200190815260200160002080546001816001161561010002031660029004905011151561148957600080fd5b60405160200180807f61646d696e00000000000000000000000000000000000000000000000000000081525060050190506040516020818303038152906040526040518082805190602001908083835b6020831015156114fe57805182526020820191506020810190506020830392506114d9565b6001836020036101000a038019825116818451168082178552505050505050905001915050604051809103902060001916600c60003373ffffffffffffffffffffffffffffffffffffffff1673ffffffffffffffffffffffffffffffffffffffff16815260200190815260200160002060405160200180828054600181600116156101000203166002900480156115cc5780601f106115aa5761010080835404028352918201916115cc565b820191906000526020600020905b8154815290600101906020018083116115b8575b50509150506040516020818303038152906040526040518082805190602001908083835b60208310151561161557805182526020820191506020810190506020830392506115f0565b6001836020036101000a03801982511681845116808217855250505050505090500191505060405180910390206000191614151561165257600080fd5b6000151561165f82612ad5565b151514156116ce57600a8190806001815401808255809150509060018203906000526020600020016000909192909190916101000a81548173ffffffffffffffffffffffffffffffffffffffff021916908373ffffffffffffffffffffffffffffffffffffffff160217905550505b6040805190810160405280600581526020017f61646d696e000000000000000000000000000000000000000000000000000000815250600c60008373ffffffffffffffffffffffffffffffffffffffff1673ffffffffffffffffffffffffffffffffffffffff1681526020019081526020016000209080519060200190611756929190613037565b5050565b600a8181548110151561176957fe5b906000526020600020016000915054906101000a900473ffffffffffffffffffffffffffffffffffffffff1681565b6000806000600c60003373ffffffffffffffffffffffffffffffffffffffff1673ffffffffffffffffffffffffffffffffffffffff1681526020019081526020016000208054600181600116156101000203166002900490501115156117fd57600080fd5b60405160200180807f6f776e657200000000000000000000000000000000000000000000000000000081525060050190506040516020818303038152906040526040518082805190602001908083835b602083101515611872578051825260208201915060208101905060208303925061184d565b6001836020036101000a038019825116818451168082178552505050505050905001915050604051809103902060001916600c60003373ffffffffffffffffffffffffffffffffffffffff1673ffffffffffffffffffffffffffffffffffffffff16815260200190815260200160002060405160200180828054600181600116156101000203166002900480156119405780601f1061191e576101008083540402835291820191611940565b820191906000526020600020905b81548152906001019060200180831161192c575b50509150506040516020818303038152906040526040518082805190602001908083835b6020831015156119895780518252602082019150602081019050602083039250611964565b6001836020036101000a0380198251168184511680821785525050505050509050019150506040518091039020600019161415156119c657600080fd5b6000600760003373ffffffffffffffffffffffffffffffffffffffff1673ffffffffffffffffffffffffffffffffffffffff168152602001908152602001600020805490501115611a5f576001600760003373ffffffffffffffffffffffffffffffffffffffff1673ffffffffffffffffffffffffffffffffffffffff1681526020019081526020016000208054905091509150611a6a565b600080809050915091505b9091565b6000600a80549050905090565b8060028190555050565b60006040805190810160405280600581526020017f6f776e6572000000000000000000000000000000000000000000000000000000815250600c60003373ffffffffffffffffffffffffffffffffffffffff1673ffffffffffffffffffffffffffffffffffffffff1681526020019081526020016000209080519060200190611b0f929190613037565b5090565b6000600254905090565b6006602052806000526040600020600091509050806000015490806001018054600181600116156101000203166002900480601f016020809104026020016040519081016040528092919081815260200182805460018160011615610100020316600290048015611bcf5780601f10611ba457610100808354040283529160200191611bcf565b820191906000526020600020905b815481529060010190602001808311611bb257829003601f168201915b505050505090806002018054600181600116156101000203166002900480601f016020809104026020016040519081016040528092919081815260200182805460018160011615610100020316600290048015611c6d5780601f10611c4257610100808354040283529160200191611c6d565b820191906000526020600020905b815481529060010190602001808311611c5057829003601f168201915b505050505090806003018054600181600116156101000203166002900480601f016020809104026020016040519081016040528092919081815260200182805460018160011615610100020316600290048015611d0b5780601f10611ce057610100808354040283529160200191611d0b565b820191906000526020600020905b815481529060010190602001808311611cee57829003601f168201915b5050505050908060040160009054906101000a900473ffffffffffffffffffffffffffffffffffffffff16905085565b6000611d456130b7565b6000600c60003373ffffffffffffffffffffffffffffffffffffffff1673ffffffffffffffffffffffffffffffffffffffff168152602001908152602001600020805460018160011615610100020316600290049050111515611da757600080fd5b60405160200180807f6f776e657200000000000000000000000000000000000000000000000000000081525060050190506040516020818303038152906040526040518082805190602001908083835b602083101515611e1c5780518252602082019150602081019050602083039250611df7565b6001836020036101000a038019825116818451168082178552505050505050905001915050604051809103902060001916600c60003373ffffffffffffffffffffffffffffffffffffffff1673ffffffffffffffffffffffffffffffffffffffff1681526020019081526020016000206040516020018082805460018160011615610100020316600290048015611eea5780601f10611ec8576101008083540402835291820191611eea565b820191906000526020600020905b815481529060010190602001808311611ed6575b50509150506040516020818303038152906040526040518082805190602001908083835b602083101515611f335780518252602082019150602081019050602083039250611f0e565b6001836020036101000a038019825116818451168082178552505050505050905001915050604051809103902060001916141515611f7057600080fd5b600154915060a0604051908101604052808381526020018681526020018581526020018481526020018781525090508060096000848152602001908152602001600020600082015181600001556020820151816001019080519060200190611fd99291906130e7565b506040820151816002019080519060200190611ff69291906130e7565b50606082015181600301556080820151816004015590505060086000878152602001908152602001600020829080600181540180825580915050906001820390600052602060002001600090919290919091505550600160008154809291906001019190505550505050505050565b6009602052806000526040600020600091509050806000015490806001018054600181600116156101000203166002900480601f0160208091040260200160405190810160405280929190818152602001828054600181600116156101000203166002900480156121175780601f106120ec57610100808354040283529160200191612117565b820191906000526020600020905b8154815290600101906020018083116120fa57829003601f168201915b505050505090806002018054600181600116156101000203166002900480601f0160208091040260200160405190810160405280929190818152602001828054600181600116156101000203166002900480156121b55780601f1061218a576101008083540402835291602001916121b5565b820191906000526020600020905b81548152906001019060200180831161219857829003601f168201915b5050505050908060030154908060040154905085565b60008060006008600085815260200190815260200160002080549050111561220f57600160086000858152602001908152602001600020805490509150915061221a565b600080809050915091505b915091565b6000612229613167565b6000600c60003373ffffffffffffffffffffffffffffffffffffffff1673ffffffffffffffffffffffffffffffffffffffff16815260200190815260200160002080546001816001161561010002031660029004905011151561228b57600080fd5b60405160200180807f6f776e657200000000000000000000000000000000000000000000000000000081525060050190506040516020818303038152906040526040518082805190602001908083835b60208310151561230057805182526020820191506020810190506020830392506122db565b6001836020036101000a038019825116818451168082178552505050505050905001915050604051809103902060001916600c60003373ffffffffffffffffffffffffffffffffffffffff1673ffffffffffffffffffffffffffffffffffffffff16815260200190815260200160002060405160200180828054600181600116156101000203166002900480156123ce5780601f106123ac5761010080835404028352918201916123ce565b820191906000526020600020905b8154815290600101906020018083116123ba575b50509150506040516020818303038152906040526040518082805190602001908083835b60208310151561241757805182526020820191506020810190506020830392506123f2565b6001836020036101000a03801982511681845116808217855250505050505090500191505060405180910390206000191614151561245457600080fd5b600354915060a0604051908101604052808381526020018681526020018581526020018481526020013373ffffffffffffffffffffffffffffffffffffffff16815250905080600660008481526020019081526020016000206000820151816000015560208201518160010190805190602001906124d39291906130e7565b5060408201518160020190805190602001906124f09291906130e7565b50606082015181600301908051906020019061250d9291906130e7565b5060808201518160040160006101000a81548173ffffffffffffffffffffffffffffffffffffffff021916908373ffffffffffffffffffffffffffffffffffffffff160217905550905050600760003373ffffffffffffffffffffffffffffffffffffffff1673ffffffffffffffffffffffffffffffffffffffff168152602001908152602001600020829080600181540180825580915050906001820390600052602060002001600090919290919091505550600b8290806001815401808255809150509060018203906000526020600020016000909192909190915055506003600081548092919060010191905055505050505050565b60086020528160005260406000208181548110151561262157fe5b90600052602060002001600091509150505481565b60045481600960008581526020019081526020016000206003015402013414151561266057600080fd5b346005600060096000868152602001908152602001600020600401548152602001908152602001600020600082825401925050819055505050565b600060066000838152602001908152602001600020600001549050919050565b600c6020528060005260406000206000915090508054600181600116156101000203166002900480601f0160208091040260200160405190810160405280929190818152602001828054600181600116156101000203166002900480156127635780601f1061273857610100808354040283529160200191612763565b820191906000526020600020905b81548152906001019060200180831161274657829003601f168201915b505050505081565b6000600c60003373ffffffffffffffffffffffffffffffffffffffff1673ffffffffffffffffffffffffffffffffffffffff1681526020019081526020016000208054600181600116156101000203166002900490501115156127cd57600080fd5b60405160200180807f61646d696e00000000000000000000000000000000000000000000000000000081525060050190506040516020818303038152906040526040518082805190602001908083835b602083101515612842578051825260208201915060208101905060208303925061281d565b6001836020036101000a038019825116818451168082178552505050505050905001915050604051809103902060001916600c60003373ffffffffffffffffffffffffffffffffffffffff1673ffffffffffffffffffffffffffffffffffffffff16815260200190815260200160002060405160200180828054600181600116156101000203166002900480156129105780601f106128ee576101008083540402835291820191612910565b820191906000526020600020905b8154815290600101906020018083116128fc575b50509150506040516020818303038152906040526040518082805190602001908083835b6020831015156129595780518252602082019150602081019050602083039250612934565b6001836020036101000a03801982511681845116808217855250505050505090500191505060405180910390206000191614151561299657600080fd5b600015156129a382612ad5565b15151415612a1257600a8190806001815401808255809150509060018203906000526020600020016000909192909190916101000a81548173ffffffffffffffffffffffffffffffffffffffff021916908373ffffffffffffffffffffffffffffffffffffffff160217905550505b6040805190810160405280600781526020017f73686f7070657200000000000000000000000000000000000000000000000000815250600c60008373ffffffffffffffffffffffffffffffffffffffff1673ffffffffffffffffffffffffffffffffffffffff1681526020019081526020016000209080519060200190612a9a929190613037565b5050565b60056020528060005260406000206000915090505481565b60003073ffffffffffffffffffffffffffffffffffffffff1631905090565b600060405160200180807f61646d696e00000000000000000000000000000000000000000000000000000081525060050190506040516020818303038152906040526040518082805190602001908083835b602083101515612b4c5780518252602082019150602081019050602083039250612b27565b6001836020036101000a038019825116818451168082178552505050505050905001915050604051809103902060001916600c60008473ffffffffffffffffffffffffffffffffffffffff1673ffffffffffffffffffffffffffffffffffffffff1681526020019081526020016000206040516020018082805460018160011615610100020316600290048015612c1a5780601f10612bf8576101008083540402835291820191612c1a565b820191906000526020600020905b815481529060010190602001808311612c06575b50509150506040516020818303038152906040526040518082805190602001908083835b602083101515612c635780518252602082019150602081019050602083039250612c3e565b6001836020036101000a0380198251168184511680821785525050505050509050019150506040518091039020600019161480612e5a575060405160200180807f6f776e657200000000000000000000000000000000000000000000000000000081525060050190506040516020818303038152906040526040518082805190602001908083835b602083101515612d105780518252602082019150602081019050602083039250612ceb565b6001836020036101000a038019825116818451168082178552505050505050905001915050604051809103902060001916600c60008473ffffffffffffffffffffffffffffffffffffffff1673ffffffffffffffffffffffffffffffffffffffff1681526020019081526020016000206040516020018082805460018160011615610100020316600290048015612dde5780601f10612dbc576101008083540402835291820191612dde565b820191906000526020600020905b815481529060010190602001808311612dca575b50509150506040516020818303038152906040526040518082805190602001908083835b602083101515612e275780518252602082019150602081019050602083039250612e02565b6001836020036101000a038019825116818451168082178552505050505050905001915050604051809103902060001916145b8061301f575060405160200180807f757365720000000000000000000000000000000000000000000000000000000081525060040190506040516020818303038152906040526040518082805190602001908083835b602083101515612ed55780518252602082019150602081019050602083039250612eb0565b6001836020036101000a038019825116818451168082178552505050505050905001915050604051809103902060001916600c60008473ffffffffffffffffffffffffffffffffffffffff1673ffffffffffffffffffffffffffffffffffffffff1681526020019081526020016000206040516020018082805460018160011615610100020316600290048015612fa35780601f10612f81576101008083540402835291820191612fa3565b820191906000526020600020905b815481529060010190602001808311612f8f575b50509150506040516020818303038152906040526040518082805190602001908083835b602083101515612fec5780518252602082019150602081019050602083039250612fc7565b6001836020036101000a038019825116818451168082178552505050505050905001915050604051809103902060001916145b1561302d5760019050613032565b600090505b919050565b828054600181600116156101000203166002900490600052602060002090601f016020900481019282601f1061307857805160ff19168380011785556130a6565b828001600101855582156130a6579182015b828111156130a557825182559160200191906001019061308a565b5b5090506130b391906131ad565b5090565b60a06040519081016040528060008152602001606081526020016060815260200160008152602001600081525090565b828054600181600116156101000203166002900490600052602060002090601f016020900481019282601f1061312857805160ff1916838001178555613156565b82800160010185558215613156579182015b8281111561315557825182559160200191906001019061313a565b5b50905061316391906131ad565b5090565b60a06040519081016040528060008152602001606081526020016060815260200160608152602001600073ffffffffffffffffffffffffffffffffffffffff1681525090565b6131cf91905b808211156131cb5760008160009055506001016131b3565b5090565b905600a165627a7a723058203b7d43ae0127c8a270d69e2a6059cebca7c7a6fc04206475878643639239d9810029",
  "source": "pragma solidity ^0.4.17;\n\ncontract KulaksMarketplace {\n  struct Product {\n    uint id;\n    string name;\n    string description;\n    uint price;\n    uint shopId;\n    \n  }\n  struct Shop {\n    uint id;\n    string name;\n    string shopType;\n    string description;\n    address owner;\n  }\n  \n  constructor () public payable {\n      shopCount = 1;\n      productCount = 1;\n      creator = msg.sender;\n  }\n  address public creator; // the address that instantiated the contract\n  uint productCount; // used to create id's for products\n  uint storedData; // AK_REMOE\n  uint shopCount; // used to create id's for shops\n  uint shippingAndHandling = 20; // s&h charge (in wei)\n  mapping(uint => uint) public shopBalances; // used to keep track of all balances\n  // mapping(address => bool) public admins; // enter an address to confirm if it's an admin\n  // mapping(address => bool) public shopOwners; // enter an address to confirm if it's an shopOwner\n  mapping(uint => Shop) public shops; // enter shopId to get info about the store\n  mapping(address => uint[]) public shopIds; // enter an address to get an array of creates shops for the particular shopOwner\n  mapping(uint => uint[]) public productIds; // enter a productId to get an array of created products for the particular shop\n  mapping(uint => Product) public products; // used to keep track of all products\n  address[] public usersList; // list of users used to display on admin page\n  uint[] public shopsList; // list of shops used to display on shopper's home page\n  mapping(address => string) public users; // used to keep track of all users\n  \n  // for shop owner users only\n  modifier shopOwnerOnly() {\n    require(bytes(users[msg.sender]).length > 0);\n    require(keccak256(abi.encodePacked(users[msg.sender])) == keccak256(abi.encodePacked(\"owner\")));\n    _;\n  }\n  \n  // for admin users only\n  modifier adminOnly() {\n    require(bytes(users[msg.sender]).length > 0);\n    require(keccak256(abi.encodePacked(users[msg.sender])) == keccak256(abi.encodePacked(\"admin\")));\n    _;\n  }\n  \n  // only owner of the specific shop can execute this call\n  modifier ownerOfSpecificShopOnly(uint _shopId) {\n       // making sure shopId exists within shops\n    require((shops[_shopId].id) > 0);\n     // making sure the person that is trying to change something within shop is the owner\n    require((shops[_shopId].owner) == msg.sender);\n    // making sure msg.sender exists within users mapping\n    require(bytes(users[msg.sender]).length > 0);\n    require(keccak256(abi.encodePacked(users[msg.sender])) == keccak256(abi.encodePacked(\"owner\")));\n    \n    \n    _;\n  }\n  \n  // check if user already exists within users mapping\n  function checkUserListExist (address _addr) private view returns(bool) {\n      if(\n          keccak256(abi.encodePacked(users[_addr])) == keccak256(abi.encodePacked(\"admin\")) ||\n          keccak256(abi.encodePacked(users[_addr])) == keccak256(abi.encodePacked(\"owner\")) ||\n          keccak256(abi.encodePacked(users[_addr])) == keccak256(abi.encodePacked(\"user\"))\n      ) {\n          return true;\n      }\n      \n      return false;\n  }\n\n  // to be removed - AK_REMOVE\n  function test123(uint _shopId) public view returns(uint256) {\n      return (shops[_shopId].id);\n  }\n  \n  // used by admin to create a regular an owner of a shop\n  function makeShopOwner(address _addr) adminOnly public {\n    if(checkUserListExist(_addr) == false) {\n         usersList.push(_addr);\n    }\n    users[_addr] = \"owner\";\n     \n  }\n  \n  // used by admin to create another admin\n  function makeAdmin(address _addr) adminOnly public {\n    if(checkUserListExist(_addr) == false) {\n        usersList.push(_addr);\n    }\n    users[_addr] = \"admin\";\n     \n  }\n  \n  // used by admin to create a regular user/shopper\n  function makeShopper(address _addr) adminOnly public {\n    if(checkUserListExist(_addr) == false) {\n        usersList.push(_addr);\n    }\n    users[_addr] = \"shopper\";\n     \n  }\n  \n  // get length of userList so we can itterate over it and get all users visible by admin\n  function getUsersListLength() public view returns(uint) {\n     return usersList.length;\n  }\n  \n  // get length of shopsList so we can itterate over it and get all shops visible to user\n  function getShopsListLength() public view returns(uint) {\n     return shopsList.length;\n  }\n  \n  // creating a shop (by shop owner only)\n  function createShop(string _name, string _shopType, string _description) shopOwnerOnly public {\n     uint id = shopCount;\n     \n     Shop memory newShop = Shop({\n       id: id,\n       name: _name,\n       description: _description,\n       shopType: _shopType,\n       owner: msg.sender\n     });\n\n      // add a shop to shops mapping and reference by id\n     shops[id] = newShop;\n     \n     // push the shopId to a shopIds mapping for reference\n     shopIds[msg.sender].push(id);\n     // increment counter by 1 since you are using it for id's for shops as well\n     \n     shopsList.push(id); // push shopId to shopList so we can display all shops to user\n    shopCount++;\n  }\n  \n  // creating a product (by shop owner only)\n  function createProduct(uint _shopId, string _name, string _description, uint _price) shopOwnerOnly public {\n     uint id = productCount;\n     \n     Product memory newProduct = Product({\n       id: id,\n       shopId: _shopId,\n       name: _name,\n       description: _description,\n       price: _price\n     });\n     \n     products[id] = newProduct; // adding a product to shopProducts mapping\n     productIds[_shopId].push(id); // pushing the product id to be refernced in the store struct\n     productCount ++;\n    \n  }\n  \n  function purchaseProduct(uint _productId, uint quantity) public payable  {\n      // require for value of transaction to be of the right amount\n     require(msg.value == products[_productId].price * quantity + shippingAndHandling);\n      // keeping track of balance of a shop. shop owner can then send that value to their account\n     shopBalances[products[_productId].shopId] += msg.value;\n     // return products[_productId].price * quantity + shippingAndHandling;\n  }\n  \n  // moving shop eth balance to the shop owner account (by shop owner only)\n  function moveShopBalanceToOwner (uint _shopId) public ownerOfSpecificShopOnly(_shopId) payable {\n      shops[_shopId].owner.transfer(shopBalances[_shopId]);\n      shopBalances[_shopId] = 0; // after the money has been transfered over, make balance 0 again\n  }\n\n  // check if shop owner has shops\n  function doesOwnerHaveShops () public view shopOwnerOnly returns(bool, uint) {\n      if(shopIds[msg.sender].length > 0) {\n          return(true,  shopIds[msg.sender].length);\n      } else {\n          return(false, 0);\n      }\n  }\n  \n  function doesShopHaveProducts (uint shopId) public view returns(bool, uint) {\n      if(productIds[shopId].length > 0) {\n          return(true,  productIds[shopId].length);\n      } else {\n          return(false, 0);\n      }\n  }\n  \n  // to be removed - AK_REMOVE\n  function testBalance () public view returns (uint) {\n      return this.balance;\n  }\n\n  // for testing purposes only. any user can make themselves admin\n  // so that they can test all the functionality\n  function becomeAdmin() public returns (bool) {\n      users[msg.sender] = \"admin\";\n  }\n  \n  // for testing purposes only. any user can make themselves a shopper\n  // so that they can test all the functionality\n  function becomeRegularUser() public returns (bool) {\n      users[msg.sender] = \"shopper\";\n  }\n  \n  // for testing purposes only. any user can make themselves shop owner\n  // so that they can test all the functionality\n  function becomeShopOwner() public returns (bool) {\n      users[msg.sender] = \"owner\";\n  }\n  \n  // to be removed - AK_REMOVE\n  function set(uint x) public {\n    storedData = x;\n  }\n\n  // to be removed - AK_REMOVE\n  function get() public view returns (uint) {\n    return storedData;\n  }\n}\n",
  "sourcePath": "/Users/akulak/repos/eth_kulaksMarketplace/contracts/KulaksMarketplace.sol",
  "compiler": {
    "name": "solc",
    "version": "0.4.24+commit.e67f0147.Emscripten.clang"
  },
  "schemaVersion": "2.0.1",
  "updatedAt": "2018-08-10T22:58:40.717Z"
}