{
  "contractName": "KulaksMarketplace",
  "abi": [
    {
      "constant": true,
      "inputs": [
        {
          "name": "",
          "type": "address"
        }
      ],
      "name": "admins",
      "outputs": [
        {
          "name": "",
          "type": "bool"
        }
      ],
      "payable": false,
      "stateMutability": "view",
      "type": "function"
    },
    {
      "constant": true,
      "inputs": [
        {
          "name": "",
          "type": "address"
        }
      ],
      "name": "stores",
      "outputs": [
        {
          "name": "name",
          "type": "string"
        },
        {
          "name": "storeType",
          "type": "string"
        },
        {
          "name": "description",
          "type": "string"
        },
        {
          "name": "owner",
          "type": "address"
        }
      ],
      "payable": false,
      "stateMutability": "view",
      "type": "function"
    },
    {
      "constant": true,
      "inputs": [
        {
          "name": "",
          "type": "address"
        }
      ],
      "name": "shopOwners",
      "outputs": [
        {
          "name": "",
          "type": "bool"
        }
      ],
      "payable": false,
      "stateMutability": "view",
      "type": "function"
    },
    {
      "constant": false,
      "inputs": [
        {
          "name": "_name",
          "type": "string"
        },
        {
          "name": "_storeType",
          "type": "string"
        },
        {
          "name": "_description",
          "type": "string"
        }
      ],
      "name": "createStore",
      "outputs": [],
      "payable": false,
      "stateMutability": "nonpayable",
      "type": "function"
    },
    {
      "constant": true,
      "inputs": [],
      "name": "getStoreByOwner",
      "outputs": [
        {
          "name": "",
          "type": "string"
        },
        {
          "name": "",
          "type": "string"
        },
        {
          "name": "",
          "type": "string"
        },
        {
          "name": "",
          "type": "address"
        }
      ],
      "payable": false,
      "stateMutability": "view",
      "type": "function"
    },
    {
      "constant": false,
      "inputs": [],
      "name": "becomeAdmin",
      "outputs": [
        {
          "name": "",
          "type": "bool"
        }
      ],
      "payable": false,
      "stateMutability": "nonpayable",
      "type": "function"
    },
    {
      "constant": false,
      "inputs": [],
      "name": "becomeShopOwner",
      "outputs": [
        {
          "name": "",
          "type": "bool"
        }
      ],
      "payable": false,
      "stateMutability": "nonpayable",
      "type": "function"
    },
    {
      "constant": true,
      "inputs": [],
      "name": "checkIfSenderAdmin",
      "outputs": [
        {
          "name": "",
          "type": "bool"
        }
      ],
      "payable": false,
      "stateMutability": "view",
      "type": "function"
    },
    {
      "constant": true,
      "inputs": [],
      "name": "checkIfSenderShopOwners",
      "outputs": [
        {
          "name": "",
          "type": "bool"
        }
      ],
      "payable": false,
      "stateMutability": "view",
      "type": "function"
    },
    {
      "constant": false,
      "inputs": [
        {
          "name": "x",
          "type": "uint256"
        }
      ],
      "name": "set",
      "outputs": [],
      "payable": false,
      "stateMutability": "nonpayable",
      "type": "function"
    },
    {
      "constant": true,
      "inputs": [],
      "name": "get",
      "outputs": [
        {
          "name": "",
          "type": "uint256"
        }
      ],
      "payable": false,
      "stateMutability": "view",
      "type": "function"
    }
  ],
  "bytecode": "0x608060405234801561001057600080fd5b5061107b806100206000396000f3006080604052600436106100af576000357c0100000000000000000000000000000000000000000000000000000000900463ffffffff16806325971dff146100b4578063306368d2146100e3578063429b62e5146101d857806360fe47b114610233578063621df534146102605780636c6b5acd146104275780636d4ce63c146104565780636de17f8114610481578063baea05831461061c578063c4a8a96d1461064b578063ff30f514146106a6575b600080fd5b3480156100c057600080fd5b506100c96106d5565b604051808215151515815260200191505060405180910390f35b3480156100ef57600080fd5b506101d6600480360381019080803590602001908201803590602001908080601f0160208091040260200160405190810160405280939291908181526020018383808284378201915050505050509192919290803590602001908201803590602001908080601f0160208091040260200160405190810160405280939291908181526020018383808284378201915050505050509192919290803590602001908201803590602001908080601f0160208091040260200160405190810160405280939291908181526020018383808284378201915050505050509192919290505050610731565b005b3480156101e457600080fd5b50610219600480360381019080803573ffffffffffffffffffffffffffffffffffffffff1690602001909291905050506108b9565b604051808215151515815260200191505060405180910390f35b34801561023f57600080fd5b5061025e600480360381019080803590602001909291905050506108d9565b005b34801561026c57600080fd5b506102a1600480360381019080803573ffffffffffffffffffffffffffffffffffffffff1690602001909291905050506108e3565b604051808060200180602001806020018573ffffffffffffffffffffffffffffffffffffffff1673ffffffffffffffffffffffffffffffffffffffff168152602001848103845288818151815260200191508051906020019080838360005b8381101561031b578082015181840152602081019050610300565b50505050905090810190601f1680156103485780820380516001836020036101000a031916815260200191505b50848103835287818151815260200191508051906020019080838360005b83811015610381578082015181840152602081019050610366565b50505050905090810190601f1680156103ae5780820380516001836020036101000a031916815260200191505b50848103825286818151815260200191508051906020019080838360005b838110156103e75780820151818401526020810190506103cc565b50505050905090810190601f1680156104145780820380516001836020036101000a031916815260200191505b5097505050505050505060405180910390f35b34801561043357600080fd5b5061043c610afb565b604051808215151515815260200191505060405180910390f35b34801561046257600080fd5b5061046b610b58565b6040518082815260200191505060405180910390f35b34801561048d57600080fd5b50610496610b61565b604051808060200180602001806020018573ffffffffffffffffffffffffffffffffffffffff1673ffffffffffffffffffffffffffffffffffffffff168152602001848103845288818151815260200191508051906020019080838360005b838110156105105780820151818401526020810190506104f5565b50505050905090810190601f16801561053d5780820380516001836020036101000a031916815260200191505b50848103835287818151815260200191508051906020019080838360005b8381101561057657808201518184015260208101905061055b565b50505050905090810190601f1680156105a35780820380516001836020036101000a031916815260200191505b50848103825286818151815260200191508051906020019080838360005b838110156105dc5780820151818401526020810190506105c1565b50505050905090810190601f1680156106095780820380516001836020036101000a031916815260200191505b5097505050505050505060405180910390f35b34801561062857600080fd5b50610631610e73565b604051808215151515815260200191505060405180910390f35b34801561065757600080fd5b5061068c600480360381019080803573ffffffffffffffffffffffffffffffffffffffff169060200190929190505050610edf565b604051808215151515815260200191505060405180910390f35b3480156106b257600080fd5b506106bb610eff565b604051808215151515815260200191505060405180910390f35b600060018060003373ffffffffffffffffffffffffffffffffffffffff1673ffffffffffffffffffffffffffffffffffffffff16815260200190815260200160002060006101000a81548160ff02191690831515021790555090565b610739610f6b565b60011515600260003373ffffffffffffffffffffffffffffffffffffffff1673ffffffffffffffffffffffffffffffffffffffff16815260200190815260200160002060009054906101000a900460ff16151514151561079857600080fd5b6080604051908101604052808581526020018481526020018381526020013373ffffffffffffffffffffffffffffffffffffffff16815250905080600360003373ffffffffffffffffffffffffffffffffffffffff1673ffffffffffffffffffffffffffffffffffffffff168152602001908152602001600020600082015181600001908051906020019061082e929190610faa565b50602082015181600101908051906020019061084b929190610faa565b506040820151816002019080519060200190610868929190610faa565b5060608201518160030160006101000a81548173ffffffffffffffffffffffffffffffffffffffff021916908373ffffffffffffffffffffffffffffffffffffffff16021790555090505050505050565b60016020528060005260406000206000915054906101000a900460ff1681565b8060008190555050565b6003602052806000526040600020600091509050806000018054600181600116156101000203166002900480601f01602080910402602001604051908101604052809291908181526020018280546001816001161561010002031660029004801561098f5780601f106109645761010080835404028352916020019161098f565b820191906000526020600020905b81548152906001019060200180831161097257829003601f168201915b505050505090806001018054600181600116156101000203166002900480601f016020809104026020016040519081016040528092919081815260200182805460018160011615610100020316600290048015610a2d5780601f10610a0257610100808354040283529160200191610a2d565b820191906000526020600020905b815481529060010190602001808311610a1057829003601f168201915b505050505090806002018054600181600116156101000203166002900480601f016020809104026020016040519081016040528092919081815260200182805460018160011615610100020316600290048015610acb5780601f10610aa057610100808354040283529160200191610acb565b820191906000526020600020905b815481529060010190602001808311610aae57829003601f168201915b5050505050908060030160009054906101000a900473ffffffffffffffffffffffffffffffffffffffff16905084565b60006001600260003373ffffffffffffffffffffffffffffffffffffffff1673ffffffffffffffffffffffffffffffffffffffff16815260200190815260200160002060006101000a81548160ff02191690831515021790555090565b60008054905090565b60608060606000600360003373ffffffffffffffffffffffffffffffffffffffff1673ffffffffffffffffffffffffffffffffffffffff168152602001908152602001600020600001600360003373ffffffffffffffffffffffffffffffffffffffff1673ffffffffffffffffffffffffffffffffffffffff168152602001908152602001600020600201600360003373ffffffffffffffffffffffffffffffffffffffff1673ffffffffffffffffffffffffffffffffffffffff168152602001908152602001600020600101600360003373ffffffffffffffffffffffffffffffffffffffff1673ffffffffffffffffffffffffffffffffffffffff16815260200190815260200160002060030160009054906101000a900473ffffffffffffffffffffffffffffffffffffffff16838054600181600116156101000203166002900480601f016020809104026020016040519081016040528092919081815260200182805460018160011615610100020316600290048015610d265780601f10610cfb57610100808354040283529160200191610d26565b820191906000526020600020905b815481529060010190602001808311610d0957829003601f168201915b50505050509350828054600181600116156101000203166002900480601f016020809104026020016040519081016040528092919081815260200182805460018160011615610100020316600290048015610dc25780601f10610d9757610100808354040283529160200191610dc2565b820191906000526020600020905b815481529060010190602001808311610da557829003601f168201915b50505050509250818054600181600116156101000203166002900480601f016020809104026020016040519081016040528092919081815260200182805460018160011615610100020316600290048015610e5e5780601f10610e3357610100808354040283529160200191610e5e565b820191906000526020600020905b815481529060010190602001808311610e4157829003601f168201915b50505050509150935093509350935090919293565b600060011515600160003373ffffffffffffffffffffffffffffffffffffffff1673ffffffffffffffffffffffffffffffffffffffff16815260200190815260200160002060009054906101000a900460ff1615151415610ed75760019050610edc565b600090505b90565b60026020528060005260406000206000915054906101000a900460ff1681565b600060011515600260003373ffffffffffffffffffffffffffffffffffffffff1673ffffffffffffffffffffffffffffffffffffffff16815260200190815260200160002060009054906101000a900460ff1615151415610f635760019050610f68565b600090505b90565b608060405190810160405280606081526020016060815260200160608152602001600073ffffffffffffffffffffffffffffffffffffffff1681525090565b828054600181600116156101000203166002900490600052602060002090601f016020900481019282601f10610feb57805160ff1916838001178555611019565b82800160010185558215611019579182015b82811115611018578251825591602001919060010190610ffd565b5b509050611026919061102a565b5090565b61104c91905b80821115611048576000816000905550600101611030565b5090565b905600a165627a7a72305820ec76bed17bd42fb8a6fd7f53bb59791d3f752bd1412d9f793b66f844dcd517390029",
  "source": "pragma solidity ^0.4.17;\n\ncontract KulaksMarketplace {\n  struct Product {\n    uint id;\n    string name;\n    string description;\n    uint price;\n    \n  }\n  struct Store {\n    string name;\n    string storeType;\n    string description;\n    address owner;\n    // Product[] products;\n  }\n  uint storedData;\n  mapping(address => bool) public admins;\n  mapping(address => bool) public shopOwners;\n  mapping(address => Store) public stores;\n  address[] private storeOwners;\n  \n  modifier shopOwnerOnly() {\n    require(shopOwners[msg.sender] == true);\n    _;\n  }\n  \n  modifier adminOnly() {\n    require(shopOwners[msg.sender] == true);\n    _;\n  }\n  \n  \n  function createStore(string _name, string _storeType, string _description) public shopOwnerOnly {\n     Store memory newStore = Store({\n       name: _name,\n       description: _description,\n       storeType: _storeType,\n       owner: msg.sender\n       // products: new Product[](0)\n    });\n      // need to add a\n     stores[msg.sender] = newStore;\n    // stores.push(newStore);\n  }\n  \n  function getStoreByOwner() public view returns(string, string, string, address) {\n     return (\n        stores[msg.sender].name,\n        stores[msg.sender].description,\n        stores[msg.sender].storeType,\n        stores[msg.sender].owner\n     );\n  }\n\n  function becomeAdmin() public returns (bool) {\n      admins[msg.sender] = true;\n  }\n  \n  function becomeShopOwner() public returns (bool) {\n      shopOwners[msg.sender] = true;\n  }\n  \n  \n  function checkIfSenderAdmin () public view returns (bool) {\n      if(admins[msg.sender] == true) {\n          return true;\n      } else {\n          return false;\n      }\n  }\n  \n  function checkIfSenderShopOwners () public view returns (bool) {\n      if(shopOwners[msg.sender] == true) {\n          return true;\n      } else {\n          return false;\n      }\n  }\n  \n  \n\n\n  function set(uint x) public {\n    storedData = x;\n  }\n\n  function get() public view returns (uint) {\n    return storedData;\n  }\n}\n",
  "sourcePath": "/Users/akulak/repos/eth_kulaksMarketplace/contracts/KulaksMarketplace.sol",
  "compiler": {
    "name": "solc",
    "version": "0.4.24+commit.e67f0147.Emscripten.clang"
  },
  "schemaVersion": "2.0.0",
  "updatedAt": "2018-07-09T02:02:33.889Z"
}