{
  "contractName": "KulaksMarketplace",
  "abi": [
    {
      "constant": true,
      "inputs": [
        {
          "name": "",
          "type": "address"
        },
        {
          "name": "",
          "type": "uint256"
        }
      ],
      "name": "storeIds",
      "outputs": [
        {
          "name": "",
          "type": "uint256"
        }
      ],
      "payable": false,
      "stateMutability": "view",
      "type": "function"
    },
    {
      "constant": true,
      "inputs": [
        {
          "name": "",
          "type": "address"
        }
      ],
      "name": "admins",
      "outputs": [
        {
          "name": "",
          "type": "bool"
        }
      ],
      "payable": false,
      "stateMutability": "view",
      "type": "function"
    },
    {
      "constant": true,
      "inputs": [
        {
          "name": "",
          "type": "address"
        }
      ],
      "name": "shopOwners",
      "outputs": [
        {
          "name": "",
          "type": "bool"
        }
      ],
      "payable": false,
      "stateMutability": "view",
      "type": "function"
    },
    {
      "constant": true,
      "inputs": [
        {
          "name": "",
          "type": "uint256"
        }
      ],
      "name": "stores",
      "outputs": [
        {
          "name": "id",
          "type": "uint256"
        },
        {
          "name": "name",
          "type": "string"
        },
        {
          "name": "storeType",
          "type": "string"
        },
        {
          "name": "description",
          "type": "string"
        },
        {
          "name": "owner",
          "type": "address"
        }
      ],
      "payable": false,
      "stateMutability": "view",
      "type": "function"
    },
    {
      "inputs": [],
      "payable": true,
      "stateMutability": "payable",
      "type": "constructor"
    },
    {
      "constant": false,
      "inputs": [
        {
          "name": "_name",
          "type": "string"
        },
        {
          "name": "_storeType",
          "type": "string"
        },
        {
          "name": "_description",
          "type": "string"
        }
      ],
      "name": "createStore",
      "outputs": [],
      "payable": false,
      "stateMutability": "nonpayable",
      "type": "function"
    },
    {
      "constant": true,
      "inputs": [],
      "name": "doesUserHaveStores",
      "outputs": [
        {
          "name": "",
          "type": "bool"
        },
        {
          "name": "",
          "type": "uint256"
        }
      ],
      "payable": false,
      "stateMutability": "view",
      "type": "function"
    },
    {
      "constant": true,
      "inputs": [
        {
          "name": "id",
          "type": "uint256"
        }
      ],
      "name": "getStoreIdByOrder",
      "outputs": [
        {
          "name": "",
          "type": "bool"
        },
        {
          "name": "",
          "type": "uint256"
        }
      ],
      "payable": false,
      "stateMutability": "view",
      "type": "function"
    },
    {
      "constant": true,
      "inputs": [
        {
          "name": "id",
          "type": "uint256"
        }
      ],
      "name": "getStoreInfo",
      "outputs": [
        {
          "name": "",
          "type": "string"
        },
        {
          "name": "",
          "type": "string"
        },
        {
          "name": "",
          "type": "string"
        },
        {
          "name": "",
          "type": "address"
        }
      ],
      "payable": false,
      "stateMutability": "view",
      "type": "function"
    },
    {
      "constant": true,
      "inputs": [
        {
          "name": "id",
          "type": "uint256"
        }
      ],
      "name": "getStoreByOwner",
      "outputs": [
        {
          "name": "",
          "type": "string"
        },
        {
          "name": "",
          "type": "string"
        },
        {
          "name": "",
          "type": "string"
        },
        {
          "name": "",
          "type": "address"
        }
      ],
      "payable": false,
      "stateMutability": "view",
      "type": "function"
    },
    {
      "constant": false,
      "inputs": [
        {
          "name": "userAddress",
          "type": "address"
        }
      ],
      "name": "sendValueTest",
      "outputs": [],
      "payable": true,
      "stateMutability": "payable",
      "type": "function"
    },
    {
      "constant": true,
      "inputs": [],
      "name": "testSender",
      "outputs": [
        {
          "name": "",
          "type": "address"
        }
      ],
      "payable": false,
      "stateMutability": "view",
      "type": "function"
    },
    {
      "constant": true,
      "inputs": [],
      "name": "testBalance",
      "outputs": [
        {
          "name": "",
          "type": "uint256"
        }
      ],
      "payable": false,
      "stateMutability": "view",
      "type": "function"
    },
    {
      "constant": false,
      "inputs": [
        {
          "name": "adminAddress",
          "type": "address"
        }
      ],
      "name": "becomeAdmin",
      "outputs": [
        {
          "name": "",
          "type": "bool"
        }
      ],
      "payable": false,
      "stateMutability": "nonpayable",
      "type": "function"
    },
    {
      "constant": false,
      "inputs": [
        {
          "name": "ownerAddress",
          "type": "address"
        }
      ],
      "name": "becomeShopOwner",
      "outputs": [
        {
          "name": "",
          "type": "bool"
        }
      ],
      "payable": false,
      "stateMutability": "nonpayable",
      "type": "function"
    },
    {
      "constant": true,
      "inputs": [
        {
          "name": "checkAddress",
          "type": "address"
        }
      ],
      "name": "checkIfUserAdmin",
      "outputs": [
        {
          "name": "",
          "type": "bool"
        }
      ],
      "payable": false,
      "stateMutability": "view",
      "type": "function"
    },
    {
      "constant": true,
      "inputs": [
        {
          "name": "checkAddress",
          "type": "address"
        }
      ],
      "name": "checkIfUserShopOwner",
      "outputs": [
        {
          "name": "",
          "type": "bool"
        }
      ],
      "payable": false,
      "stateMutability": "view",
      "type": "function"
    },
    {
      "constant": false,
      "inputs": [
        {
          "name": "x",
          "type": "uint256"
        }
      ],
      "name": "set",
      "outputs": [],
      "payable": false,
      "stateMutability": "nonpayable",
      "type": "function"
    },
    {
      "constant": true,
      "inputs": [],
      "name": "get",
      "outputs": [
        {
          "name": "",
          "type": "uint256"
        }
      ],
      "payable": false,
      "stateMutability": "view",
      "type": "function"
    }
  ],
  "bytecode": "0x6080604052600180819055506119248061001a6000396000f3006080604052600436106100fc576000357c0100000000000000000000000000000000000000000000000000000000900463ffffffff16806309c7a53a1461010157806313ba60361461015c578063284754871461030d578063306368d21461036e578063429b62e51461046357806350b6b264146104be57806358d711621461066f57806360fe47b1146106a55780636a561cb8146106d25780636d4ce63c1461072957806384ef8b0f1461075457806385add65e146107a0578063a36a2587146107fb578063c4a8a96d14610831578063e768c93c1461088c578063e8a59cd8146108e7578063edede60114610a9f578063ff8010bb14610aca575b600080fd5b34801561010d57600080fd5b50610142600480360381019080803573ffffffffffffffffffffffffffffffffffffffff169060200190929190505050610b25565b604051808215151515815260200191505060405180910390f35b34801561016857600080fd5b5061018760048036038101908080359060200190929190505050610b93565b604051808060200180602001806020018573ffffffffffffffffffffffffffffffffffffffff1673ffffffffffffffffffffffffffffffffffffffff168152602001848103845288818151815260200191508051906020019080838360005b838110156102015780820151818401526020810190506101e6565b50505050905090810190601f16801561022e5780820380516001836020036101000a031916815260200191505b50848103835287818151815260200191508051906020019080838360005b8381101561026757808201518184015260208101905061024c565b50505050905090810190601f1680156102945780820380516001836020036101000a031916815260200191505b50848103825286818151815260200191508051906020019080838360005b838110156102cd5780820151818401526020810190506102b2565b50505050905090810190601f1680156102fa5780820380516001836020036101000a031916815260200191505b5097505050505050505060405180910390f35b34801561031957600080fd5b50610358600480360381019080803573ffffffffffffffffffffffffffffffffffffffff16906020019092919080359060200190929190505050610df6565b6040518082815260200191505060405180910390f35b34801561037a57600080fd5b50610461600480360381019080803590602001908201803590602001908080601f0160208091040260200160405190810160405280939291908181526020018383808284378201915050505050509192919290803590602001908201803590602001908080601f0160208091040260200160405190810160405280939291908181526020018383808284378201915050505050509192919290803590602001908201803590602001908080601f0160208091040260200160405190810160405280939291908181526020018383808284378201915050505050509192919290505050610e26565b005b34801561046f57600080fd5b506104a4600480360381019080803573ffffffffffffffffffffffffffffffffffffffff169060200190929190505050611015565b604051808215151515815260200191505060405180910390f35b3480156104ca57600080fd5b506104e960048036038101908080359060200190929190505050611035565b604051808060200180602001806020018573ffffffffffffffffffffffffffffffffffffffff1673ffffffffffffffffffffffffffffffffffffffff168152602001848103845288818151815260200191508051906020019080838360005b83811015610563578082015181840152602081019050610548565b50505050905090810190601f1680156105905780820380516001836020036101000a031916815260200191505b50848103835287818151815260200191508051906020019080838360005b838110156105c95780820151818401526020810190506105ae565b50505050905090810190601f1680156105f65780820380516001836020036101000a031916815260200191505b50848103825286818151815260200191508051906020019080838360005b8381101561062f578082015181840152602081019050610614565b50505050905090810190601f16801561065c5780820380516001836020036101000a031916815260200191505b5097505050505050505060405180910390f35b34801561067b57600080fd5b50610684611298565b60405180831515151581526020018281526020019250505060405180910390f35b3480156106b157600080fd5b506106d060048036038101908080359060200190929190505050611343565b005b3480156106de57600080fd5b506106e761134d565b604051808273ffffffffffffffffffffffffffffffffffffffff1673ffffffffffffffffffffffffffffffffffffffff16815260200191505060405180910390f35b34801561073557600080fd5b5061073e611355565b6040518082815260200191505060405180910390f35b34801561076057600080fd5b5061077f6004803603810190808035906020019092919050505061135e565b60405180831515151581526020018281526020019250505060405180910390f35b3480156107ac57600080fd5b506107e1600480360381019080803573ffffffffffffffffffffffffffffffffffffffff169060200190929190505050611432565b604051808215151515815260200191505060405180910390f35b61082f600480360381019080803573ffffffffffffffffffffffffffffffffffffffff169060200190929190505050611491565b005b34801561083d57600080fd5b50610872600480360381019080803573ffffffffffffffffffffffffffffffffffffffff1690602001909291905050506114e3565b604051808215151515815260200191505060405180910390f35b34801561089857600080fd5b506108cd600480360381019080803573ffffffffffffffffffffffffffffffffffffffff169060200190929190505050611503565b604051808215151515815260200191505060405180910390f35b3480156108f357600080fd5b5061091260048036038101908080359060200190929190505050611562565b604051808681526020018060200180602001806020018573ffffffffffffffffffffffffffffffffffffffff1673ffffffffffffffffffffffffffffffffffffffff168152602001848103845288818151815260200191508051906020019080838360005b83811015610992578082015181840152602081019050610977565b50505050905090810190601f1680156109bf5780820380516001836020036101000a031916815260200191505b50848103835287818151815260200191508051906020019080838360005b838110156109f85780820151818401526020810190506109dd565b50505050905090810190601f168015610a255780820380516001836020036101000a031916815260200191505b50848103825286818151815260200191508051906020019080838360005b83811015610a5e578082015181840152602081019050610a43565b50505050905090810190601f168015610a8b5780820380516001836020036101000a031916815260200191505b509850505050505050505060405180910390f35b348015610aab57600080fd5b50610ab4611780565b6040518082815260200191505060405180910390f35b348015610ad657600080fd5b50610b0b600480360381019080803573ffffffffffffffffffffffffffffffffffffffff16906020019092919050505061179f565b604051808215151515815260200191505060405180910390f35b600060011515600360008473ffffffffffffffffffffffffffffffffffffffff1673ffffffffffffffffffffffffffffffffffffffff16815260200190815260200160002060009054906101000a900460ff1615151415610b895760019050610b8e565b600090505b919050565b606080606060006004600086815260200190815260200160002060010160046000878152602001908152602001600020600301600460008881526020019081526020016000206002016004600089815260200190815260200160002060040160009054906101000a900473ffffffffffffffffffffffffffffffffffffffff16838054600181600116156101000203166002900480601f016020809104026020016040519081016040528092919081815260200182805460018160011615610100020316600290048015610ca85780601f10610c7d57610100808354040283529160200191610ca8565b820191906000526020600020905b815481529060010190602001808311610c8b57829003601f168201915b50505050509350828054600181600116156101000203166002900480601f016020809104026020016040519081016040528092919081815260200182805460018160011615610100020316600290048015610d445780601f10610d1957610100808354040283529160200191610d44565b820191906000526020600020905b815481529060010190602001808311610d2757829003601f168201915b50505050509250818054600181600116156101000203166002900480601f016020809104026020016040519081016040528092919081815260200182805460018160011615610100020316600290048015610de05780601f10610db557610100808354040283529160200191610de0565b820191906000526020600020905b815481529060010190602001808311610dc357829003601f168201915b5050505050915093509350935093509193509193565b600560205281600052604060002081815481101515610e1157fe5b90600052602060002001600091509150505481565b6000610e3061180d565b60011515600360003373ffffffffffffffffffffffffffffffffffffffff1673ffffffffffffffffffffffffffffffffffffffff16815260200190815260200160002060009054906101000a900460ff161515141515610e8f57600080fd5b600154915060a0604051908101604052808381526020018681526020018581526020018481526020013373ffffffffffffffffffffffffffffffffffffffff1681525090508060046000848152602001908152602001600020600082015181600001556020820151816001019080519060200190610f0e929190611853565b506040820151816002019080519060200190610f2b929190611853565b506060820151816003019080519060200190610f48929190611853565b5060808201518160040160006101000a81548173ffffffffffffffffffffffffffffffffffffffff021916908373ffffffffffffffffffffffffffffffffffffffff160217905550905050600560003373ffffffffffffffffffffffffffffffffffffffff1673ffffffffffffffffffffffffffffffffffffffff1681526020019081526020016000208290806001815401808255809150509060018203906000526020600020016000909192909190915055506001600081548092919060010191905055505050505050565b60026020528060005260406000206000915054906101000a900460ff1681565b606080606060006004600086815260200190815260200160002060010160046000878152602001908152602001600020600301600460008881526020019081526020016000206002016004600089815260200190815260200160002060040160009054906101000a900473ffffffffffffffffffffffffffffffffffffffff16838054600181600116156101000203166002900480601f01602080910402602001604051908101604052809291908181526020018280546001816001161561010002031660029004801561114a5780601f1061111f5761010080835404028352916020019161114a565b820191906000526020600020905b81548152906001019060200180831161112d57829003601f168201915b50505050509350828054600181600116156101000203166002900480601f0160208091040260200160405190810160405280929190818152602001828054600181600116156101000203166002900480156111e65780601f106111bb576101008083540402835291602001916111e6565b820191906000526020600020905b8154815290600101906020018083116111c957829003601f168201915b50505050509250818054600181600116156101000203166002900480601f0160208091040260200160405190810160405280929190818152602001828054600181600116156101000203166002900480156112825780601f1061125757610100808354040283529160200191611282565b820191906000526020600020905b81548152906001019060200180831161126557829003601f168201915b5050505050915093509350935093509193509193565b6000806000600560003373ffffffffffffffffffffffffffffffffffffffff1673ffffffffffffffffffffffffffffffffffffffff168152602001908152602001600020805490501115611334576001600560003373ffffffffffffffffffffffffffffffffffffffff1673ffffffffffffffffffffffffffffffffffffffff168152602001908152602001600020805490509150915061133f565b600080809050915091505b9091565b8060008190555050565b600033905090565b60008054905090565b6000806000600560003373ffffffffffffffffffffffffffffffffffffffff1673ffffffffffffffffffffffffffffffffffffffff168152602001908152602001600020848154811015156113af57fe5b90600052602060002001541115611422576001600560003373ffffffffffffffffffffffffffffffffffffffff1673ffffffffffffffffffffffffffffffffffffffff1681526020019081526020016000208481548110151561140e57fe5b90600052602060002001549150915061142d565b600080809050915091505b915091565b60006001600360008473ffffffffffffffffffffffffffffffffffffffff1673ffffffffffffffffffffffffffffffffffffffff16815260200190815260200160002060006101000a81548160ff021916908315150217905550919050565b8073ffffffffffffffffffffffffffffffffffffffff166108fc670de0b6b3a76400009081150290604051600060405180830381858888f193505050501580156114df573d6000803e3d6000fd5b5050565b60036020528060005260406000206000915054906101000a900460ff1681565b60006001600260008473ffffffffffffffffffffffffffffffffffffffff1673ffffffffffffffffffffffffffffffffffffffff16815260200190815260200160002060006101000a81548160ff021916908315150217905550919050565b6004602052806000526040600020600091509050806000015490806001018054600181600116156101000203166002900480601f0160208091040260200160405190810160405280929190818152602001828054600181600116156101000203166002900480156116145780601f106115e957610100808354040283529160200191611614565b820191906000526020600020905b8154815290600101906020018083116115f757829003601f168201915b505050505090806002018054600181600116156101000203166002900480601f0160208091040260200160405190810160405280929190818152602001828054600181600116156101000203166002900480156116b25780601f10611687576101008083540402835291602001916116b2565b820191906000526020600020905b81548152906001019060200180831161169557829003601f168201915b505050505090806003018054600181600116156101000203166002900480601f0160208091040260200160405190810160405280929190818152602001828054600181600116156101000203166002900480156117505780601f1061172557610100808354040283529160200191611750565b820191906000526020600020905b81548152906001019060200180831161173357829003601f168201915b5050505050908060040160009054906101000a900473ffffffffffffffffffffffffffffffffffffffff16905085565b60003073ffffffffffffffffffffffffffffffffffffffff1631905090565b600060011515600260008473ffffffffffffffffffffffffffffffffffffffff1673ffffffffffffffffffffffffffffffffffffffff16815260200190815260200160002060009054906101000a900460ff16151514156118035760019050611808565b600090505b919050565b60a06040519081016040528060008152602001606081526020016060815260200160608152602001600073ffffffffffffffffffffffffffffffffffffffff1681525090565b828054600181600116156101000203166002900490600052602060002090601f016020900481019282601f1061189457805160ff19168380011785556118c2565b828001600101855582156118c2579182015b828111156118c15782518255916020019190600101906118a6565b5b5090506118cf91906118d3565b5090565b6118f591905b808211156118f15760008160009055506001016118d9565b5090565b905600a165627a7a72305820bbf469872f57f77c6afcd26312352c42bc8eff2679bdb7590d16c7ccb59e03ce0029",
  "source": "pragma solidity ^0.4.17;\n\ncontract KulaksMarketplace {\n  struct Product {\n    uint id;\n    string name;\n    string description;\n    uint price;\n    \n  }\n  struct Store {\n    uint id;\n    string name;\n    string storeType;\n    string description;\n    address owner;\n    // Product[] products;\n  }\n  \n  constructor () public payable {\n      storeCount = 1;\n  }\n  uint storedData;\n  uint storeCount;\n  mapping(address => bool) public admins;\n  mapping(address => bool) public shopOwners;\n  mapping(uint => Store) public stores;\n  mapping(address => uint[]) public storeIds;\n  address[] private storeOwners;\n  \n  modifier shopOwnerOnly() {\n    require(shopOwners[msg.sender] == true);\n    _;\n  }\n  \n  modifier adminOnly() {\n    require(shopOwners[msg.sender] == true);\n    _;\n  }\n  \n  \n  function createStore(string _name, string _storeType, string _description) public shopOwnerOnly {\n     uint id = storeCount;\n     Store memory newStore = Store({\n       id: id,\n       name: _name,\n       description: _description,\n       storeType: _storeType,\n       owner: msg.sender\n       // products: new Product[](0)\n    });\n\n      // need to add a\n     stores[id] = newStore;\n     \n     storeIds[msg.sender].push(id);\n     // increment counter by 1 since you are using it for id's for stores as well\n    storeCount++;\n    // stores.push(newStore);\n  }\n  \n  function doesUserHaveStores () public view returns(bool, uint) {\n      if(storeIds[msg.sender].length > 0) {\n          return(true,  storeIds[msg.sender].length);\n      } else {\n          return(false, 0);\n      }\n  }\n  \n  function getStoreIdByOrder (uint id) public view returns(bool, uint) {\n      if(storeIds[msg.sender][id] > 0) {\n          return(true, storeIds[msg.sender][id]);\n      } else {\n          return(false, 0);\n      }\n  }\n  \n  function getStoreInfo (uint id) public view returns(string, string, string, address) {\n      return(\n        stores[id].name,\n        stores[id].description,\n        stores[id].storeType,\n        stores[id].owner\n      );\n  }\n  \n  // function getStoreByOwner() public view returns(string, string, string, address) {\n  function getStoreByOwner(uint id) public view returns(string, string, string, address) {\n     return (\n        stores[id].name,\n        stores[id].description,\n        stores[id].storeType,\n        stores[id].owner\n     );\n  }\n  \n  function sendValueTest(address userAddress) public payable {\n      userAddress.transfer(1 ether);\n  }\n  \n  function testSender () public view returns (address) {\n      return msg.sender;\n  }\n  \n  \n  function testBalance () public view returns (uint) {\n      return this.balance;\n  }\n\n  function becomeAdmin(address adminAddress) public returns (bool) {\n      admins[adminAddress] = true;\n  }\n  \n  function becomeShopOwner(address ownerAddress) public returns (bool) {\n      shopOwners[ownerAddress] = true;\n  }\n  \n  \n  function checkIfUserAdmin (address checkAddress) public view returns (bool) {\n      if(admins[checkAddress] == true) {\n          return true;\n      } else {\n          return false;\n      }\n  }\n  \n  function checkIfUserShopOwner (address checkAddress) public view returns (bool) {\n      if(shopOwners[checkAddress] == true) {\n          return true;\n      } else {\n          return false;\n      }\n  }\n  \n  function set(uint x) public {\n    storedData = x;\n  }\n\n  function get() public view returns (uint) {\n    return storedData;\n  }\n}\n",
  "sourcePath": "/Users/akulak/repos/eth_kulaksMarketplace/contracts/KulaksMarketplace.sol",
  "compiler": {
    "name": "solc",
    "version": "0.4.24+commit.e67f0147.Emscripten.clang"
  },
  "schemaVersion": "2.0.0",
  "updatedAt": "2018-07-15T03:44:30.956Z"
}